{"contracts/mocks/MockAggregator.sol":{"MockAggregator":{"abi":[{"inputs":[{"internalType":"int256","name":"initialAnswer","type":"int256"}],"stateMutability":"nonpayable","type":"constructor"},{"inputs":[],"name":"latestRoundData","outputs":[{"internalType":"uint80","name":"roundId","type":"uint80"},{"internalType":"int256","name":"answer","type":"int256"},{"internalType":"uint256","name":"startedAt","type":"uint256"},{"internalType":"uint256","name":"updatedAt","type":"uint256"},{"internalType":"uint80","name":"answeredInRound","type":"uint80"}],"stateMutability":"view","type":"function"},{"inputs":[{"internalType":"int256","name":"newAnswer","type":"int256"}],"name":"updateAnswer","outputs":[],"stateMutability":"nonpayable","type":"function"},{"inputs":[{"internalType":"uint256","name":"timestamp","type":"uint256"}],"name":"updateStaleTimestamp","outputs":[],"stateMutability":"nonpayable","type":"function"}],"evm":{"bytecode":{"linkReferences":{},"object":"60803461006757601f6101b038819003918201601f19168301916001600160401b0383118484101761006c578084926020946040528339810103126100675751600055600180546001600160501b031916811790554260025560405161012d90816100838239f35b600080fd5b634e487b7160e01b600052604160045260246000fdfe60806040526004361015601157600080fd5b6000803560e01c806328ce3bad1460de578063a87a20ce1460815763feaf968c14603a57600080fd5b34607e5780600319360112607e5760a09069ffffffffffffffffffff6001541690549060025460405192828452602084015280604084015260608301526080820152f35b80fd5b5034607e576020366003190112607e57600435815560015469ffffffffffffffffffff60018183160181811160ca57169069ffffffffffffffffffff1916176001554260025580f35b634e487b7160e01b84526011600452602484fd5b5034607e576020366003190112607e5760043560025580f3fea264697066735822122029a3c4b2a159ea1575ae6a30db0c457c284fd3bfca0f1689b444cde96b53ee5464736f6c63430008140033","opcodes":"PUSH1 0x80 CALLVALUE PUSH2 0x67 JUMPI PUSH1 0x1F PUSH2 0x1B0 CODESIZE DUP2 SWAP1 SUB SWAP2 DUP3 ADD PUSH1 0x1F NOT AND DUP4 ADD SWAP2 PUSH1 0x1 PUSH1 0x1 PUSH1 0x40 SHL SUB DUP4 GT DUP5 DUP5 LT OR PUSH2 0x6C JUMPI DUP1 DUP5 SWAP3 PUSH1 0x20 SWAP5 PUSH1 0x40 MSTORE DUP4 CODECOPY DUP2 ADD SUB SLT PUSH2 0x67 JUMPI MLOAD PUSH1 0x0 SSTORE PUSH1 0x1 DUP1 SLOAD PUSH1 0x1 PUSH1 0x1 PUSH1 0x50 SHL SUB NOT AND DUP2 OR SWAP1 SSTORE TIMESTAMP PUSH1 0x2 SSTORE PUSH1 0x40 MLOAD PUSH2 0x12D SWAP1 DUP2 PUSH2 0x83 DUP3 CODECOPY RETURN JUMPDEST PUSH1 0x0 DUP1 REVERT JUMPDEST PUSH4 0x4E487B71 PUSH1 0xE0 SHL PUSH1 0x0 MSTORE PUSH1 0x41 PUSH1 0x4 MSTORE PUSH1 0x24 PUSH1 0x0 REVERT INVALID PUSH1 0x80 PUSH1 0x40 MSTORE PUSH1 0x4 CALLDATASIZE LT ISZERO PUSH1 0x11 JUMPI PUSH1 0x0 DUP1 REVERT JUMPDEST PUSH1 0x0 DUP1 CALLDATALOAD PUSH1 0xE0 SHR DUP1 PUSH4 0x28CE3BAD EQ PUSH1 0xDE JUMPI DUP1 PUSH4 0xA87A20CE EQ PUSH1 0x81 JUMPI PUSH4 0xFEAF968C EQ PUSH1 0x3A JUMPI PUSH1 0x0 DUP1 REVERT JUMPDEST CALLVALUE PUSH1 0x7E JUMPI DUP1 PUSH1 0x3 NOT CALLDATASIZE ADD SLT PUSH1 0x7E JUMPI PUSH1 0xA0 SWAP1 PUSH10 0xFFFFFFFFFFFFFFFFFFFF PUSH1 0x1 SLOAD AND SWAP1 SLOAD SWAP1 PUSH1 0x2 SLOAD PUSH1 0x40 MLOAD SWAP3 DUP3 DUP5 MSTORE PUSH1 0x20 DUP5 ADD MSTORE DUP1 PUSH1 0x40 DUP5 ADD MSTORE PUSH1 0x60 DUP4 ADD MSTORE PUSH1 0x80 DUP3 ADD MSTORE RETURN JUMPDEST DUP1 REVERT JUMPDEST POP CALLVALUE PUSH1 0x7E JUMPI PUSH1 0x20 CALLDATASIZE PUSH1 0x3 NOT ADD SLT PUSH1 0x7E JUMPI PUSH1 0x4 CALLDATALOAD DUP2 SSTORE PUSH1 0x1 SLOAD PUSH10 0xFFFFFFFFFFFFFFFFFFFF PUSH1 0x1 DUP2 DUP4 AND ADD DUP2 DUP2 GT PUSH1 0xCA JUMPI AND SWAP1 PUSH10 0xFFFFFFFFFFFFFFFFFFFF NOT AND OR PUSH1 0x1 SSTORE TIMESTAMP PUSH1 0x2 SSTORE DUP1 RETURN JUMPDEST PUSH4 0x4E487B71 PUSH1 0xE0 SHL DUP5 MSTORE PUSH1 0x11 PUSH1 0x4 MSTORE PUSH1 0x24 DUP5 REVERT JUMPDEST POP CALLVALUE PUSH1 0x7E JUMPI PUSH1 0x20 CALLDATASIZE PUSH1 0x3 NOT ADD SLT PUSH1 0x7E JUMPI PUSH1 0x4 CALLDATALOAD PUSH1 0x2 SSTORE DUP1 RETURN INVALID LOG2 PUSH5 0x6970667358 0x22 SLT KECCAK256 0x29 LOG3 0xC4 0xB2 LOG1 MSIZE 0xEA ISZERO PUSH22 0xAE6A30DB0C457C284FD3BFCA0F1689B444CDE96B53EE SLOAD PUSH5 0x736F6C6343 STOP ADDMOD EQ STOP CALLER "},"methodIdentifiers":{"latestRoundData()":"feaf968c","updateAnswer(int256)":"a87a20ce","updateStaleTimestamp(uint256)":"28ce3bad"}}}}}