{"contracts/PredictionMarket.sol":{"PredictionMarket":{"abi":[{"inputs":[{"internalType":"address","name":"_platformFeeRecipient","type":"address"},{"internalType":"address","name":"_bnbUsdPriceFeed","type":"address"}],"stateMutability":"nonpayable","type":"constructor"},{"anonymous":false,"inputs":[{"indexed":true,"internalType":"uint256","name":"marketId","type":"uint256"},{"indexed":true,"internalType":"address","name":"bettor","type":"address"},{"indexed":false,"internalType":"bool","name":"prediction","type":"bool"},{"indexed":false,"internalType":"uint256","name":"amount","type":"uint256"},{"indexed":false,"internalType":"uint256","name":"platformFee","type":"uint256"},{"indexed":false,"internalType":"uint256","name":"creatorFee","type":"uint256"}],"name":"BetPlaced","type":"event"},{"anonymous":false,"inputs":[{"indexed":true,"internalType":"uint256","name":"marketId","type":"uint256"},{"indexed":true,"internalType":"address","name":"creator","type":"address"},{"indexed":false,"internalType":"string","name":"title","type":"string"},{"indexed":false,"internalType":"uint256","name":"deadline","type":"uint256"}],"name":"MarketCreated","type":"event"},{"anonymous":false,"inputs":[{"indexed":true,"internalType":"uint256","name":"marketId","type":"uint256"},{"indexed":false,"internalType":"bool","name":"outcome","type":"bool"}],"name":"MarketResolved","type":"event"},{"anonymous":false,"inputs":[{"indexed":false,"internalType":"uint256","name":"amount","type":"uint256"}],"name":"PlatformFeeCollected","type":"event"},{"anonymous":false,"inputs":[{"indexed":true,"internalType":"address","name":"user","type":"address"},{"indexed":false,"internalType":"uint256","name":"feePaid","type":"uint256"}],"name":"UserRegistered","type":"event"},{"anonymous":false,"inputs":[{"indexed":true,"internalType":"uint256","name":"marketId","type":"uint256"},{"indexed":true,"internalType":"address","name":"winner","type":"address"},{"indexed":false,"internalType":"uint256","name":"amount","type":"uint256"}],"name":"WinningsClaimed","type":"event"},{"inputs":[],"name":"BASIS_POINTS","outputs":[{"internalType":"uint256","name":"","type":"uint256"}],"stateMutability":"view","type":"function"},{"inputs":[],"name":"CREATOR_FEE_BP","outputs":[{"internalType":"uint256","name":"","type":"uint256"}],"stateMutability":"view","type":"function"},{"inputs":[],"name":"PLATFORM_FEE_BP","outputs":[{"internalType":"uint256","name":"","type":"uint256"}],"stateMutability":"view","type":"function"},{"inputs":[],"name":"bnbUsdPriceFeed","outputs":[{"internalType":"contract AggregatorV3Interface","name":"","type":"address"}],"stateMutability":"view","type":"function"},{"inputs":[{"internalType":"uint256","name":"marketId","type":"uint256"}],"name":"claimWinnings","outputs":[],"stateMutability":"nonpayable","type":"function"},{"inputs":[{"internalType":"string","name":"title","type":"string"},{"internalType":"string","name":"description","type":"string"},{"internalType":"string","name":"category","type":"string"},{"internalType":"uint256","name":"deadline","type":"uint256"}],"name":"createMarket","outputs":[{"internalType":"uint256","name":"marketId","type":"uint256"}],"stateMutability":"payable","type":"function"},{"inputs":[],"name":"createMarketStake","outputs":[{"internalType":"uint256","name":"","type":"uint256"}],"stateMutability":"view","type":"function"},{"inputs":[],"name":"getBNBUSDPrice","outputs":[{"internalType":"uint256","name":"","type":"uint256"}],"stateMutability":"view","type":"function"},{"inputs":[{"internalType":"uint256","name":"marketId","type":"uint256"}],"name":"getMarketDetails","outputs":[{"components":[{"internalType":"uint256","name":"id","type":"uint256"},{"internalType":"string","name":"title","type":"string"},{"internalType":"string","name":"description","type":"string"},{"internalType":"string","name":"category","type":"string"},{"internalType":"uint256","name":"deadline","type":"uint256"},{"internalType":"uint256","name":"yesPool","type":"uint256"},{"internalType":"uint256","name":"noPool","type":"uint256"},{"internalType":"uint256","name":"totalPool","type":"uint256"},{"internalType":"uint256","name":"participants","type":"uint256"},{"internalType":"bool","name":"resolved","type":"bool"},{"internalType":"bool","name":"outcome","type":"bool"},{"internalType":"address","name":"creator","type":"address"},{"internalType":"uint256","name":"creatorStake","type":"uint256"},{"internalType":"uint256","name":"creatorFeeAccrued","type":"uint256"}],"internalType":"struct PredictionMarket.Market","name":"","type":"tuple"}],"stateMutability":"view","type":"function"},{"inputs":[],"name":"getRegistrationFeeInBNB","outputs":[{"internalType":"uint256","name":"","type":"uint256"}],"stateMutability":"view","type":"function"},{"inputs":[{"internalType":"uint256","name":"marketId","type":"uint256"},{"internalType":"address","name":"user","type":"address"}],"name":"getUserBetInMarket","outputs":[{"internalType":"bool","name":"hasBet","type":"bool"},{"internalType":"bool","name":"prediction","type":"bool"},{"internalType":"uint256","name":"amount","type":"uint256"},{"internalType":"bool","name":"claimed","type":"bool"}],"stateMutability":"view","type":"function"},{"inputs":[{"internalType":"address","name":"user","type":"address"}],"name":"getUserBets","outputs":[{"components":[{"internalType":"uint256","name":"marketId","type":"uint256"},{"internalType":"bool","name":"prediction","type":"bool"},{"internalType":"uint256","name":"amount","type":"uint256"},{"internalType":"uint256","name":"timestamp","type":"uint256"},{"internalType":"bool","name":"claimed","type":"bool"}],"internalType":"struct PredictionMarket.Bet[]","name":"","type":"tuple[]"}],"stateMutability":"view","type":"function"},{"inputs":[{"internalType":"address","name":"user","type":"address"}],"name":"isUserRegistered","outputs":[{"internalType":"bool","name":"","type":"bool"}],"stateMutability":"view","type":"function"},{"inputs":[],"name":"marketCount","outputs":[{"internalType":"uint256","name":"","type":"uint256"}],"stateMutability":"view","type":"function"},{"inputs":[{"internalType":"uint256","name":"","type":"uint256"},{"internalType":"bool","name":"","type":"bool"}],"name":"marketPools","outputs":[{"internalType":"uint256","name":"","type":"uint256"}],"stateMutability":"view","type":"function"},{"inputs":[{"internalType":"uint256","name":"","type":"uint256"},{"internalType":"address","name":"","type":"address"}],"name":"marketUserBets","outputs":[{"internalType":"uint256","name":"marketId","type":"uint256"},{"internalType":"bool","name":"prediction","type":"bool"},{"internalType":"uint256","name":"amount","type":"uint256"},{"internalType":"uint256","name":"timestamp","type":"uint256"},{"internalType":"bool","name":"claimed","type":"bool"}],"stateMutability":"view","type":"function"},{"inputs":[{"internalType":"uint256","name":"","type":"uint256"}],"name":"markets","outputs":[{"internalType":"uint256","name":"id","type":"uint256"},{"internalType":"string","name":"title","type":"string"},{"internalType":"string","name":"description","type":"string"},{"internalType":"string","name":"category","type":"string"},{"internalType":"uint256","name":"deadline","type":"uint256"},{"internalType":"uint256","name":"yesPool","type":"uint256"},{"internalType":"uint256","name":"noPool","type":"uint256"},{"internalType":"uint256","name":"totalPool","type":"uint256"},{"internalType":"uint256","name":"participants","type":"uint256"},{"internalType":"bool","name":"resolved","type":"bool"},{"internalType":"bool","name":"outcome","type":"bool"},{"internalType":"address","name":"creator","type":"address"},{"internalType":"uint256","name":"creatorStake","type":"uint256"},{"internalType":"uint256","name":"creatorFeeAccrued","type":"uint256"}],"stateMutability":"view","type":"function"},{"inputs":[],"name":"minBetAmount","outputs":[{"internalType":"uint256","name":"","type":"uint256"}],"stateMutability":"view","type":"function"},{"inputs":[],"name":"owner","outputs":[{"internalType":"address","name":"","type":"address"}],"stateMutability":"view","type":"function"},{"inputs":[{"internalType":"uint256","name":"marketId","type":"uint256"},{"internalType":"bool","name":"prediction","type":"bool"}],"name":"placeBet","outputs":[],"stateMutability":"payable","type":"function"},{"inputs":[],"name":"platformFeeRecipient","outputs":[{"internalType":"address","name":"","type":"address"}],"stateMutability":"view","type":"function"},{"inputs":[],"name":"registerUser","outputs":[],"stateMutability":"payable","type":"function"},{"inputs":[{"internalType":"address","name":"","type":"address"}],"name":"registeredUsers","outputs":[{"internalType":"bool","name":"","type":"bool"}],"stateMutability":"view","type":"function"},{"inputs":[],"name":"registrationFeeUSD","outputs":[{"internalType":"uint256","name":"","type":"uint256"}],"stateMutability":"view","type":"function"},{"inputs":[{"internalType":"uint256","name":"marketId","type":"uint256"},{"internalType":"bool","name":"outcome","type":"bool"}],"name":"resolveMarket","outputs":[],"stateMutability":"nonpayable","type":"function"},{"inputs":[{"internalType":"uint256","name":"newStake","type":"uint256"}],"name":"updateCreateMarketStake","outputs":[],"stateMutability":"nonpayable","type":"function"},{"inputs":[{"internalType":"uint256","name":"newMinBet","type":"uint256"}],"name":"updateMinBetAmount","outputs":[],"stateMutability":"nonpayable","type":"function"},{"inputs":[{"internalType":"uint256","name":"newFeeUSD","type":"uint256"}],"name":"updateRegistrationFeeUSD","outputs":[],"stateMutability":"nonpayable","type":"function"},{"inputs":[{"internalType":"address","name":"","type":"address"},{"internalType":"uint256","name":"","type":"uint256"}],"name":"userBets","outputs":[{"internalType":"uint256","name":"marketId","type":"uint256"},{"internalType":"bool","name":"prediction","type":"bool"},{"internalType":"uint256","name":"amount","type":"uint256"},{"internalType":"uint256","name":"timestamp","type":"uint256"},{"internalType":"bool","name":"claimed","type":"bool"}],"stateMutability":"view","type":"function"},{"stateMutability":"payable","type":"receive"}],"evm":{"bytecode":{"linkReferences":{},"object":"60c0346200018b576200258590601f38839003908101601f19168201906001600160401b038211838310176200019057808391604095869485528339810103126200018b576200005d60206200005583620001a6565b9201620001a6565b662386f26fc1000060005567016345785d8a0000600155600280556001600160a01b03908282161562000147571690811562000103573360018060a01b0319600454161760045560805260a052600060035533600052600960205280600020600160ff19825416179055516123c99081620001bc82396080518181816101b60152818161079001528181610fe90152611983015260a051818181611c5801526120110152f35b825162461bcd60e51b815260206004820152601a60248201527f496e76616c6964207072696365206665656420616464726573730000000000006044820152606490fd5b835162461bcd60e51b815260206004820152601e60248201527f496e76616c696420706c6174666f726d2066656520726563697069656e7400006044820152606490fd5b600080fd5b634e487b7160e01b600052604160045260246000fd5b51906001600160a01b03821682036200018b5756fe6080604052600436101561001b575b361561001957600080fd5b005b60003560e01c80630595f18114611c875780630c54585514611c425780630e50cee514611c03578063163f752214611c035780632d56657d14611b115780633ba693c514611acd5780633c06853214611a985780634d3820eb1461192e57806357bde4461461179b578063677bd9ff1461140257806371700093146113e757806376e0040614610c3f5780638068aa6814610bb15780638da5cb5b14610b88578063980d5d5914610af65780639ed9c74d146106a6578063a85c188414610683578063b06c1ba314610443578063b1283e7714610333578063b73bf45614610305578063c97d66e914610277578063d64adc681461025b578063d670e9261461023d578063d782b5431461021f578063de7adf6e14610202578063e1f1c4a7146101e5578063eb13554f146101a0578063ec979082146101825763fa968eea0361000e573461017d57600036600319011261017d576020600054604051908152f35b600080fd5b3461017d57600036600319011261017d576020600354604051908152f35b3461017d57600036600319011261017d576040517f00000000000000000000000000000000000000000000000000000000000000006001600160a01b03168152602090f35b3461017d57600036600319011261017d5760206040516127108152f35b3461017d57600036600319011261017d5760206040516103e88152f35b3461017d57600036600319011261017d576020600154604051908152f35b3461017d57600036600319011261017d576020600254604051908152f35b3461017d57600036600319011261017d57602060405160c88152f35b3461017d57602036600319011261017d576004356102a060018060a01b036004541633146122a9565b6001811015806102fa575b156102b557600255005b60405162461bcd60e51b815260206004820152601f60248201527f466565206d757374206265206265747765656e20243120616e642024313030006044820152606490fd5b5060648111156102ab565b3461017d57602036600319011261017d5761032b60018060a01b036004541633146122a9565b600435600055005b3461017d57602036600319011261017d5760043560005260056020526040600020805461036260018301611e6a565b9161036f60028201611e6a565b61037b60038301611e6a565b91600481015492600582015460068301546007840154906008850154926103e96009870154956103db600b600a8a0154990154996103cd6040519e8f9e8f9081526101c0908160208201520190611df0565b8d810360408f015290611df0565b908b820360608d0152611df0565b60808a019890985260a089015260c088015260e087015261010086015260ff8181161515610120870152600882901c16151561014086015260101c6001600160a01b03166101608501526101808401526101a08301520390f35b3461017d57602036600319011261017d5760006101a060405161046581611d00565b82815260606020820152606060408201526060808201528260808201528260a08201528260c08201528260e08201528261010082015282610120820152826101408201528261016082015282610180820152015260043580151580610677575b6104ce906121c3565b60005260056020526040600020600b604051916104ea83611d00565b805483526104fa60018201611e6a565b602084015261050b60028201611e6a565b604084015261051c60038201611e6a565b606084015260048101546080840152600581015460a0840152600681015460c0840152600781015460e08401526008810154610100840152600981015460ff8116151561012085015260ff8160081c16151561014085015260018060a01b039060101c16610160840152600a81015461018084015201546101a0820152604051809160208252805160208301526101a06105fb6105ca60208401516101c060408701526101e0860190611df0565b6105e6604085015191601f199283888303016060890152611df0565b90606085015190868303016080870152611df0565b91608081015160a085015260a081015160c085015260c081015160e085015260e08101516101008501526101008101516101208501526101208101511515610140850152610140810151151561016085015260018060a01b03610160820151166101808501526101808101518285015201516101c08301520390f35b506003548111156104c5565b3461017d57600036600319011261017d57602061069e612172565b604051908152f35b6106af36611ce1565b90336000526020906009825260ff6040600020541615610ab15780151580610aa5575b6106db906121c3565b80600052600582526106f860ff6009604060002001541615612207565b8060005260058252600460406000200154421015610a67576000543410610a2d57806000526007825260406000203360005282526002604060002001546109e857806000526005825260406000206103e891823402341593348204148417156109d2576127108091049360c834029034820460c81417156109d2570491610788836107838634611f8c565b611f8c565b6000808080887f00000000000000000000000000000000000000000000000000000000000000006001600160a01b03165af16107c2611f10565b501561098d5790600891600b82016107db8682546121a7565b9055871561095357600582016107f28282546121a7565b90558360005282875260406000206001600052875260406000206108178282546121a7565b90555b610829600783019182546121a7565b90550161083681546121b4565b90556040519461084586611d1d565b8186521515918285870152346040870152426060870152600060808701523360005260068552604060002080546801000000000000000081101561093d5761089291600182018155611dbe565b61092757866108c57f1e78db4c4ee9ca4946fb3ee60599d1e0258a8b22e183510241ff770ab6332baf986108e293612253565b836000526007875260406000203360005287526040600020612253565b604051928352348584015283604084015260608301527f1faf624c13819091a75aa5abee6c43a2226da9b9475e62bdfc87bef2889b509660803393a3604051908152a1005b634e487b7160e01b600052600060045260246000fd5b634e487b7160e01b600052604160045260246000fd5b600682016109628282546121a7565b905583600052828752604060002060008052875260406000206109868282546121a7565b905561081a565b60405162461bcd60e51b815260048101879052601b60248201527f4661696c656420746f2073656e6420706c6174666f726d2066656500000000006044820152606490fd5b634e487b7160e01b600052601160045260246000fd5b60405162461bcd60e51b815260048101839052601a60248201527f416c726561647920626574206f6e2074686973206d61726b65740000000000006044820152606490fd5b60405162461bcd60e51b815260048101839052601260248201527142657420616d6f756e7420746f6f206c6f7760701b6044820152606490fd5b60405162461bcd60e51b815260048101839052601660248201527513585c9ad95d08191958591b1a5b99481c185cdcd95960521b6044820152606490fd5b506003548111156106d2565b60405162461bcd60e51b815260048101839052601860248201527f55736572206d75737420726567697374657220666972737400000000000000006044820152606490fd5b3461017d57604036600319011261017d57610b0f611ccb565b600435600052600760205260406000209060018060a01b031660005260205260406000208054610b8460ff6001840154169260028101549060ff6004600383015492015416916040519586958693909594919260809360a0860197865215156020860152604085015260608401521515910152565b0390f35b3461017d57600036600319011261017d576004546040516001600160a01b039091168152602090f35b3461017d57604036600319011261017d57610bca611cb5565b6001600160a01b0316600090815260066020526040902080546024359081101561017d57610bf791611dbe565b5080546001820154600283015460038401546004909401546040805194855260ff9384161515602086015284019190915260608301939093529091161515608082015260a090f35b608036600319011261017d5760043567ffffffffffffffff811161017d57610c6b903690600401611d77565b60243567ffffffffffffffff811161017d57610c8b903690600401611d77565b60443567ffffffffffffffff811161017d57610cab903690600401611d77565b6001549233600052600960205260ff604060002054166000146113d9576000935b610cd685826121a7565b908134106113945742606435111561134f57600a8351106113185760328551106112db57856112bd575b610d0b6003546121b4565b938460035560405195610d1d87611d00565b858752846020880152604087015260608601526064356080860152600060a0860152600060c0860152600060e08601526000610100860152600061012086015260006101408601523361016086015261018085015260006101a085015282600052600560205260406000209484518655602085015180519067ffffffffffffffff821161093d578190610db360018a0154611e30565b601f811161126a575b50602090601f83116001146111f8576000926111ed575b50508160011b916000199060031b1c19161760018701555b604085015180519067ffffffffffffffff821161093d578190610e1160028a0154611e30565b601f811161119a575b50602090601f83116001146111285760009261111d575b50508160011b916000199060031b1c19161760028701555b606085015195865167ffffffffffffffff811161093d57610e6d6003830154611e30565b97601f89116110d6575b602098508890601f831160011461105d579782600b936101a093610f6a999a9b600092611052575b50508160011b916000199060031b1c19161760038501555b6080810151600485015560a0810151600585015560c0810151600685015560e08101516007850155610100810151600885015560098401610f0b6101208301511515829060ff801983541691151516179055565b610140820151815461ff00191690151560081b61ff0016178155610160820151815462010000600160b01b03191660109190911b62010000600160b01b0316179055610180810151600a850155015191015580610fde575b5034611f8c565b80610fbe575b50817f03e783e31593f59fda73a59d05e2525d610a533995cce4d4750186c3b6bf80bb610fa860405193604085526040850190611df0565b92606435868201528033940390a3604051908152f35b6000808080610fd894335af1610fd2611f10565b50611f99565b83610f70565b6110216000808080857f00000000000000000000000000000000000000000000000000000000000000006001600160a01b03165af161101b611f10565b50611f40565b6040519081527fe29d35093005f4d575e1003753426b57a7f64378ba73332eef9c6ccc2b8decd6863392a285610f63565b015190508c80610e9f565b9060038401600052896000209160005b601f19851681106110bf5750836101a093610f6a999a9b93600193600b97601f198116106110a6575b505050811b016003850155610eb7565b015160001960f88460031b161c191690558c8080611096565b91928b60018192868501518155019401920161106d565b600383016000526020600020601f830160051c810160208410611116575b601f8b0160051c8201811061110a575050610e77565b600081556001016110f4565b50806110f4565b015190508880610e31565b9250600289016000526020600020906000935b601f198416851061117f576001945083601f19811610611166575b505050811b016002870155610e49565b015160001960f88460031b161c19169055888080611156565b8181015183556020948501946001909301929091019061113b565b909150600289016000526020600020601f840160051c8101602085106111e6575b90849392915b601f830160051c820181106111d7575050610e1a565b600081558594506001016111c1565b50806111bb565b015190508880610dd3565b9250600189016000526020600020906000935b601f198416851061124f576001945083601f19811610611236575b505050811b016001870155610deb565b015160001960f88460031b161c19169055888080611226565b8181015183556020948501946001909301929091019061120b565b909150600189016000526020600020601f840160051c8101602085106112b6575b90849392915b601f830160051c820181106112a7575050610dbc565b60008155859450600101611291565b508061128b565b3360005260096020526040600020600160ff19825416179055610d00565b60405162461bcd60e51b815260206004820152601560248201527411195cd8dc9a5c1d1a5bdb881d1bdbc81cda1bdc9d605a1b6044820152606490fd5b60405162461bcd60e51b815260206004820152600f60248201526e151a5d1b19481d1bdbc81cda1bdc9d608a1b6044820152606490fd5b60405162461bcd60e51b815260206004820152601e60248201527f446561646c696e65206d75737420626520696e207468652066757475726500006044820152606490fd5b60405162461bcd60e51b815260206004820152601a60248201527f496e73756666696369656e74207374616b6520616e64206665650000000000006044820152606490fd5b6113e1612172565b93610ccc565b3461017d57600036600319011261017d57602061069e611ffc565b3461017d5760208060031936011261017d576004358015158061178f575b611429906121c3565b806000526005825260406000209060098201549060ff82161561174a57806000526007845260406000203360005284526040600020600281015490811561171657600481019485549460ff86166116d15760081c60ff1680156116c6576005820154925b81156116bb576006830154945b6103e881026103e719828204016109d25760c8820282810460c8036109d2576114cf9261078391612710809104930490611f8c565b938061165d57506001015460ff16151590151514611618576114ff929160076114fa9201549061213f565b612152565b915b600160ff1991821681179094556000845b6115a5575b5050600080935080928192604051908282527f5380cf6fe903b40c6d5a9e0dfbca2f3a423f0a21520b4d5947ed5169bdba946d883393a3335af1611559611f10565b501561156157005b6064906040519062461bcd60e51b82526004820152601760248201527f4661696c656420746f2073656e642077696e6e696e67730000000000000000006044820152fd5b33600052600680875260406000208054831015611611576115c7838692611dbe565b5054146115df57506115d985916121b4565b90611512565b926000959286959293600461160088979688973389528c5260408820611dbe565b500191825416179055925092611517565b5050611517565b60405162461bcd60e51b815260048101889052601860248201527f4e6f2077696e6e65727320746f20636c61696d2066726f6d00000000000000006044820152606490fd5b9450600160ff910154169015159015150361168b57611685929160076114fa9201549061213f565b91611501565b60405162461bcd60e51b815260048101889052600860248201526710995d081b1bdcdd60c21b6044820152606490fd5b60058301549461149a565b60068201549261148d565b60405162461bcd60e51b815260048101899052601860248201527f57696e6e696e677320616c726561647920636c61696d656400000000000000006044820152606490fd5b60405162461bcd60e51b815260048101879052600c60248201526b139bc818995d08199bdd5b9960a21b6044820152606490fd5b60405162461bcd60e51b815260048101859052601760248201527f4d61726b6574206e6f74207265736f6c766564207965740000000000000000006044820152606490fd5b50600354811115611420565b3461017d576117a936611ce1565b6004546001600160a01b03906117c290821633146122a9565b82151580611922575b6117d4906121c3565b82600052602092600584526117f460ff6009604060002001541615612207565b806000526005845260046040600020015442106118dd576000818152600585526040812060098101805461ffff191686151560081b61ff0016176001178155919485948594859492939192917f4927fe38919783250023d27e65a3e56b6b5c3e49364e51674a41ef08d62460d9908a9061187890600b600a820154910154906121a7565b956040519015158152a25460101c165af1611891611f10565b501561189957005b6064906040519062461bcd60e51b82526004820152601f60248201527f4661696c656420746f2073656e642066756e647320746f2063726561746f72006044820152fd5b60405162461bcd60e51b815260048101859052601a60248201527f4d61726b657420646561646c696e65206e6f74207061737365640000000000006044820152606490fd5b506003548311156117cb565b600036600319011261017d5733600052600960205260ff60406000205416611a5357611958612172565b803410611a0e57336000908152600960205260408120805460ff191660011790556119b590808080857f00000000000000000000000000000000000000000000000000000000000000006001600160a01b03165af161101b611f10565b6119bf8134611f8c565b806119f4575b506040519081527fe29d35093005f4d575e1003753426b57a7f64378ba73332eef9c6ccc2b8decd660203392a2005b6000808080611a0894335af1610fd2611f10565b816119c5565b60405162461bcd60e51b815260206004820152601d60248201527f496e73756666696369656e7420726567697374726174696f6e206665650000006044820152606490fd5b60405162461bcd60e51b815260206004820152601760248201527f5573657220616c726561647920726567697374657265640000000000000000006044820152606490fd5b3461017d57611aa636611ce1565b90600052600860205260406000209015156000526020526020604060002054604051908152f35b3461017d57604036600319011261017d576080611af3611aeb611ccb565b60043561233a565b91604051931515845215156020840152604083015215156060820152f35b3461017d5760208060031936011261017d576001600160a01b03611b33611cb5565b1660005260068152604060002090815467ffffffffffffffff811161093d57604051906005611b668483831b0184611d39565b8183528383018095600052846000206000915b848310611be757604080518881528751818a018190528a928201908a60005b828110611ba55784840385f35b8551805185528083015115158584015260408082015190860152606080820151908601526080908101511515908501529481019460a090930192600101611b98565b8387600192611bf5856122f5565b815201920192019190611b79565b3461017d57602036600319011261017d576001600160a01b03611c24611cb5565b166000526009602052602060ff604060002054166040519015158152f35b3461017d57600036600319011261017d576040517f00000000000000000000000000000000000000000000000000000000000000006001600160a01b03168152602090f35b3461017d57602036600319011261017d57611cad60018060a01b036004541633146122a9565b600435600155005b600435906001600160a01b038216820361017d57565b602435906001600160a01b038216820361017d57565b604090600319011261017d5760043590602435801515810361017d5790565b6101c0810190811067ffffffffffffffff82111761093d57604052565b60a0810190811067ffffffffffffffff82111761093d57604052565b90601f8019910116810190811067ffffffffffffffff82111761093d57604052565b67ffffffffffffffff811161093d57601f01601f191660200190565b81601f8201121561017d57803590611d8e82611d5b565b92611d9c6040519485611d39565b8284526020838301011161017d57816000926020809301838601378301015290565b8054821015611dda576000526005602060002091020190600090565b634e487b7160e01b600052603260045260246000fd5b919082519283825260005b848110611e1c575050826000602080949584010152601f8019910116010190565b602081830181015184830182015201611dfb565b90600182811c92168015611e60575b6020831014611e4a57565b634e487b7160e01b600052602260045260246000fd5b91607f1691611e3f565b9060405191826000825492611e7e84611e30565b908184526001948581169081600014611eed5750600114611eaa575b5050611ea892500383611d39565b565b9093915060005260209081600020936000915b818310611ed5575050611ea893508201013880611e9a565b85548884018501529485019487945091830191611ebd565b915050611ea894506020925060ff191682840152151560051b8201013880611e9a565b3d15611f3b573d90611f2182611d5b565b91611f2f6040519384611d39565b82523d6000602084013e565b606090565b15611f4757565b60405162461bcd60e51b815260206004820152601f60248201527f4661696c656420746f2073656e6420726567697374726174696f6e20666565006044820152606490fd5b919082039182116109d257565b15611fa057565b60405162461bcd60e51b815260206004820152601f60248201527f4661696c656420746f20726566756e6420657863657373207061796d656e74006044820152606490fd5b519069ffffffffffffffffffff8216820361017d57565b604051633fabe5a360e21b815260a0816004817f00000000000000000000000000000000000000000000000000000000000000006001600160a01b03165afa80156121335760009182916120dc575b5060008213156120a257612062610e109142611f8c565b1161206a5790565b60405162461bcd60e51b815260206004820152601060248201526f50726963652066656564207374616c6560801b6044820152606490fd5b60405162461bcd60e51b8152602060048201526012602482015271125b9d985b1a59081c1c9a58d9481999595960721b6044820152606490fd5b91905060a0823d821161212b575b816120f760a09383611d39565b81010312612128575061210981611fe5565b506020810151612120608060608401519301611fe5565b50903861204b565b80fd5b3d91506120ea565b6040513d6000823e3d90fd5b818102929181159184041417156109d257565b811561215c570490565b634e487b7160e01b600052601260045260246000fd5b61217a611ffc565b600254906a52b7d2dcc80cd2e4000000918281029281840414901517156109d2576121a491612152565b90565b919082018092116109d257565b60001981146109d25760010190565b156121ca57565b60405162461bcd60e51b815260206004820152601560248201527413585c9ad95d08191bd95cc81b9bdd08195e1a5cdd605a1b6044820152606490fd5b1561220e57565b60405162461bcd60e51b815260206004820152601760248201527f4d61726b657420616c7265616479207265736f6c7665640000000000000000006044820152606490fd5b60046080611ea8938051845561227e60208201511515600186019060ff801983541691151516179055565b60408101516002850155606081015160038501550151151591019060ff801983541691151516179055565b156122b057565b60405162461bcd60e51b815260206004820152601860248201527f4f6e6c79206f776e65722063616e2063616c6c207468697300000000000000006044820152606490fd5b9060405161230281611d1d565b608060ff6004839580548552826001820154161515602086015260028101546040860152600381015460608601520154161515910152565b9060009182526007602052604082209060018060a01b03168252602052612363604082206122f5565b9160408301519182156123885750608060208401511515930151151590600193929190565b92509050818091819056fea2646970667358221220609a53b78f10faf91dc96086a821789586dfba8b7f4e267bdcbaeed4e26824a164736f6c63430008140033","opcodes":"PUSH1 0xC0 CALLVALUE PUSH3 0x18B JUMPI PUSH3 0x2585 SWAP1 PUSH1 0x1F CODESIZE DUP4 SWAP1 SUB SWAP1 DUP2 ADD PUSH1 0x1F NOT AND DUP3 ADD SWAP1 PUSH1 0x1 PUSH1 0x1 PUSH1 0x40 SHL SUB DUP3 GT DUP4 DUP4 LT OR PUSH3 0x190 JUMPI DUP1 DUP4 SWAP2 PUSH1 0x40 SWAP6 DUP7 SWAP5 DUP6 MSTORE DUP4 CODECOPY DUP2 ADD SUB SLT PUSH3 0x18B JUMPI PUSH3 0x5D PUSH1 0x20 PUSH3 0x55 DUP4 PUSH3 0x1A6 JUMP JUMPDEST SWAP3 ADD PUSH3 0x1A6 JUMP JUMPDEST PUSH7 0x2386F26FC10000 PUSH1 0x0 SSTORE PUSH8 0x16345785D8A0000 PUSH1 0x1 SSTORE PUSH1 0x2 DUP1 SSTORE PUSH1 0x1 PUSH1 0x1 PUSH1 0xA0 SHL SUB SWAP1 DUP3 DUP3 AND ISZERO PUSH3 0x147 JUMPI AND SWAP1 DUP2 ISZERO PUSH3 0x103 JUMPI CALLER PUSH1 0x1 DUP1 PUSH1 0xA0 SHL SUB NOT PUSH1 0x4 SLOAD AND OR PUSH1 0x4 SSTORE PUSH1 0x80 MSTORE PUSH1 0xA0 MSTORE PUSH1 0x0 PUSH1 0x3 SSTORE CALLER PUSH1 0x0 MSTORE PUSH1 0x9 PUSH1 0x20 MSTORE DUP1 PUSH1 0x0 KECCAK256 PUSH1 0x1 PUSH1 0xFF NOT DUP3 SLOAD AND OR SWAP1 SSTORE MLOAD PUSH2 0x23C9 SWAP1 DUP2 PUSH3 0x1BC DUP3 CODECOPY PUSH1 0x80 MLOAD DUP2 DUP2 DUP2 PUSH2 0x1B6 ADD MSTORE DUP2 DUP2 PUSH2 0x790 ADD MSTORE DUP2 DUP2 PUSH2 0xFE9 ADD MSTORE PUSH2 0x1983 ADD MSTORE PUSH1 0xA0 MLOAD DUP2 DUP2 DUP2 PUSH2 0x1C58 ADD MSTORE PUSH2 0x2011 ADD MSTORE RETURN JUMPDEST DUP3 MLOAD PUSH3 0x461BCD PUSH1 0xE5 SHL DUP2 MSTORE PUSH1 0x20 PUSH1 0x4 DUP3 ADD MSTORE PUSH1 0x1A PUSH1 0x24 DUP3 ADD MSTORE PUSH32 0x496E76616C696420707269636520666565642061646472657373000000000000 PUSH1 0x44 DUP3 ADD MSTORE PUSH1 0x64 SWAP1 REVERT JUMPDEST DUP4 MLOAD PUSH3 0x461BCD PUSH1 0xE5 SHL DUP2 MSTORE PUSH1 0x20 PUSH1 0x4 DUP3 ADD MSTORE PUSH1 0x1E PUSH1 0x24 DUP3 ADD MSTORE PUSH32 0x496E76616C696420706C6174666F726D2066656520726563697069656E740000 PUSH1 0x44 DUP3 ADD MSTORE PUSH1 0x64 SWAP1 REVERT JUMPDEST PUSH1 0x0 DUP1 REVERT JUMPDEST PUSH4 0x4E487B71 PUSH1 0xE0 SHL PUSH1 0x0 MSTORE PUSH1 0x41 PUSH1 0x4 MSTORE PUSH1 0x24 PUSH1 0x0 REVERT JUMPDEST MLOAD SWAP1 PUSH1 0x1 PUSH1 0x1 PUSH1 0xA0 SHL SUB DUP3 AND DUP3 SUB PUSH3 0x18B JUMPI JUMP INVALID PUSH1 0x80 PUSH1 0x40 MSTORE PUSH1 0x4 CALLDATASIZE LT ISZERO PUSH2 0x1B JUMPI JUMPDEST CALLDATASIZE ISZERO PUSH2 0x19 JUMPI PUSH1 0x0 DUP1 REVERT JUMPDEST STOP JUMPDEST PUSH1 0x0 CALLDATALOAD PUSH1 0xE0 SHR DUP1 PUSH4 0x595F181 EQ PUSH2 0x1C87 JUMPI DUP1 PUSH4 0xC545855 EQ PUSH2 0x1C42 JUMPI DUP1 PUSH4 0xE50CEE5 EQ PUSH2 0x1C03 JUMPI DUP1 PUSH4 0x163F7522 EQ PUSH2 0x1C03 JUMPI DUP1 PUSH4 0x2D56657D EQ PUSH2 0x1B11 JUMPI DUP1 PUSH4 0x3BA693C5 EQ PUSH2 0x1ACD JUMPI DUP1 PUSH4 0x3C068532 EQ PUSH2 0x1A98 JUMPI DUP1 PUSH4 0x4D3820EB EQ PUSH2 0x192E JUMPI DUP1 PUSH4 0x57BDE446 EQ PUSH2 0x179B JUMPI DUP1 PUSH4 0x677BD9FF EQ PUSH2 0x1402 JUMPI DUP1 PUSH4 0x71700093 EQ PUSH2 0x13E7 JUMPI DUP1 PUSH4 0x76E00406 EQ PUSH2 0xC3F JUMPI DUP1 PUSH4 0x8068AA68 EQ PUSH2 0xBB1 JUMPI DUP1 PUSH4 0x8DA5CB5B EQ PUSH2 0xB88 JUMPI DUP1 PUSH4 0x980D5D59 EQ PUSH2 0xAF6 JUMPI DUP1 PUSH4 0x9ED9C74D EQ PUSH2 0x6A6 JUMPI DUP1 PUSH4 0xA85C1884 EQ PUSH2 0x683 JUMPI DUP1 PUSH4 0xB06C1BA3 EQ PUSH2 0x443 JUMPI DUP1 PUSH4 0xB1283E77 EQ PUSH2 0x333 JUMPI DUP1 PUSH4 0xB73BF456 EQ PUSH2 0x305 JUMPI DUP1 PUSH4 0xC97D66E9 EQ PUSH2 0x277 JUMPI DUP1 PUSH4 0xD64ADC68 EQ PUSH2 0x25B JUMPI DUP1 PUSH4 0xD670E926 EQ PUSH2 0x23D JUMPI DUP1 PUSH4 0xD782B543 EQ PUSH2 0x21F JUMPI DUP1 PUSH4 0xDE7ADF6E EQ PUSH2 0x202 JUMPI DUP1 PUSH4 0xE1F1C4A7 EQ PUSH2 0x1E5 JUMPI DUP1 PUSH4 0xEB13554F EQ PUSH2 0x1A0 JUMPI DUP1 PUSH4 0xEC979082 EQ PUSH2 0x182 JUMPI PUSH4 0xFA968EEA SUB PUSH2 0xE JUMPI CALLVALUE PUSH2 0x17D JUMPI PUSH1 0x0 CALLDATASIZE PUSH1 0x3 NOT ADD SLT PUSH2 0x17D JUMPI PUSH1 0x20 PUSH1 0x0 SLOAD PUSH1 0x40 MLOAD SWAP1 DUP2 MSTORE RETURN JUMPDEST PUSH1 0x0 DUP1 REVERT JUMPDEST CALLVALUE PUSH2 0x17D JUMPI PUSH1 0x0 CALLDATASIZE PUSH1 0x3 NOT ADD SLT PUSH2 0x17D JUMPI PUSH1 0x20 PUSH1 0x3 SLOAD PUSH1 0x40 MLOAD SWAP1 DUP2 MSTORE RETURN JUMPDEST CALLVALUE PUSH2 0x17D JUMPI PUSH1 0x0 CALLDATASIZE PUSH1 0x3 NOT ADD SLT PUSH2 0x17D JUMPI PUSH1 0x40 MLOAD PUSH32 0x0 PUSH1 0x1 PUSH1 0x1 PUSH1 0xA0 SHL SUB AND DUP2 MSTORE PUSH1 0x20 SWAP1 RETURN JUMPDEST CALLVALUE PUSH2 0x17D JUMPI PUSH1 0x0 CALLDATASIZE PUSH1 0x3 NOT ADD SLT PUSH2 0x17D JUMPI PUSH1 0x20 PUSH1 0x40 MLOAD PUSH2 0x2710 DUP2 MSTORE RETURN JUMPDEST CALLVALUE PUSH2 0x17D JUMPI PUSH1 0x0 CALLDATASIZE PUSH1 0x3 NOT ADD SLT PUSH2 0x17D JUMPI PUSH1 0x20 PUSH1 0x40 MLOAD PUSH2 0x3E8 DUP2 MSTORE RETURN JUMPDEST CALLVALUE PUSH2 0x17D JUMPI PUSH1 0x0 CALLDATASIZE PUSH1 0x3 NOT ADD SLT PUSH2 0x17D JUMPI PUSH1 0x20 PUSH1 0x1 SLOAD PUSH1 0x40 MLOAD SWAP1 DUP2 MSTORE RETURN JUMPDEST CALLVALUE PUSH2 0x17D JUMPI PUSH1 0x0 CALLDATASIZE PUSH1 0x3 NOT ADD SLT PUSH2 0x17D JUMPI PUSH1 0x20 PUSH1 0x2 SLOAD PUSH1 0x40 MLOAD SWAP1 DUP2 MSTORE RETURN JUMPDEST CALLVALUE PUSH2 0x17D JUMPI PUSH1 0x0 CALLDATASIZE PUSH1 0x3 NOT ADD SLT PUSH2 0x17D JUMPI PUSH1 0x20 PUSH1 0x40 MLOAD PUSH1 0xC8 DUP2 MSTORE RETURN JUMPDEST CALLVALUE PUSH2 0x17D JUMPI PUSH1 0x20 CALLDATASIZE PUSH1 0x3 NOT ADD SLT PUSH2 0x17D JUMPI PUSH1 0x4 CALLDATALOAD PUSH2 0x2A0 PUSH1 0x1 DUP1 PUSH1 0xA0 SHL SUB PUSH1 0x4 SLOAD AND CALLER EQ PUSH2 0x22A9 JUMP JUMPDEST PUSH1 0x1 DUP2 LT ISZERO DUP1 PUSH2 0x2FA JUMPI JUMPDEST ISZERO PUSH2 0x2B5 JUMPI PUSH1 0x2 SSTORE STOP JUMPDEST PUSH1 0x40 MLOAD PUSH3 0x461BCD PUSH1 0xE5 SHL DUP2 MSTORE PUSH1 0x20 PUSH1 0x4 DUP3 ADD MSTORE PUSH1 0x1F PUSH1 0x24 DUP3 ADD MSTORE PUSH32 0x466565206D757374206265206265747765656E20243120616E64202431303000 PUSH1 0x44 DUP3 ADD MSTORE PUSH1 0x64 SWAP1 REVERT JUMPDEST POP PUSH1 0x64 DUP2 GT ISZERO PUSH2 0x2AB JUMP JUMPDEST CALLVALUE PUSH2 0x17D JUMPI PUSH1 0x20 CALLDATASIZE PUSH1 0x3 NOT ADD SLT PUSH2 0x17D JUMPI PUSH2 0x32B PUSH1 0x1 DUP1 PUSH1 0xA0 SHL SUB PUSH1 0x4 SLOAD AND CALLER EQ PUSH2 0x22A9 JUMP JUMPDEST PUSH1 0x4 CALLDATALOAD PUSH1 0x0 SSTORE STOP JUMPDEST CALLVALUE PUSH2 0x17D JUMPI PUSH1 0x20 CALLDATASIZE PUSH1 0x3 NOT ADD SLT PUSH2 0x17D JUMPI PUSH1 0x4 CALLDATALOAD PUSH1 0x0 MSTORE PUSH1 0x5 PUSH1 0x20 MSTORE PUSH1 0x40 PUSH1 0x0 KECCAK256 DUP1 SLOAD PUSH2 0x362 PUSH1 0x1 DUP4 ADD PUSH2 0x1E6A JUMP JUMPDEST SWAP2 PUSH2 0x36F PUSH1 0x2 DUP3 ADD PUSH2 0x1E6A JUMP JUMPDEST PUSH2 0x37B PUSH1 0x3 DUP4 ADD PUSH2 0x1E6A JUMP JUMPDEST SWAP2 PUSH1 0x4 DUP2 ADD SLOAD SWAP3 PUSH1 0x5 DUP3 ADD SLOAD PUSH1 0x6 DUP4 ADD SLOAD PUSH1 0x7 DUP5 ADD SLOAD SWAP1 PUSH1 0x8 DUP6 ADD SLOAD SWAP3 PUSH2 0x3E9 PUSH1 0x9 DUP8 ADD SLOAD SWAP6 PUSH2 0x3DB PUSH1 0xB PUSH1 0xA DUP11 ADD SLOAD SWAP10 ADD SLOAD SWAP10 PUSH2 0x3CD PUSH1 0x40 MLOAD SWAP15 DUP16 SWAP15 DUP16 SWAP1 DUP2 MSTORE PUSH2 0x1C0 SWAP1 DUP2 PUSH1 0x20 DUP3 ADD MSTORE ADD SWAP1 PUSH2 0x1DF0 JUMP JUMPDEST DUP14 DUP2 SUB PUSH1 0x40 DUP16 ADD MSTORE SWAP1 PUSH2 0x1DF0 JUMP JUMPDEST SWAP1 DUP12 DUP3 SUB PUSH1 0x60 DUP14 ADD MSTORE PUSH2 0x1DF0 JUMP JUMPDEST PUSH1 0x80 DUP11 ADD SWAP9 SWAP1 SWAP9 MSTORE PUSH1 0xA0 DUP10 ADD MSTORE PUSH1 0xC0 DUP9 ADD MSTORE PUSH1 0xE0 DUP8 ADD MSTORE PUSH2 0x100 DUP7 ADD MSTORE PUSH1 0xFF DUP2 DUP2 AND ISZERO ISZERO PUSH2 0x120 DUP8 ADD MSTORE PUSH1 0x8 DUP3 SWAP1 SHR AND ISZERO ISZERO PUSH2 0x140 DUP7 ADD MSTORE PUSH1 0x10 SHR PUSH1 0x1 PUSH1 0x1 PUSH1 0xA0 SHL SUB AND PUSH2 0x160 DUP6 ADD MSTORE PUSH2 0x180 DUP5 ADD MSTORE PUSH2 0x1A0 DUP4 ADD MSTORE SUB SWAP1 RETURN JUMPDEST CALLVALUE PUSH2 0x17D JUMPI PUSH1 0x20 CALLDATASIZE PUSH1 0x3 NOT ADD SLT PUSH2 0x17D JUMPI PUSH1 0x0 PUSH2 0x1A0 PUSH1 0x40 MLOAD PUSH2 0x465 DUP2 PUSH2 0x1D00 JUMP JUMPDEST DUP3 DUP2 MSTORE PUSH1 0x60 PUSH1 0x20 DUP3 ADD MSTORE PUSH1 0x60 PUSH1 0x40 DUP3 ADD MSTORE PUSH1 0x60 DUP1 DUP3 ADD MSTORE DUP3 PUSH1 0x80 DUP3 ADD MSTORE DUP3 PUSH1 0xA0 DUP3 ADD MSTORE DUP3 PUSH1 0xC0 DUP3 ADD MSTORE DUP3 PUSH1 0xE0 DUP3 ADD MSTORE DUP3 PUSH2 0x100 DUP3 ADD MSTORE DUP3 PUSH2 0x120 DUP3 ADD MSTORE DUP3 PUSH2 0x140 DUP3 ADD MSTORE DUP3 PUSH2 0x160 DUP3 ADD MSTORE DUP3 PUSH2 0x180 DUP3 ADD MSTORE ADD MSTORE PUSH1 0x4 CALLDATALOAD DUP1 ISZERO ISZERO DUP1 PUSH2 0x677 JUMPI JUMPDEST PUSH2 0x4CE SWAP1 PUSH2 0x21C3 JUMP JUMPDEST PUSH1 0x0 MSTORE PUSH1 0x5 PUSH1 0x20 MSTORE PUSH1 0x40 PUSH1 0x0 KECCAK256 PUSH1 0xB PUSH1 0x40 MLOAD SWAP2 PUSH2 0x4EA DUP4 PUSH2 0x1D00 JUMP JUMPDEST DUP1 SLOAD DUP4 MSTORE PUSH2 0x4FA PUSH1 0x1 DUP3 ADD PUSH2 0x1E6A JUMP JUMPDEST PUSH1 0x20 DUP5 ADD MSTORE PUSH2 0x50B PUSH1 0x2 DUP3 ADD PUSH2 0x1E6A JUMP JUMPDEST PUSH1 0x40 DUP5 ADD MSTORE PUSH2 0x51C PUSH1 0x3 DUP3 ADD PUSH2 0x1E6A JUMP JUMPDEST PUSH1 0x60 DUP5 ADD MSTORE PUSH1 0x4 DUP2 ADD SLOAD PUSH1 0x80 DUP5 ADD MSTORE PUSH1 0x5 DUP2 ADD SLOAD PUSH1 0xA0 DUP5 ADD MSTORE PUSH1 0x6 DUP2 ADD SLOAD PUSH1 0xC0 DUP5 ADD MSTORE PUSH1 0x7 DUP2 ADD SLOAD PUSH1 0xE0 DUP5 ADD MSTORE PUSH1 0x8 DUP2 ADD SLOAD PUSH2 0x100 DUP5 ADD MSTORE PUSH1 0x9 DUP2 ADD SLOAD PUSH1 0xFF DUP2 AND ISZERO ISZERO PUSH2 0x120 DUP6 ADD MSTORE PUSH1 0xFF DUP2 PUSH1 0x8 SHR AND ISZERO ISZERO PUSH2 0x140 DUP6 ADD MSTORE PUSH1 0x1 DUP1 PUSH1 0xA0 SHL SUB SWAP1 PUSH1 0x10 SHR AND PUSH2 0x160 DUP5 ADD MSTORE PUSH1 0xA DUP2 ADD SLOAD PUSH2 0x180 DUP5 ADD MSTORE ADD SLOAD PUSH2 0x1A0 DUP3 ADD MSTORE PUSH1 0x40 MLOAD DUP1 SWAP2 PUSH1 0x20 DUP3 MSTORE DUP1 MLOAD PUSH1 0x20 DUP4 ADD MSTORE PUSH2 0x1A0 PUSH2 0x5FB PUSH2 0x5CA PUSH1 0x20 DUP5 ADD MLOAD PUSH2 0x1C0 PUSH1 0x40 DUP8 ADD MSTORE PUSH2 0x1E0 DUP7 ADD SWAP1 PUSH2 0x1DF0 JUMP JUMPDEST PUSH2 0x5E6 PUSH1 0x40 DUP6 ADD MLOAD SWAP2 PUSH1 0x1F NOT SWAP3 DUP4 DUP9 DUP4 SUB ADD PUSH1 0x60 DUP10 ADD MSTORE PUSH2 0x1DF0 JUMP JUMPDEST SWAP1 PUSH1 0x60 DUP6 ADD MLOAD SWAP1 DUP7 DUP4 SUB ADD PUSH1 0x80 DUP8 ADD MSTORE PUSH2 0x1DF0 JUMP JUMPDEST SWAP2 PUSH1 0x80 DUP2 ADD MLOAD PUSH1 0xA0 DUP6 ADD MSTORE PUSH1 0xA0 DUP2 ADD MLOAD PUSH1 0xC0 DUP6 ADD MSTORE PUSH1 0xC0 DUP2 ADD MLOAD PUSH1 0xE0 DUP6 ADD MSTORE PUSH1 0xE0 DUP2 ADD MLOAD PUSH2 0x100 DUP6 ADD MSTORE PUSH2 0x100 DUP2 ADD MLOAD PUSH2 0x120 DUP6 ADD MSTORE PUSH2 0x120 DUP2 ADD MLOAD ISZERO ISZERO PUSH2 0x140 DUP6 ADD MSTORE PUSH2 0x140 DUP2 ADD MLOAD ISZERO ISZERO PUSH2 0x160 DUP6 ADD MSTORE PUSH1 0x1 DUP1 PUSH1 0xA0 SHL SUB PUSH2 0x160 DUP3 ADD MLOAD AND PUSH2 0x180 DUP6 ADD MSTORE PUSH2 0x180 DUP2 ADD MLOAD DUP3 DUP6 ADD MSTORE ADD MLOAD PUSH2 0x1C0 DUP4 ADD MSTORE SUB SWAP1 RETURN JUMPDEST POP PUSH1 0x3 SLOAD DUP2 GT ISZERO PUSH2 0x4C5 JUMP JUMPDEST CALLVALUE PUSH2 0x17D JUMPI PUSH1 0x0 CALLDATASIZE PUSH1 0x3 NOT ADD SLT PUSH2 0x17D JUMPI PUSH1 0x20 PUSH2 0x69E PUSH2 0x2172 JUMP JUMPDEST PUSH1 0x40 MLOAD SWAP1 DUP2 MSTORE RETURN JUMPDEST PUSH2 0x6AF CALLDATASIZE PUSH2 0x1CE1 JUMP JUMPDEST SWAP1 CALLER PUSH1 0x0 MSTORE PUSH1 0x20 SWAP1 PUSH1 0x9 DUP3 MSTORE PUSH1 0xFF PUSH1 0x40 PUSH1 0x0 KECCAK256 SLOAD AND ISZERO PUSH2 0xAB1 JUMPI DUP1 ISZERO ISZERO DUP1 PUSH2 0xAA5 JUMPI JUMPDEST PUSH2 0x6DB SWAP1 PUSH2 0x21C3 JUMP JUMPDEST DUP1 PUSH1 0x0 MSTORE PUSH1 0x5 DUP3 MSTORE PUSH2 0x6F8 PUSH1 0xFF PUSH1 0x9 PUSH1 0x40 PUSH1 0x0 KECCAK256 ADD SLOAD AND ISZERO PUSH2 0x2207 JUMP JUMPDEST DUP1 PUSH1 0x0 MSTORE PUSH1 0x5 DUP3 MSTORE PUSH1 0x4 PUSH1 0x40 PUSH1 0x0 KECCAK256 ADD SLOAD TIMESTAMP LT ISZERO PUSH2 0xA67 JUMPI PUSH1 0x0 SLOAD CALLVALUE LT PUSH2 0xA2D JUMPI DUP1 PUSH1 0x0 MSTORE PUSH1 0x7 DUP3 MSTORE PUSH1 0x40 PUSH1 0x0 KECCAK256 CALLER PUSH1 0x0 MSTORE DUP3 MSTORE PUSH1 0x2 PUSH1 0x40 PUSH1 0x0 KECCAK256 ADD SLOAD PUSH2 0x9E8 JUMPI DUP1 PUSH1 0x0 MSTORE PUSH1 0x5 DUP3 MSTORE PUSH1 0x40 PUSH1 0x0 KECCAK256 PUSH2 0x3E8 SWAP2 DUP3 CALLVALUE MUL CALLVALUE ISZERO SWAP4 CALLVALUE DUP3 DIV EQ DUP5 OR ISZERO PUSH2 0x9D2 JUMPI PUSH2 0x2710 DUP1 SWAP2 DIV SWAP4 PUSH1 0xC8 CALLVALUE MUL SWAP1 CALLVALUE DUP3 DIV PUSH1 0xC8 EQ OR ISZERO PUSH2 0x9D2 JUMPI DIV SWAP2 PUSH2 0x788 DUP4 PUSH2 0x783 DUP7 CALLVALUE PUSH2 0x1F8C JUMP JUMPDEST PUSH2 0x1F8C JUMP JUMPDEST PUSH1 0x0 DUP1 DUP1 DUP1 DUP9 PUSH32 0x0 PUSH1 0x1 PUSH1 0x1 PUSH1 0xA0 SHL SUB AND GAS CALL PUSH2 0x7C2 PUSH2 0x1F10 JUMP JUMPDEST POP ISZERO PUSH2 0x98D JUMPI SWAP1 PUSH1 0x8 SWAP2 PUSH1 0xB DUP3 ADD PUSH2 0x7DB DUP7 DUP3 SLOAD PUSH2 0x21A7 JUMP JUMPDEST SWAP1 SSTORE DUP8 ISZERO PUSH2 0x953 JUMPI PUSH1 0x5 DUP3 ADD PUSH2 0x7F2 DUP3 DUP3 SLOAD PUSH2 0x21A7 JUMP JUMPDEST SWAP1 SSTORE DUP4 PUSH1 0x0 MSTORE DUP3 DUP8 MSTORE PUSH1 0x40 PUSH1 0x0 KECCAK256 PUSH1 0x1 PUSH1 0x0 MSTORE DUP8 MSTORE PUSH1 0x40 PUSH1 0x0 KECCAK256 PUSH2 0x817 DUP3 DUP3 SLOAD PUSH2 0x21A7 JUMP JUMPDEST SWAP1 SSTORE JUMPDEST PUSH2 0x829 PUSH1 0x7 DUP4 ADD SWAP2 DUP3 SLOAD PUSH2 0x21A7 JUMP JUMPDEST SWAP1 SSTORE ADD PUSH2 0x836 DUP2 SLOAD PUSH2 0x21B4 JUMP JUMPDEST SWAP1 SSTORE PUSH1 0x40 MLOAD SWAP5 PUSH2 0x845 DUP7 PUSH2 0x1D1D JUMP JUMPDEST DUP2 DUP7 MSTORE ISZERO ISZERO SWAP2 DUP3 DUP6 DUP8 ADD MSTORE CALLVALUE PUSH1 0x40 DUP8 ADD MSTORE TIMESTAMP PUSH1 0x60 DUP8 ADD MSTORE PUSH1 0x0 PUSH1 0x80 DUP8 ADD MSTORE CALLER PUSH1 0x0 MSTORE PUSH1 0x6 DUP6 MSTORE PUSH1 0x40 PUSH1 0x0 KECCAK256 DUP1 SLOAD PUSH9 0x10000000000000000 DUP2 LT ISZERO PUSH2 0x93D JUMPI PUSH2 0x892 SWAP2 PUSH1 0x1 DUP3 ADD DUP2 SSTORE PUSH2 0x1DBE JUMP JUMPDEST PUSH2 0x927 JUMPI DUP7 PUSH2 0x8C5 PUSH32 0x1E78DB4C4EE9CA4946FB3EE60599D1E0258A8B22E183510241FF770AB6332BAF SWAP9 PUSH2 0x8E2 SWAP4 PUSH2 0x2253 JUMP JUMPDEST DUP4 PUSH1 0x0 MSTORE PUSH1 0x7 DUP8 MSTORE PUSH1 0x40 PUSH1 0x0 KECCAK256 CALLER PUSH1 0x0 MSTORE DUP8 MSTORE PUSH1 0x40 PUSH1 0x0 KECCAK256 PUSH2 0x2253 JUMP JUMPDEST PUSH1 0x40 MLOAD SWAP3 DUP4 MSTORE CALLVALUE DUP6 DUP5 ADD MSTORE DUP4 PUSH1 0x40 DUP5 ADD MSTORE PUSH1 0x60 DUP4 ADD MSTORE PUSH32 0x1FAF624C13819091A75AA5ABEE6C43A2226DA9B9475E62BDFC87BEF2889B5096 PUSH1 0x80 CALLER SWAP4 LOG3 PUSH1 0x40 MLOAD SWAP1 DUP2 MSTORE LOG1 STOP JUMPDEST PUSH4 0x4E487B71 PUSH1 0xE0 SHL PUSH1 0x0 MSTORE PUSH1 0x0 PUSH1 0x4 MSTORE PUSH1 0x24 PUSH1 0x0 REVERT JUMPDEST PUSH4 0x4E487B71 PUSH1 0xE0 SHL PUSH1 0x0 MSTORE PUSH1 0x41 PUSH1 0x4 MSTORE PUSH1 0x24 PUSH1 0x0 REVERT JUMPDEST PUSH1 0x6 DUP3 ADD PUSH2 0x962 DUP3 DUP3 SLOAD PUSH2 0x21A7 JUMP JUMPDEST SWAP1 SSTORE DUP4 PUSH1 0x0 MSTORE DUP3 DUP8 MSTORE PUSH1 0x40 PUSH1 0x0 KECCAK256 PUSH1 0x0 DUP1 MSTORE DUP8 MSTORE PUSH1 0x40 PUSH1 0x0 KECCAK256 PUSH2 0x986 DUP3 DUP3 SLOAD PUSH2 0x21A7 JUMP JUMPDEST SWAP1 SSTORE PUSH2 0x81A JUMP JUMPDEST PUSH1 0x40 MLOAD PUSH3 0x461BCD PUSH1 0xE5 SHL DUP2 MSTORE PUSH1 0x4 DUP2 ADD DUP8 SWAP1 MSTORE PUSH1 0x1B PUSH1 0x24 DUP3 ADD MSTORE PUSH32 0x4661696C656420746F2073656E6420706C6174666F726D206665650000000000 PUSH1 0x44 DUP3 ADD MSTORE PUSH1 0x64 SWAP1 REVERT JUMPDEST PUSH4 0x4E487B71 PUSH1 0xE0 SHL PUSH1 0x0 MSTORE PUSH1 0x11 PUSH1 0x4 MSTORE PUSH1 0x24 PUSH1 0x0 REVERT JUMPDEST PUSH1 0x40 MLOAD PUSH3 0x461BCD PUSH1 0xE5 SHL DUP2 MSTORE PUSH1 0x4 DUP2 ADD DUP4 SWAP1 MSTORE PUSH1 0x1A PUSH1 0x24 DUP3 ADD MSTORE PUSH32 0x416C726561647920626574206F6E2074686973206D61726B6574000000000000 PUSH1 0x44 DUP3 ADD MSTORE PUSH1 0x64 SWAP1 REVERT JUMPDEST PUSH1 0x40 MLOAD PUSH3 0x461BCD PUSH1 0xE5 SHL DUP2 MSTORE PUSH1 0x4 DUP2 ADD DUP4 SWAP1 MSTORE PUSH1 0x12 PUSH1 0x24 DUP3 ADD MSTORE PUSH18 0x42657420616D6F756E7420746F6F206C6F77 PUSH1 0x70 SHL PUSH1 0x44 DUP3 ADD MSTORE PUSH1 0x64 SWAP1 REVERT JUMPDEST PUSH1 0x40 MLOAD PUSH3 0x461BCD PUSH1 0xE5 SHL DUP2 MSTORE PUSH1 0x4 DUP2 ADD DUP4 SWAP1 MSTORE PUSH1 0x16 PUSH1 0x24 DUP3 ADD MSTORE PUSH22 0x13585C9AD95D08191958591B1A5B99481C185CDCD959 PUSH1 0x52 SHL PUSH1 0x44 DUP3 ADD MSTORE PUSH1 0x64 SWAP1 REVERT JUMPDEST POP PUSH1 0x3 SLOAD DUP2 GT ISZERO PUSH2 0x6D2 JUMP JUMPDEST PUSH1 0x40 MLOAD PUSH3 0x461BCD PUSH1 0xE5 SHL DUP2 MSTORE PUSH1 0x4 DUP2 ADD DUP4 SWAP1 MSTORE PUSH1 0x18 PUSH1 0x24 DUP3 ADD MSTORE PUSH32 0x55736572206D7573742072656769737465722066697273740000000000000000 PUSH1 0x44 DUP3 ADD MSTORE PUSH1 0x64 SWAP1 REVERT JUMPDEST CALLVALUE PUSH2 0x17D JUMPI PUSH1 0x40 CALLDATASIZE PUSH1 0x3 NOT ADD SLT PUSH2 0x17D JUMPI PUSH2 0xB0F PUSH2 0x1CCB JUMP JUMPDEST PUSH1 0x4 CALLDATALOAD PUSH1 0x0 MSTORE PUSH1 0x7 PUSH1 0x20 MSTORE PUSH1 0x40 PUSH1 0x0 KECCAK256 SWAP1 PUSH1 0x1 DUP1 PUSH1 0xA0 SHL SUB AND PUSH1 0x0 MSTORE PUSH1 0x20 MSTORE PUSH1 0x40 PUSH1 0x0 KECCAK256 DUP1 SLOAD PUSH2 0xB84 PUSH1 0xFF PUSH1 0x1 DUP5 ADD SLOAD AND SWAP3 PUSH1 0x2 DUP2 ADD SLOAD SWAP1 PUSH1 0xFF PUSH1 0x4 PUSH1 0x3 DUP4 ADD SLOAD SWAP3 ADD SLOAD AND SWAP2 PUSH1 0x40 MLOAD SWAP6 DUP7 SWAP6 DUP7 SWAP4 SWAP1 SWAP6 SWAP5 SWAP2 SWAP3 PUSH1 0x80 SWAP4 PUSH1 0xA0 DUP7 ADD SWAP8 DUP7 MSTORE ISZERO ISZERO PUSH1 0x20 DUP7 ADD MSTORE PUSH1 0x40 DUP6 ADD MSTORE PUSH1 0x60 DUP5 ADD MSTORE ISZERO ISZERO SWAP2 ADD MSTORE JUMP JUMPDEST SUB SWAP1 RETURN JUMPDEST CALLVALUE PUSH2 0x17D JUMPI PUSH1 0x0 CALLDATASIZE PUSH1 0x3 NOT ADD SLT PUSH2 0x17D JUMPI PUSH1 0x4 SLOAD PUSH1 0x40 MLOAD PUSH1 0x1 PUSH1 0x1 PUSH1 0xA0 SHL SUB SWAP1 SWAP2 AND DUP2 MSTORE PUSH1 0x20 SWAP1 RETURN JUMPDEST CALLVALUE PUSH2 0x17D JUMPI PUSH1 0x40 CALLDATASIZE PUSH1 0x3 NOT ADD SLT PUSH2 0x17D JUMPI PUSH2 0xBCA PUSH2 0x1CB5 JUMP JUMPDEST PUSH1 0x1 PUSH1 0x1 PUSH1 0xA0 SHL SUB AND PUSH1 0x0 SWAP1 DUP2 MSTORE PUSH1 0x6 PUSH1 0x20 MSTORE PUSH1 0x40 SWAP1 KECCAK256 DUP1 SLOAD PUSH1 0x24 CALLDATALOAD SWAP1 DUP2 LT ISZERO PUSH2 0x17D JUMPI PUSH2 0xBF7 SWAP2 PUSH2 0x1DBE JUMP JUMPDEST POP DUP1 SLOAD PUSH1 0x1 DUP3 ADD SLOAD PUSH1 0x2 DUP4 ADD SLOAD PUSH1 0x3 DUP5 ADD SLOAD PUSH1 0x4 SWAP1 SWAP5 ADD SLOAD PUSH1 0x40 DUP1 MLOAD SWAP5 DUP6 MSTORE PUSH1 0xFF SWAP4 DUP5 AND ISZERO ISZERO PUSH1 0x20 DUP7 ADD MSTORE DUP5 ADD SWAP2 SWAP1 SWAP2 MSTORE PUSH1 0x60 DUP4 ADD SWAP4 SWAP1 SWAP4 MSTORE SWAP1 SWAP2 AND ISZERO ISZERO PUSH1 0x80 DUP3 ADD MSTORE PUSH1 0xA0 SWAP1 RETURN JUMPDEST PUSH1 0x80 CALLDATASIZE PUSH1 0x3 NOT ADD SLT PUSH2 0x17D JUMPI PUSH1 0x4 CALLDATALOAD PUSH8 0xFFFFFFFFFFFFFFFF DUP2 GT PUSH2 0x17D JUMPI PUSH2 0xC6B SWAP1 CALLDATASIZE SWAP1 PUSH1 0x4 ADD PUSH2 0x1D77 JUMP JUMPDEST PUSH1 0x24 CALLDATALOAD PUSH8 0xFFFFFFFFFFFFFFFF DUP2 GT PUSH2 0x17D JUMPI PUSH2 0xC8B SWAP1 CALLDATASIZE SWAP1 PUSH1 0x4 ADD PUSH2 0x1D77 JUMP JUMPDEST PUSH1 0x44 CALLDATALOAD PUSH8 0xFFFFFFFFFFFFFFFF DUP2 GT PUSH2 0x17D JUMPI PUSH2 0xCAB SWAP1 CALLDATASIZE SWAP1 PUSH1 0x4 ADD PUSH2 0x1D77 JUMP JUMPDEST PUSH1 0x1 SLOAD SWAP3 CALLER PUSH1 0x0 MSTORE PUSH1 0x9 PUSH1 0x20 MSTORE PUSH1 0xFF PUSH1 0x40 PUSH1 0x0 KECCAK256 SLOAD AND PUSH1 0x0 EQ PUSH2 0x13D9 JUMPI PUSH1 0x0 SWAP4 JUMPDEST PUSH2 0xCD6 DUP6 DUP3 PUSH2 0x21A7 JUMP JUMPDEST SWAP1 DUP2 CALLVALUE LT PUSH2 0x1394 JUMPI TIMESTAMP PUSH1 0x64 CALLDATALOAD GT ISZERO PUSH2 0x134F JUMPI PUSH1 0xA DUP4 MLOAD LT PUSH2 0x1318 JUMPI PUSH1 0x32 DUP6 MLOAD LT PUSH2 0x12DB JUMPI DUP6 PUSH2 0x12BD JUMPI JUMPDEST PUSH2 0xD0B PUSH1 0x3 SLOAD PUSH2 0x21B4 JUMP JUMPDEST SWAP4 DUP5 PUSH1 0x3 SSTORE PUSH1 0x40 MLOAD SWAP6 PUSH2 0xD1D DUP8 PUSH2 0x1D00 JUMP JUMPDEST DUP6 DUP8 MSTORE DUP5 PUSH1 0x20 DUP9 ADD MSTORE PUSH1 0x40 DUP8 ADD MSTORE PUSH1 0x60 DUP7 ADD MSTORE PUSH1 0x64 CALLDATALOAD PUSH1 0x80 DUP7 ADD MSTORE PUSH1 0x0 PUSH1 0xA0 DUP7 ADD MSTORE PUSH1 0x0 PUSH1 0xC0 DUP7 ADD MSTORE PUSH1 0x0 PUSH1 0xE0 DUP7 ADD MSTORE PUSH1 0x0 PUSH2 0x100 DUP7 ADD MSTORE PUSH1 0x0 PUSH2 0x120 DUP7 ADD MSTORE PUSH1 0x0 PUSH2 0x140 DUP7 ADD MSTORE CALLER PUSH2 0x160 DUP7 ADD MSTORE PUSH2 0x180 DUP6 ADD MSTORE PUSH1 0x0 PUSH2 0x1A0 DUP6 ADD MSTORE DUP3 PUSH1 0x0 MSTORE PUSH1 0x5 PUSH1 0x20 MSTORE PUSH1 0x40 PUSH1 0x0 KECCAK256 SWAP5 DUP5 MLOAD DUP7 SSTORE PUSH1 0x20 DUP6 ADD MLOAD DUP1 MLOAD SWAP1 PUSH8 0xFFFFFFFFFFFFFFFF DUP3 GT PUSH2 0x93D JUMPI DUP2 SWAP1 PUSH2 0xDB3 PUSH1 0x1 DUP11 ADD SLOAD PUSH2 0x1E30 JUMP JUMPDEST PUSH1 0x1F DUP2 GT PUSH2 0x126A JUMPI JUMPDEST POP PUSH1 0x20 SWAP1 PUSH1 0x1F DUP4 GT PUSH1 0x1 EQ PUSH2 0x11F8 JUMPI PUSH1 0x0 SWAP3 PUSH2 0x11ED JUMPI JUMPDEST POP POP DUP2 PUSH1 0x1 SHL SWAP2 PUSH1 0x0 NOT SWAP1 PUSH1 0x3 SHL SHR NOT AND OR PUSH1 0x1 DUP8 ADD SSTORE JUMPDEST PUSH1 0x40 DUP6 ADD MLOAD DUP1 MLOAD SWAP1 PUSH8 0xFFFFFFFFFFFFFFFF DUP3 GT PUSH2 0x93D JUMPI DUP2 SWAP1 PUSH2 0xE11 PUSH1 0x2 DUP11 ADD SLOAD PUSH2 0x1E30 JUMP JUMPDEST PUSH1 0x1F DUP2 GT PUSH2 0x119A JUMPI JUMPDEST POP PUSH1 0x20 SWAP1 PUSH1 0x1F DUP4 GT PUSH1 0x1 EQ PUSH2 0x1128 JUMPI PUSH1 0x0 SWAP3 PUSH2 0x111D JUMPI JUMPDEST POP POP DUP2 PUSH1 0x1 SHL SWAP2 PUSH1 0x0 NOT SWAP1 PUSH1 0x3 SHL SHR NOT AND OR PUSH1 0x2 DUP8 ADD SSTORE JUMPDEST PUSH1 0x60 DUP6 ADD MLOAD SWAP6 DUP7 MLOAD PUSH8 0xFFFFFFFFFFFFFFFF DUP2 GT PUSH2 0x93D JUMPI PUSH2 0xE6D PUSH1 0x3 DUP4 ADD SLOAD PUSH2 0x1E30 JUMP JUMPDEST SWAP8 PUSH1 0x1F DUP10 GT PUSH2 0x10D6 JUMPI JUMPDEST PUSH1 0x20 SWAP9 POP DUP9 SWAP1 PUSH1 0x1F DUP4 GT PUSH1 0x1 EQ PUSH2 0x105D JUMPI SWAP8 DUP3 PUSH1 0xB SWAP4 PUSH2 0x1A0 SWAP4 PUSH2 0xF6A SWAP10 SWAP11 SWAP12 PUSH1 0x0 SWAP3 PUSH2 0x1052 JUMPI JUMPDEST POP POP DUP2 PUSH1 0x1 SHL SWAP2 PUSH1 0x0 NOT SWAP1 PUSH1 0x3 SHL SHR NOT AND OR PUSH1 0x3 DUP6 ADD SSTORE JUMPDEST PUSH1 0x80 DUP2 ADD MLOAD PUSH1 0x4 DUP6 ADD SSTORE PUSH1 0xA0 DUP2 ADD MLOAD PUSH1 0x5 DUP6 ADD SSTORE PUSH1 0xC0 DUP2 ADD MLOAD PUSH1 0x6 DUP6 ADD SSTORE PUSH1 0xE0 DUP2 ADD MLOAD PUSH1 0x7 DUP6 ADD SSTORE PUSH2 0x100 DUP2 ADD MLOAD PUSH1 0x8 DUP6 ADD SSTORE PUSH1 0x9 DUP5 ADD PUSH2 0xF0B PUSH2 0x120 DUP4 ADD MLOAD ISZERO ISZERO DUP3 SWAP1 PUSH1 0xFF DUP1 NOT DUP4 SLOAD AND SWAP2 ISZERO ISZERO AND OR SWAP1 SSTORE JUMP JUMPDEST PUSH2 0x140 DUP3 ADD MLOAD DUP2 SLOAD PUSH2 0xFF00 NOT AND SWAP1 ISZERO ISZERO PUSH1 0x8 SHL PUSH2 0xFF00 AND OR DUP2 SSTORE PUSH2 0x160 DUP3 ADD MLOAD DUP2 SLOAD PUSH3 0x10000 PUSH1 0x1 PUSH1 0xB0 SHL SUB NOT AND PUSH1 0x10 SWAP2 SWAP1 SWAP2 SHL PUSH3 0x10000 PUSH1 0x1 PUSH1 0xB0 SHL SUB AND OR SWAP1 SSTORE PUSH2 0x180 DUP2 ADD MLOAD PUSH1 0xA DUP6 ADD SSTORE ADD MLOAD SWAP2 ADD SSTORE DUP1 PUSH2 0xFDE JUMPI JUMPDEST POP CALLVALUE PUSH2 0x1F8C JUMP JUMPDEST DUP1 PUSH2 0xFBE JUMPI JUMPDEST POP DUP2 PUSH32 0x3E783E31593F59FDA73A59D05E2525D610A533995CCE4D4750186C3B6BF80BB PUSH2 0xFA8 PUSH1 0x40 MLOAD SWAP4 PUSH1 0x40 DUP6 MSTORE PUSH1 0x40 DUP6 ADD SWAP1 PUSH2 0x1DF0 JUMP JUMPDEST SWAP3 PUSH1 0x64 CALLDATALOAD DUP7 DUP3 ADD MSTORE DUP1 CALLER SWAP5 SUB SWAP1 LOG3 PUSH1 0x40 MLOAD SWAP1 DUP2 MSTORE RETURN JUMPDEST PUSH1 0x0 DUP1 DUP1 DUP1 PUSH2 0xFD8 SWAP5 CALLER GAS CALL PUSH2 0xFD2 PUSH2 0x1F10 JUMP JUMPDEST POP PUSH2 0x1F99 JUMP JUMPDEST DUP4 PUSH2 0xF70 JUMP JUMPDEST PUSH2 0x1021 PUSH1 0x0 DUP1 DUP1 DUP1 DUP6 PUSH32 0x0 PUSH1 0x1 PUSH1 0x1 PUSH1 0xA0 SHL SUB AND GAS CALL PUSH2 0x101B PUSH2 0x1F10 JUMP JUMPDEST POP PUSH2 0x1F40 JUMP JUMPDEST PUSH1 0x40 MLOAD SWAP1 DUP2 MSTORE PUSH32 0xE29D35093005F4D575E1003753426B57A7F64378BA73332EEF9C6CCC2B8DECD6 DUP7 CALLER SWAP3 LOG2 DUP6 PUSH2 0xF63 JUMP JUMPDEST ADD MLOAD SWAP1 POP DUP13 DUP1 PUSH2 0xE9F JUMP JUMPDEST SWAP1 PUSH1 0x3 DUP5 ADD PUSH1 0x0 MSTORE DUP10 PUSH1 0x0 KECCAK256 SWAP2 PUSH1 0x0 JUMPDEST PUSH1 0x1F NOT DUP6 AND DUP2 LT PUSH2 0x10BF JUMPI POP DUP4 PUSH2 0x1A0 SWAP4 PUSH2 0xF6A SWAP10 SWAP11 SWAP12 SWAP4 PUSH1 0x1 SWAP4 PUSH1 0xB SWAP8 PUSH1 0x1F NOT DUP2 AND LT PUSH2 0x10A6 JUMPI JUMPDEST POP POP POP DUP2 SHL ADD PUSH1 0x3 DUP6 ADD SSTORE PUSH2 0xEB7 JUMP JUMPDEST ADD MLOAD PUSH1 0x0 NOT PUSH1 0xF8 DUP5 PUSH1 0x3 SHL AND SHR NOT AND SWAP1 SSTORE DUP13 DUP1 DUP1 PUSH2 0x1096 JUMP JUMPDEST SWAP2 SWAP3 DUP12 PUSH1 0x1 DUP2 SWAP3 DUP7 DUP6 ADD MLOAD DUP2 SSTORE ADD SWAP5 ADD SWAP3 ADD PUSH2 0x106D JUMP JUMPDEST PUSH1 0x3 DUP4 ADD PUSH1 0x0 MSTORE PUSH1 0x20 PUSH1 0x0 KECCAK256 PUSH1 0x1F DUP4 ADD PUSH1 0x5 SHR DUP2 ADD PUSH1 0x20 DUP5 LT PUSH2 0x1116 JUMPI JUMPDEST PUSH1 0x1F DUP12 ADD PUSH1 0x5 SHR DUP3 ADD DUP2 LT PUSH2 0x110A JUMPI POP POP PUSH2 0xE77 JUMP JUMPDEST PUSH1 0x0 DUP2 SSTORE PUSH1 0x1 ADD PUSH2 0x10F4 JUMP JUMPDEST POP DUP1 PUSH2 0x10F4 JUMP JUMPDEST ADD MLOAD SWAP1 POP DUP9 DUP1 PUSH2 0xE31 JUMP JUMPDEST SWAP3 POP PUSH1 0x2 DUP10 ADD PUSH1 0x0 MSTORE PUSH1 0x20 PUSH1 0x0 KECCAK256 SWAP1 PUSH1 0x0 SWAP4 JUMPDEST PUSH1 0x1F NOT DUP5 AND DUP6 LT PUSH2 0x117F JUMPI PUSH1 0x1 SWAP5 POP DUP4 PUSH1 0x1F NOT DUP2 AND LT PUSH2 0x1166 JUMPI JUMPDEST POP POP POP DUP2 SHL ADD PUSH1 0x2 DUP8 ADD SSTORE PUSH2 0xE49 JUMP JUMPDEST ADD MLOAD PUSH1 0x0 NOT PUSH1 0xF8 DUP5 PUSH1 0x3 SHL AND SHR NOT AND SWAP1 SSTORE DUP9 DUP1 DUP1 PUSH2 0x1156 JUMP JUMPDEST DUP2 DUP2 ADD MLOAD DUP4 SSTORE PUSH1 0x20 SWAP5 DUP6 ADD SWAP5 PUSH1 0x1 SWAP1 SWAP4 ADD SWAP3 SWAP1 SWAP2 ADD SWAP1 PUSH2 0x113B JUMP JUMPDEST SWAP1 SWAP2 POP PUSH1 0x2 DUP10 ADD PUSH1 0x0 MSTORE PUSH1 0x20 PUSH1 0x0 KECCAK256 PUSH1 0x1F DUP5 ADD PUSH1 0x5 SHR DUP2 ADD PUSH1 0x20 DUP6 LT PUSH2 0x11E6 JUMPI JUMPDEST SWAP1 DUP5 SWAP4 SWAP3 SWAP2 JUMPDEST PUSH1 0x1F DUP4 ADD PUSH1 0x5 SHR DUP3 ADD DUP2 LT PUSH2 0x11D7 JUMPI POP POP PUSH2 0xE1A JUMP JUMPDEST PUSH1 0x0 DUP2 SSTORE DUP6 SWAP5 POP PUSH1 0x1 ADD PUSH2 0x11C1 JUMP JUMPDEST POP DUP1 PUSH2 0x11BB JUMP JUMPDEST ADD MLOAD SWAP1 POP DUP9 DUP1 PUSH2 0xDD3 JUMP JUMPDEST SWAP3 POP PUSH1 0x1 DUP10 ADD PUSH1 0x0 MSTORE PUSH1 0x20 PUSH1 0x0 KECCAK256 SWAP1 PUSH1 0x0 SWAP4 JUMPDEST PUSH1 0x1F NOT DUP5 AND DUP6 LT PUSH2 0x124F JUMPI PUSH1 0x1 SWAP5 POP DUP4 PUSH1 0x1F NOT DUP2 AND LT PUSH2 0x1236 JUMPI JUMPDEST POP POP POP DUP2 SHL ADD PUSH1 0x1 DUP8 ADD SSTORE PUSH2 0xDEB JUMP JUMPDEST ADD MLOAD PUSH1 0x0 NOT PUSH1 0xF8 DUP5 PUSH1 0x3 SHL AND SHR NOT AND SWAP1 SSTORE DUP9 DUP1 DUP1 PUSH2 0x1226 JUMP JUMPDEST DUP2 DUP2 ADD MLOAD DUP4 SSTORE PUSH1 0x20 SWAP5 DUP6 ADD SWAP5 PUSH1 0x1 SWAP1 SWAP4 ADD SWAP3 SWAP1 SWAP2 ADD SWAP1 PUSH2 0x120B JUMP JUMPDEST SWAP1 SWAP2 POP PUSH1 0x1 DUP10 ADD PUSH1 0x0 MSTORE PUSH1 0x20 PUSH1 0x0 KECCAK256 PUSH1 0x1F DUP5 ADD PUSH1 0x5 SHR DUP2 ADD PUSH1 0x20 DUP6 LT PUSH2 0x12B6 JUMPI JUMPDEST SWAP1 DUP5 SWAP4 SWAP3 SWAP2 JUMPDEST PUSH1 0x1F DUP4 ADD PUSH1 0x5 SHR DUP3 ADD DUP2 LT PUSH2 0x12A7 JUMPI POP POP PUSH2 0xDBC JUMP JUMPDEST PUSH1 0x0 DUP2 SSTORE DUP6 SWAP5 POP PUSH1 0x1 ADD PUSH2 0x1291 JUMP JUMPDEST POP DUP1 PUSH2 0x128B JUMP JUMPDEST CALLER PUSH1 0x0 MSTORE PUSH1 0x9 PUSH1 0x20 MSTORE PUSH1 0x40 PUSH1 0x0 KECCAK256 PUSH1 0x1 PUSH1 0xFF NOT DUP3 SLOAD AND OR SWAP1 SSTORE PUSH2 0xD00 JUMP JUMPDEST PUSH1 0x40 MLOAD PUSH3 0x461BCD PUSH1 0xE5 SHL DUP2 MSTORE PUSH1 0x20 PUSH1 0x4 DUP3 ADD MSTORE PUSH1 0x15 PUSH1 0x24 DUP3 ADD MSTORE PUSH21 0x11195CD8DC9A5C1D1A5BDB881D1BDBC81CDA1BDC9D PUSH1 0x5A SHL PUSH1 0x44 DUP3 ADD MSTORE PUSH1 0x64 SWAP1 REVERT JUMPDEST PUSH1 0x40 MLOAD PUSH3 0x461BCD PUSH1 0xE5 SHL DUP2 MSTORE PUSH1 0x20 PUSH1 0x4 DUP3 ADD MSTORE PUSH1 0xF PUSH1 0x24 DUP3 ADD MSTORE PUSH15 0x151A5D1B19481D1BDBC81CDA1BDC9D PUSH1 0x8A SHL PUSH1 0x44 DUP3 ADD MSTORE PUSH1 0x64 SWAP1 REVERT JUMPDEST PUSH1 0x40 MLOAD PUSH3 0x461BCD PUSH1 0xE5 SHL DUP2 MSTORE PUSH1 0x20 PUSH1 0x4 DUP3 ADD MSTORE PUSH1 0x1E PUSH1 0x24 DUP3 ADD MSTORE PUSH32 0x446561646C696E65206D75737420626520696E20746865206675747572650000 PUSH1 0x44 DUP3 ADD MSTORE PUSH1 0x64 SWAP1 REVERT JUMPDEST PUSH1 0x40 MLOAD PUSH3 0x461BCD PUSH1 0xE5 SHL DUP2 MSTORE PUSH1 0x20 PUSH1 0x4 DUP3 ADD MSTORE PUSH1 0x1A PUSH1 0x24 DUP3 ADD MSTORE PUSH32 0x496E73756666696369656E74207374616B6520616E6420666565000000000000 PUSH1 0x44 DUP3 ADD MSTORE PUSH1 0x64 SWAP1 REVERT JUMPDEST PUSH2 0x13E1 PUSH2 0x2172 JUMP JUMPDEST SWAP4 PUSH2 0xCCC JUMP JUMPDEST CALLVALUE PUSH2 0x17D JUMPI PUSH1 0x0 CALLDATASIZE PUSH1 0x3 NOT ADD SLT PUSH2 0x17D JUMPI PUSH1 0x20 PUSH2 0x69E PUSH2 0x1FFC JUMP JUMPDEST CALLVALUE PUSH2 0x17D JUMPI PUSH1 0x20 DUP1 PUSH1 0x3 NOT CALLDATASIZE ADD SLT PUSH2 0x17D JUMPI PUSH1 0x4 CALLDATALOAD DUP1 ISZERO ISZERO DUP1 PUSH2 0x178F JUMPI JUMPDEST PUSH2 0x1429 SWAP1 PUSH2 0x21C3 JUMP JUMPDEST DUP1 PUSH1 0x0 MSTORE PUSH1 0x5 DUP3 MSTORE PUSH1 0x40 PUSH1 0x0 KECCAK256 SWAP1 PUSH1 0x9 DUP3 ADD SLOAD SWAP1 PUSH1 0xFF DUP3 AND ISZERO PUSH2 0x174A JUMPI DUP1 PUSH1 0x0 MSTORE PUSH1 0x7 DUP5 MSTORE PUSH1 0x40 PUSH1 0x0 KECCAK256 CALLER PUSH1 0x0 MSTORE DUP5 MSTORE PUSH1 0x40 PUSH1 0x0 KECCAK256 PUSH1 0x2 DUP2 ADD SLOAD SWAP1 DUP2 ISZERO PUSH2 0x1716 JUMPI PUSH1 0x4 DUP2 ADD SWAP5 DUP6 SLOAD SWAP5 PUSH1 0xFF DUP7 AND PUSH2 0x16D1 JUMPI PUSH1 0x8 SHR PUSH1 0xFF AND DUP1 ISZERO PUSH2 0x16C6 JUMPI PUSH1 0x5 DUP3 ADD SLOAD SWAP3 JUMPDEST DUP2 ISZERO PUSH2 0x16BB JUMPI PUSH1 0x6 DUP4 ADD SLOAD SWAP5 JUMPDEST PUSH2 0x3E8 DUP2 MUL PUSH2 0x3E7 NOT DUP3 DUP3 DIV ADD PUSH2 0x9D2 JUMPI PUSH1 0xC8 DUP3 MUL DUP3 DUP2 DIV PUSH1 0xC8 SUB PUSH2 0x9D2 JUMPI PUSH2 0x14CF SWAP3 PUSH2 0x783 SWAP2 PUSH2 0x2710 DUP1 SWAP2 DIV SWAP4 DIV SWAP1 PUSH2 0x1F8C JUMP JUMPDEST SWAP4 DUP1 PUSH2 0x165D JUMPI POP PUSH1 0x1 ADD SLOAD PUSH1 0xFF AND ISZERO ISZERO SWAP1 ISZERO ISZERO EQ PUSH2 0x1618 JUMPI PUSH2 0x14FF SWAP3 SWAP2 PUSH1 0x7 PUSH2 0x14FA SWAP3 ADD SLOAD SWAP1 PUSH2 0x213F JUMP JUMPDEST PUSH2 0x2152 JUMP JUMPDEST SWAP2 JUMPDEST PUSH1 0x1 PUSH1 0xFF NOT SWAP2 DUP3 AND DUP2 OR SWAP1 SWAP5 SSTORE PUSH1 0x0 DUP5 JUMPDEST PUSH2 0x15A5 JUMPI JUMPDEST POP POP PUSH1 0x0 DUP1 SWAP4 POP DUP1 SWAP3 DUP2 SWAP3 PUSH1 0x40 MLOAD SWAP1 DUP3 DUP3 MSTORE PUSH32 0x5380CF6FE903B40C6D5A9E0DFBCA2F3A423F0A21520B4D5947ED5169BDBA946D DUP9 CALLER SWAP4 LOG3 CALLER GAS CALL PUSH2 0x1559 PUSH2 0x1F10 JUMP JUMPDEST POP ISZERO PUSH2 0x1561 JUMPI STOP JUMPDEST PUSH1 0x64 SWAP1 PUSH1 0x40 MLOAD SWAP1 PUSH3 0x461BCD PUSH1 0xE5 SHL DUP3 MSTORE PUSH1 0x4 DUP3 ADD MSTORE PUSH1 0x17 PUSH1 0x24 DUP3 ADD MSTORE PUSH32 0x4661696C656420746F2073656E642077696E6E696E6773000000000000000000 PUSH1 0x44 DUP3 ADD MSTORE REVERT JUMPDEST CALLER PUSH1 0x0 MSTORE PUSH1 0x6 DUP1 DUP8 MSTORE PUSH1 0x40 PUSH1 0x0 KECCAK256 DUP1 SLOAD DUP4 LT ISZERO PUSH2 0x1611 JUMPI PUSH2 0x15C7 DUP4 DUP7 SWAP3 PUSH2 0x1DBE JUMP JUMPDEST POP SLOAD EQ PUSH2 0x15DF JUMPI POP PUSH2 0x15D9 DUP6 SWAP2 PUSH2 0x21B4 JUMP JUMPDEST SWAP1 PUSH2 0x1512 JUMP JUMPDEST SWAP3 PUSH1 0x0 SWAP6 SWAP3 DUP7 SWAP6 SWAP3 SWAP4 PUSH1 0x4 PUSH2 0x1600 DUP9 SWAP8 SWAP7 DUP9 SWAP8 CALLER DUP10 MSTORE DUP13 MSTORE PUSH1 0x40 DUP9 KECCAK256 PUSH2 0x1DBE JUMP JUMPDEST POP ADD SWAP2 DUP3 SLOAD AND OR SWAP1 SSTORE SWAP3 POP SWAP3 PUSH2 0x1517 JUMP JUMPDEST POP POP PUSH2 0x1517 JUMP JUMPDEST PUSH1 0x40 MLOAD PUSH3 0x461BCD PUSH1 0xE5 SHL DUP2 MSTORE PUSH1 0x4 DUP2 ADD DUP9 SWAP1 MSTORE PUSH1 0x18 PUSH1 0x24 DUP3 ADD MSTORE PUSH32 0x4E6F2077696E6E65727320746F20636C61696D2066726F6D0000000000000000 PUSH1 0x44 DUP3 ADD MSTORE PUSH1 0x64 SWAP1 REVERT JUMPDEST SWAP5 POP PUSH1 0x1 PUSH1 0xFF SWAP2 ADD SLOAD AND SWAP1 ISZERO ISZERO SWAP1 ISZERO ISZERO SUB PUSH2 0x168B JUMPI PUSH2 0x1685 SWAP3 SWAP2 PUSH1 0x7 PUSH2 0x14FA SWAP3 ADD SLOAD SWAP1 PUSH2 0x213F JUMP JUMPDEST SWAP2 PUSH2 0x1501 JUMP JUMPDEST PUSH1 0x40 MLOAD PUSH3 0x461BCD PUSH1 0xE5 SHL DUP2 MSTORE PUSH1 0x4 DUP2 ADD DUP9 SWAP1 MSTORE PUSH1 0x8 PUSH1 0x24 DUP3 ADD MSTORE PUSH8 0x10995D081B1BDCDD PUSH1 0xC2 SHL PUSH1 0x44 DUP3 ADD MSTORE PUSH1 0x64 SWAP1 REVERT JUMPDEST PUSH1 0x5 DUP4 ADD SLOAD SWAP5 PUSH2 0x149A JUMP JUMPDEST PUSH1 0x6 DUP3 ADD SLOAD SWAP3 PUSH2 0x148D JUMP JUMPDEST PUSH1 0x40 MLOAD PUSH3 0x461BCD PUSH1 0xE5 SHL DUP2 MSTORE PUSH1 0x4 DUP2 ADD DUP10 SWAP1 MSTORE PUSH1 0x18 PUSH1 0x24 DUP3 ADD MSTORE PUSH32 0x57696E6E696E677320616C726561647920636C61696D65640000000000000000 PUSH1 0x44 DUP3 ADD MSTORE PUSH1 0x64 SWAP1 REVERT JUMPDEST PUSH1 0x40 MLOAD PUSH3 0x461BCD PUSH1 0xE5 SHL DUP2 MSTORE PUSH1 0x4 DUP2 ADD DUP8 SWAP1 MSTORE PUSH1 0xC PUSH1 0x24 DUP3 ADD MSTORE PUSH12 0x139BC818995D08199BDD5B99 PUSH1 0xA2 SHL PUSH1 0x44 DUP3 ADD MSTORE PUSH1 0x64 SWAP1 REVERT JUMPDEST PUSH1 0x40 MLOAD PUSH3 0x461BCD PUSH1 0xE5 SHL DUP2 MSTORE PUSH1 0x4 DUP2 ADD DUP6 SWAP1 MSTORE PUSH1 0x17 PUSH1 0x24 DUP3 ADD MSTORE PUSH32 0x4D61726B6574206E6F74207265736F6C76656420796574000000000000000000 PUSH1 0x44 DUP3 ADD MSTORE PUSH1 0x64 SWAP1 REVERT JUMPDEST POP PUSH1 0x3 SLOAD DUP2 GT ISZERO PUSH2 0x1420 JUMP JUMPDEST CALLVALUE PUSH2 0x17D JUMPI PUSH2 0x17A9 CALLDATASIZE PUSH2 0x1CE1 JUMP JUMPDEST PUSH1 0x4 SLOAD PUSH1 0x1 PUSH1 0x1 PUSH1 0xA0 SHL SUB SWAP1 PUSH2 0x17C2 SWAP1 DUP3 AND CALLER EQ PUSH2 0x22A9 JUMP JUMPDEST DUP3 ISZERO ISZERO DUP1 PUSH2 0x1922 JUMPI JUMPDEST PUSH2 0x17D4 SWAP1 PUSH2 0x21C3 JUMP JUMPDEST DUP3 PUSH1 0x0 MSTORE PUSH1 0x20 SWAP3 PUSH1 0x5 DUP5 MSTORE PUSH2 0x17F4 PUSH1 0xFF PUSH1 0x9 PUSH1 0x40 PUSH1 0x0 KECCAK256 ADD SLOAD AND ISZERO PUSH2 0x2207 JUMP JUMPDEST DUP1 PUSH1 0x0 MSTORE PUSH1 0x5 DUP5 MSTORE PUSH1 0x4 PUSH1 0x40 PUSH1 0x0 KECCAK256 ADD SLOAD TIMESTAMP LT PUSH2 0x18DD JUMPI PUSH1 0x0 DUP2 DUP2 MSTORE PUSH1 0x5 DUP6 MSTORE PUSH1 0x40 DUP2 KECCAK256 PUSH1 0x9 DUP2 ADD DUP1 SLOAD PUSH2 0xFFFF NOT AND DUP7 ISZERO ISZERO PUSH1 0x8 SHL PUSH2 0xFF00 AND OR PUSH1 0x1 OR DUP2 SSTORE SWAP2 SWAP5 DUP6 SWAP5 DUP6 SWAP5 DUP6 SWAP5 SWAP3 SWAP4 SWAP2 SWAP3 SWAP2 PUSH32 0x4927FE38919783250023D27E65A3E56B6B5C3E49364E51674A41EF08D62460D9 SWAP1 DUP11 SWAP1 PUSH2 0x1878 SWAP1 PUSH1 0xB PUSH1 0xA DUP3 ADD SLOAD SWAP2 ADD SLOAD SWAP1 PUSH2 0x21A7 JUMP JUMPDEST SWAP6 PUSH1 0x40 MLOAD SWAP1 ISZERO ISZERO DUP2 MSTORE LOG2 SLOAD PUSH1 0x10 SHR AND GAS CALL PUSH2 0x1891 PUSH2 0x1F10 JUMP JUMPDEST POP ISZERO PUSH2 0x1899 JUMPI STOP JUMPDEST PUSH1 0x64 SWAP1 PUSH1 0x40 MLOAD SWAP1 PUSH3 0x461BCD PUSH1 0xE5 SHL DUP3 MSTORE PUSH1 0x4 DUP3 ADD MSTORE PUSH1 0x1F PUSH1 0x24 DUP3 ADD MSTORE PUSH32 0x4661696C656420746F2073656E642066756E647320746F2063726561746F7200 PUSH1 0x44 DUP3 ADD MSTORE REVERT JUMPDEST PUSH1 0x40 MLOAD PUSH3 0x461BCD PUSH1 0xE5 SHL DUP2 MSTORE PUSH1 0x4 DUP2 ADD DUP6 SWAP1 MSTORE PUSH1 0x1A PUSH1 0x24 DUP3 ADD MSTORE PUSH32 0x4D61726B657420646561646C696E65206E6F7420706173736564000000000000 PUSH1 0x44 DUP3 ADD MSTORE PUSH1 0x64 SWAP1 REVERT JUMPDEST POP PUSH1 0x3 SLOAD DUP4 GT ISZERO PUSH2 0x17CB JUMP JUMPDEST PUSH1 0x0 CALLDATASIZE PUSH1 0x3 NOT ADD SLT PUSH2 0x17D JUMPI CALLER PUSH1 0x0 MSTORE PUSH1 0x9 PUSH1 0x20 MSTORE PUSH1 0xFF PUSH1 0x40 PUSH1 0x0 KECCAK256 SLOAD AND PUSH2 0x1A53 JUMPI PUSH2 0x1958 PUSH2 0x2172 JUMP JUMPDEST DUP1 CALLVALUE LT PUSH2 0x1A0E JUMPI CALLER PUSH1 0x0 SWAP1 DUP2 MSTORE PUSH1 0x9 PUSH1 0x20 MSTORE PUSH1 0x40 DUP2 KECCAK256 DUP1 SLOAD PUSH1 0xFF NOT AND PUSH1 0x1 OR SWAP1 SSTORE PUSH2 0x19B5 SWAP1 DUP1 DUP1 DUP1 DUP6 PUSH32 0x0 PUSH1 0x1 PUSH1 0x1 PUSH1 0xA0 SHL SUB AND GAS CALL PUSH2 0x101B PUSH2 0x1F10 JUMP JUMPDEST PUSH2 0x19BF DUP2 CALLVALUE PUSH2 0x1F8C JUMP JUMPDEST DUP1 PUSH2 0x19F4 JUMPI JUMPDEST POP PUSH1 0x40 MLOAD SWAP1 DUP2 MSTORE PUSH32 0xE29D35093005F4D575E1003753426B57A7F64378BA73332EEF9C6CCC2B8DECD6 PUSH1 0x20 CALLER SWAP3 LOG2 STOP JUMPDEST PUSH1 0x0 DUP1 DUP1 DUP1 PUSH2 0x1A08 SWAP5 CALLER GAS CALL PUSH2 0xFD2 PUSH2 0x1F10 JUMP JUMPDEST DUP2 PUSH2 0x19C5 JUMP JUMPDEST PUSH1 0x40 MLOAD PUSH3 0x461BCD PUSH1 0xE5 SHL DUP2 MSTORE PUSH1 0x20 PUSH1 0x4 DUP3 ADD MSTORE PUSH1 0x1D PUSH1 0x24 DUP3 ADD MSTORE PUSH32 0x496E73756666696369656E7420726567697374726174696F6E20666565000000 PUSH1 0x44 DUP3 ADD MSTORE PUSH1 0x64 SWAP1 REVERT JUMPDEST PUSH1 0x40 MLOAD PUSH3 0x461BCD PUSH1 0xE5 SHL DUP2 MSTORE PUSH1 0x20 PUSH1 0x4 DUP3 ADD MSTORE PUSH1 0x17 PUSH1 0x24 DUP3 ADD MSTORE PUSH32 0x5573657220616C72656164792072656769737465726564000000000000000000 PUSH1 0x44 DUP3 ADD MSTORE PUSH1 0x64 SWAP1 REVERT JUMPDEST CALLVALUE PUSH2 0x17D JUMPI PUSH2 0x1AA6 CALLDATASIZE PUSH2 0x1CE1 JUMP JUMPDEST SWAP1 PUSH1 0x0 MSTORE PUSH1 0x8 PUSH1 0x20 MSTORE PUSH1 0x40 PUSH1 0x0 KECCAK256 SWAP1 ISZERO ISZERO PUSH1 0x0 MSTORE PUSH1 0x20 MSTORE PUSH1 0x20 PUSH1 0x40 PUSH1 0x0 KECCAK256 SLOAD PUSH1 0x40 MLOAD SWAP1 DUP2 MSTORE RETURN JUMPDEST CALLVALUE PUSH2 0x17D JUMPI PUSH1 0x40 CALLDATASIZE PUSH1 0x3 NOT ADD SLT PUSH2 0x17D JUMPI PUSH1 0x80 PUSH2 0x1AF3 PUSH2 0x1AEB PUSH2 0x1CCB JUMP JUMPDEST PUSH1 0x4 CALLDATALOAD PUSH2 0x233A JUMP JUMPDEST SWAP2 PUSH1 0x40 MLOAD SWAP4 ISZERO ISZERO DUP5 MSTORE ISZERO ISZERO PUSH1 0x20 DUP5 ADD MSTORE PUSH1 0x40 DUP4 ADD MSTORE ISZERO ISZERO PUSH1 0x60 DUP3 ADD MSTORE RETURN JUMPDEST CALLVALUE PUSH2 0x17D JUMPI PUSH1 0x20 DUP1 PUSH1 0x3 NOT CALLDATASIZE ADD SLT PUSH2 0x17D JUMPI PUSH1 0x1 PUSH1 0x1 PUSH1 0xA0 SHL SUB PUSH2 0x1B33 PUSH2 0x1CB5 JUMP JUMPDEST AND PUSH1 0x0 MSTORE PUSH1 0x6 DUP2 MSTORE PUSH1 0x40 PUSH1 0x0 KECCAK256 SWAP1 DUP2 SLOAD PUSH8 0xFFFFFFFFFFFFFFFF DUP2 GT PUSH2 0x93D JUMPI PUSH1 0x40 MLOAD SWAP1 PUSH1 0x5 PUSH2 0x1B66 DUP5 DUP4 DUP4 SHL ADD DUP5 PUSH2 0x1D39 JUMP JUMPDEST DUP2 DUP4 MSTORE DUP4 DUP4 ADD DUP1 SWAP6 PUSH1 0x0 MSTORE DUP5 PUSH1 0x0 KECCAK256 PUSH1 0x0 SWAP2 JUMPDEST DUP5 DUP4 LT PUSH2 0x1BE7 JUMPI PUSH1 0x40 DUP1 MLOAD DUP9 DUP2 MSTORE DUP8 MLOAD DUP2 DUP11 ADD DUP2 SWAP1 MSTORE DUP11 SWAP3 DUP3 ADD SWAP1 DUP11 PUSH1 0x0 JUMPDEST DUP3 DUP2 LT PUSH2 0x1BA5 JUMPI DUP5 DUP5 SUB DUP6 RETURN JUMPDEST DUP6 MLOAD DUP1 MLOAD DUP6 MSTORE DUP1 DUP4 ADD MLOAD ISZERO ISZERO DUP6 DUP5 ADD MSTORE PUSH1 0x40 DUP1 DUP3 ADD MLOAD SWAP1 DUP7 ADD MSTORE PUSH1 0x60 DUP1 DUP3 ADD MLOAD SWAP1 DUP7 ADD MSTORE PUSH1 0x80 SWAP1 DUP2 ADD MLOAD ISZERO ISZERO SWAP1 DUP6 ADD MSTORE SWAP5 DUP2 ADD SWAP5 PUSH1 0xA0 SWAP1 SWAP4 ADD SWAP3 PUSH1 0x1 ADD PUSH2 0x1B98 JUMP JUMPDEST DUP4 DUP8 PUSH1 0x1 SWAP3 PUSH2 0x1BF5 DUP6 PUSH2 0x22F5 JUMP JUMPDEST DUP2 MSTORE ADD SWAP3 ADD SWAP3 ADD SWAP2 SWAP1 PUSH2 0x1B79 JUMP JUMPDEST CALLVALUE PUSH2 0x17D JUMPI PUSH1 0x20 CALLDATASIZE PUSH1 0x3 NOT ADD SLT PUSH2 0x17D JUMPI PUSH1 0x1 PUSH1 0x1 PUSH1 0xA0 SHL SUB PUSH2 0x1C24 PUSH2 0x1CB5 JUMP JUMPDEST AND PUSH1 0x0 MSTORE PUSH1 0x9 PUSH1 0x20 MSTORE PUSH1 0x20 PUSH1 0xFF PUSH1 0x40 PUSH1 0x0 KECCAK256 SLOAD AND PUSH1 0x40 MLOAD SWAP1 ISZERO ISZERO DUP2 MSTORE RETURN JUMPDEST CALLVALUE PUSH2 0x17D JUMPI PUSH1 0x0 CALLDATASIZE PUSH1 0x3 NOT ADD SLT PUSH2 0x17D JUMPI PUSH1 0x40 MLOAD PUSH32 0x0 PUSH1 0x1 PUSH1 0x1 PUSH1 0xA0 SHL SUB AND DUP2 MSTORE PUSH1 0x20 SWAP1 RETURN JUMPDEST CALLVALUE PUSH2 0x17D JUMPI PUSH1 0x20 CALLDATASIZE PUSH1 0x3 NOT ADD SLT PUSH2 0x17D JUMPI PUSH2 0x1CAD PUSH1 0x1 DUP1 PUSH1 0xA0 SHL SUB PUSH1 0x4 SLOAD AND CALLER EQ PUSH2 0x22A9 JUMP JUMPDEST PUSH1 0x4 CALLDATALOAD PUSH1 0x1 SSTORE STOP JUMPDEST PUSH1 0x4 CALLDATALOAD SWAP1 PUSH1 0x1 PUSH1 0x1 PUSH1 0xA0 SHL SUB DUP3 AND DUP3 SUB PUSH2 0x17D JUMPI JUMP JUMPDEST PUSH1 0x24 CALLDATALOAD SWAP1 PUSH1 0x1 PUSH1 0x1 PUSH1 0xA0 SHL SUB DUP3 AND DUP3 SUB PUSH2 0x17D JUMPI JUMP JUMPDEST PUSH1 0x40 SWAP1 PUSH1 0x3 NOT ADD SLT PUSH2 0x17D JUMPI PUSH1 0x4 CALLDATALOAD SWAP1 PUSH1 0x24 CALLDATALOAD DUP1 ISZERO ISZERO DUP2 SUB PUSH2 0x17D JUMPI SWAP1 JUMP JUMPDEST PUSH2 0x1C0 DUP2 ADD SWAP1 DUP2 LT PUSH8 0xFFFFFFFFFFFFFFFF DUP3 GT OR PUSH2 0x93D JUMPI PUSH1 0x40 MSTORE JUMP JUMPDEST PUSH1 0xA0 DUP2 ADD SWAP1 DUP2 LT PUSH8 0xFFFFFFFFFFFFFFFF DUP3 GT OR PUSH2 0x93D JUMPI PUSH1 0x40 MSTORE JUMP JUMPDEST SWAP1 PUSH1 0x1F DUP1 NOT SWAP2 ADD AND DUP2 ADD SWAP1 DUP2 LT PUSH8 0xFFFFFFFFFFFFFFFF DUP3 GT OR PUSH2 0x93D JUMPI PUSH1 0x40 MSTORE JUMP JUMPDEST PUSH8 0xFFFFFFFFFFFFFFFF DUP2 GT PUSH2 0x93D JUMPI PUSH1 0x1F ADD PUSH1 0x1F NOT AND PUSH1 0x20 ADD SWAP1 JUMP JUMPDEST DUP2 PUSH1 0x1F DUP3 ADD SLT ISZERO PUSH2 0x17D JUMPI DUP1 CALLDATALOAD SWAP1 PUSH2 0x1D8E DUP3 PUSH2 0x1D5B JUMP JUMPDEST SWAP3 PUSH2 0x1D9C PUSH1 0x40 MLOAD SWAP5 DUP6 PUSH2 0x1D39 JUMP JUMPDEST DUP3 DUP5 MSTORE PUSH1 0x20 DUP4 DUP4 ADD ADD GT PUSH2 0x17D JUMPI DUP2 PUSH1 0x0 SWAP3 PUSH1 0x20 DUP1 SWAP4 ADD DUP4 DUP7 ADD CALLDATACOPY DUP4 ADD ADD MSTORE SWAP1 JUMP JUMPDEST DUP1 SLOAD DUP3 LT ISZERO PUSH2 0x1DDA JUMPI PUSH1 0x0 MSTORE PUSH1 0x5 PUSH1 0x20 PUSH1 0x0 KECCAK256 SWAP2 MUL ADD SWAP1 PUSH1 0x0 SWAP1 JUMP JUMPDEST PUSH4 0x4E487B71 PUSH1 0xE0 SHL PUSH1 0x0 MSTORE PUSH1 0x32 PUSH1 0x4 MSTORE PUSH1 0x24 PUSH1 0x0 REVERT JUMPDEST SWAP2 SWAP1 DUP3 MLOAD SWAP3 DUP4 DUP3 MSTORE PUSH1 0x0 JUMPDEST DUP5 DUP2 LT PUSH2 0x1E1C JUMPI POP POP DUP3 PUSH1 0x0 PUSH1 0x20 DUP1 SWAP5 SWAP6 DUP5 ADD ADD MSTORE PUSH1 0x1F DUP1 NOT SWAP2 ADD AND ADD ADD SWAP1 JUMP JUMPDEST PUSH1 0x20 DUP2 DUP4 ADD DUP2 ADD MLOAD DUP5 DUP4 ADD DUP3 ADD MSTORE ADD PUSH2 0x1DFB JUMP JUMPDEST SWAP1 PUSH1 0x1 DUP3 DUP2 SHR SWAP3 AND DUP1 ISZERO PUSH2 0x1E60 JUMPI JUMPDEST PUSH1 0x20 DUP4 LT EQ PUSH2 0x1E4A JUMPI JUMP JUMPDEST PUSH4 0x4E487B71 PUSH1 0xE0 SHL PUSH1 0x0 MSTORE PUSH1 0x22 PUSH1 0x4 MSTORE PUSH1 0x24 PUSH1 0x0 REVERT JUMPDEST SWAP2 PUSH1 0x7F AND SWAP2 PUSH2 0x1E3F JUMP JUMPDEST SWAP1 PUSH1 0x40 MLOAD SWAP2 DUP3 PUSH1 0x0 DUP3 SLOAD SWAP3 PUSH2 0x1E7E DUP5 PUSH2 0x1E30 JUMP JUMPDEST SWAP1 DUP2 DUP5 MSTORE PUSH1 0x1 SWAP5 DUP6 DUP2 AND SWAP1 DUP2 PUSH1 0x0 EQ PUSH2 0x1EED JUMPI POP PUSH1 0x1 EQ PUSH2 0x1EAA JUMPI JUMPDEST POP POP PUSH2 0x1EA8 SWAP3 POP SUB DUP4 PUSH2 0x1D39 JUMP JUMPDEST JUMP JUMPDEST SWAP1 SWAP4 SWAP2 POP PUSH1 0x0 MSTORE PUSH1 0x20 SWAP1 DUP2 PUSH1 0x0 KECCAK256 SWAP4 PUSH1 0x0 SWAP2 JUMPDEST DUP2 DUP4 LT PUSH2 0x1ED5 JUMPI POP POP PUSH2 0x1EA8 SWAP4 POP DUP3 ADD ADD CODESIZE DUP1 PUSH2 0x1E9A JUMP JUMPDEST DUP6 SLOAD DUP9 DUP5 ADD DUP6 ADD MSTORE SWAP5 DUP6 ADD SWAP5 DUP8 SWAP5 POP SWAP2 DUP4 ADD SWAP2 PUSH2 0x1EBD JUMP JUMPDEST SWAP2 POP POP PUSH2 0x1EA8 SWAP5 POP PUSH1 0x20 SWAP3 POP PUSH1 0xFF NOT AND DUP3 DUP5 ADD MSTORE ISZERO ISZERO PUSH1 0x5 SHL DUP3 ADD ADD CODESIZE DUP1 PUSH2 0x1E9A JUMP JUMPDEST RETURNDATASIZE ISZERO PUSH2 0x1F3B JUMPI RETURNDATASIZE SWAP1 PUSH2 0x1F21 DUP3 PUSH2 0x1D5B JUMP JUMPDEST SWAP2 PUSH2 0x1F2F PUSH1 0x40 MLOAD SWAP4 DUP5 PUSH2 0x1D39 JUMP JUMPDEST DUP3 MSTORE RETURNDATASIZE PUSH1 0x0 PUSH1 0x20 DUP5 ADD RETURNDATACOPY JUMP JUMPDEST PUSH1 0x60 SWAP1 JUMP JUMPDEST ISZERO PUSH2 0x1F47 JUMPI JUMP JUMPDEST PUSH1 0x40 MLOAD PUSH3 0x461BCD PUSH1 0xE5 SHL DUP2 MSTORE PUSH1 0x20 PUSH1 0x4 DUP3 ADD MSTORE PUSH1 0x1F PUSH1 0x24 DUP3 ADD MSTORE PUSH32 0x4661696C656420746F2073656E6420726567697374726174696F6E2066656500 PUSH1 0x44 DUP3 ADD MSTORE PUSH1 0x64 SWAP1 REVERT JUMPDEST SWAP2 SWAP1 DUP3 SUB SWAP2 DUP3 GT PUSH2 0x9D2 JUMPI JUMP JUMPDEST ISZERO PUSH2 0x1FA0 JUMPI JUMP JUMPDEST PUSH1 0x40 MLOAD PUSH3 0x461BCD PUSH1 0xE5 SHL DUP2 MSTORE PUSH1 0x20 PUSH1 0x4 DUP3 ADD MSTORE PUSH1 0x1F PUSH1 0x24 DUP3 ADD MSTORE PUSH32 0x4661696C656420746F20726566756E6420657863657373207061796D656E7400 PUSH1 0x44 DUP3 ADD MSTORE PUSH1 0x64 SWAP1 REVERT JUMPDEST MLOAD SWAP1 PUSH10 0xFFFFFFFFFFFFFFFFFFFF DUP3 AND DUP3 SUB PUSH2 0x17D JUMPI JUMP JUMPDEST PUSH1 0x40 MLOAD PUSH4 0x3FABE5A3 PUSH1 0xE2 SHL DUP2 MSTORE PUSH1 0xA0 DUP2 PUSH1 0x4 DUP2 PUSH32 0x0 PUSH1 0x1 PUSH1 0x1 PUSH1 0xA0 SHL SUB AND GAS STATICCALL DUP1 ISZERO PUSH2 0x2133 JUMPI PUSH1 0x0 SWAP2 DUP3 SWAP2 PUSH2 0x20DC JUMPI JUMPDEST POP PUSH1 0x0 DUP3 SGT ISZERO PUSH2 0x20A2 JUMPI PUSH2 0x2062 PUSH2 0xE10 SWAP2 TIMESTAMP PUSH2 0x1F8C JUMP JUMPDEST GT PUSH2 0x206A JUMPI SWAP1 JUMP JUMPDEST PUSH1 0x40 MLOAD PUSH3 0x461BCD PUSH1 0xE5 SHL DUP2 MSTORE PUSH1 0x20 PUSH1 0x4 DUP3 ADD MSTORE PUSH1 0x10 PUSH1 0x24 DUP3 ADD MSTORE PUSH16 0x50726963652066656564207374616C65 PUSH1 0x80 SHL PUSH1 0x44 DUP3 ADD MSTORE PUSH1 0x64 SWAP1 REVERT JUMPDEST PUSH1 0x40 MLOAD PUSH3 0x461BCD PUSH1 0xE5 SHL DUP2 MSTORE PUSH1 0x20 PUSH1 0x4 DUP3 ADD MSTORE PUSH1 0x12 PUSH1 0x24 DUP3 ADD MSTORE PUSH18 0x125B9D985B1A59081C1C9A58D94819995959 PUSH1 0x72 SHL PUSH1 0x44 DUP3 ADD MSTORE PUSH1 0x64 SWAP1 REVERT JUMPDEST SWAP2 SWAP1 POP PUSH1 0xA0 DUP3 RETURNDATASIZE DUP3 GT PUSH2 0x212B JUMPI JUMPDEST DUP2 PUSH2 0x20F7 PUSH1 0xA0 SWAP4 DUP4 PUSH2 0x1D39 JUMP JUMPDEST DUP2 ADD SUB SLT PUSH2 0x2128 JUMPI POP PUSH2 0x2109 DUP2 PUSH2 0x1FE5 JUMP JUMPDEST POP PUSH1 0x20 DUP2 ADD MLOAD PUSH2 0x2120 PUSH1 0x80 PUSH1 0x60 DUP5 ADD MLOAD SWAP4 ADD PUSH2 0x1FE5 JUMP JUMPDEST POP SWAP1 CODESIZE PUSH2 0x204B JUMP JUMPDEST DUP1 REVERT JUMPDEST RETURNDATASIZE SWAP2 POP PUSH2 0x20EA JUMP JUMPDEST PUSH1 0x40 MLOAD RETURNDATASIZE PUSH1 0x0 DUP3 RETURNDATACOPY RETURNDATASIZE SWAP1 REVERT JUMPDEST DUP2 DUP2 MUL SWAP3 SWAP2 DUP2 ISZERO SWAP2 DUP5 DIV EQ OR ISZERO PUSH2 0x9D2 JUMPI JUMP JUMPDEST DUP2 ISZERO PUSH2 0x215C JUMPI DIV SWAP1 JUMP JUMPDEST PUSH4 0x4E487B71 PUSH1 0xE0 SHL PUSH1 0x0 MSTORE PUSH1 0x12 PUSH1 0x4 MSTORE PUSH1 0x24 PUSH1 0x0 REVERT JUMPDEST PUSH2 0x217A PUSH2 0x1FFC JUMP JUMPDEST PUSH1 0x2 SLOAD SWAP1 PUSH11 0x52B7D2DCC80CD2E4000000 SWAP2 DUP3 DUP2 MUL SWAP3 DUP2 DUP5 DIV EQ SWAP1 ISZERO OR ISZERO PUSH2 0x9D2 JUMPI PUSH2 0x21A4 SWAP2 PUSH2 0x2152 JUMP JUMPDEST SWAP1 JUMP JUMPDEST SWAP2 SWAP1 DUP3 ADD DUP1 SWAP3 GT PUSH2 0x9D2 JUMPI JUMP JUMPDEST PUSH1 0x0 NOT DUP2 EQ PUSH2 0x9D2 JUMPI PUSH1 0x1 ADD SWAP1 JUMP JUMPDEST ISZERO PUSH2 0x21CA JUMPI JUMP JUMPDEST PUSH1 0x40 MLOAD PUSH3 0x461BCD PUSH1 0xE5 SHL DUP2 MSTORE PUSH1 0x20 PUSH1 0x4 DUP3 ADD MSTORE PUSH1 0x15 PUSH1 0x24 DUP3 ADD MSTORE PUSH21 0x13585C9AD95D08191BD95CC81B9BDD08195E1A5CDD PUSH1 0x5A SHL PUSH1 0x44 DUP3 ADD MSTORE PUSH1 0x64 SWAP1 REVERT JUMPDEST ISZERO PUSH2 0x220E JUMPI JUMP JUMPDEST PUSH1 0x40 MLOAD PUSH3 0x461BCD PUSH1 0xE5 SHL DUP2 MSTORE PUSH1 0x20 PUSH1 0x4 DUP3 ADD MSTORE PUSH1 0x17 PUSH1 0x24 DUP3 ADD MSTORE PUSH32 0x4D61726B657420616C7265616479207265736F6C766564000000000000000000 PUSH1 0x44 DUP3 ADD MSTORE PUSH1 0x64 SWAP1 REVERT JUMPDEST PUSH1 0x4 PUSH1 0x80 PUSH2 0x1EA8 SWAP4 DUP1 MLOAD DUP5 SSTORE PUSH2 0x227E PUSH1 0x20 DUP3 ADD MLOAD ISZERO ISZERO PUSH1 0x1 DUP7 ADD SWAP1 PUSH1 0xFF DUP1 NOT DUP4 SLOAD AND SWAP2 ISZERO ISZERO AND OR SWAP1 SSTORE JUMP JUMPDEST PUSH1 0x40 DUP2 ADD MLOAD PUSH1 0x2 DUP6 ADD SSTORE PUSH1 0x60 DUP2 ADD MLOAD PUSH1 0x3 DUP6 ADD SSTORE ADD MLOAD ISZERO ISZERO SWAP2 ADD SWAP1 PUSH1 0xFF DUP1 NOT DUP4 SLOAD AND SWAP2 ISZERO ISZERO AND OR SWAP1 SSTORE JUMP JUMPDEST ISZERO PUSH2 0x22B0 JUMPI JUMP JUMPDEST PUSH1 0x40 MLOAD PUSH3 0x461BCD PUSH1 0xE5 SHL DUP2 MSTORE PUSH1 0x20 PUSH1 0x4 DUP3 ADD MSTORE PUSH1 0x18 PUSH1 0x24 DUP3 ADD MSTORE PUSH32 0x4F6E6C79206F776E65722063616E2063616C6C20746869730000000000000000 PUSH1 0x44 DUP3 ADD MSTORE PUSH1 0x64 SWAP1 REVERT JUMPDEST SWAP1 PUSH1 0x40 MLOAD PUSH2 0x2302 DUP2 PUSH2 0x1D1D JUMP JUMPDEST PUSH1 0x80 PUSH1 0xFF PUSH1 0x4 DUP4 SWAP6 DUP1 SLOAD DUP6 MSTORE DUP3 PUSH1 0x1 DUP3 ADD SLOAD AND ISZERO ISZERO PUSH1 0x20 DUP7 ADD MSTORE PUSH1 0x2 DUP2 ADD SLOAD PUSH1 0x40 DUP7 ADD MSTORE PUSH1 0x3 DUP2 ADD SLOAD PUSH1 0x60 DUP7 ADD MSTORE ADD SLOAD AND ISZERO ISZERO SWAP2 ADD MSTORE JUMP JUMPDEST SWAP1 PUSH1 0x0 SWAP2 DUP3 MSTORE PUSH1 0x7 PUSH1 0x20 MSTORE PUSH1 0x40 DUP3 KECCAK256 SWAP1 PUSH1 0x1 DUP1 PUSH1 0xA0 SHL SUB AND DUP3 MSTORE PUSH1 0x20 MSTORE PUSH2 0x2363 PUSH1 0x40 DUP3 KECCAK256 PUSH2 0x22F5 JUMP JUMPDEST SWAP2 PUSH1 0x40 DUP4 ADD MLOAD SWAP2 DUP3 ISZERO PUSH2 0x2388 JUMPI POP PUSH1 0x80 PUSH1 0x20 DUP5 ADD MLOAD ISZERO ISZERO SWAP4 ADD MLOAD ISZERO ISZERO SWAP1 PUSH1 0x1 SWAP4 SWAP3 SWAP2 SWAP1 JUMP JUMPDEST SWAP3 POP SWAP1 POP DUP2 DUP1 SWAP2 DUP2 SWAP1 JUMP INVALID LOG2 PUSH5 0x6970667358 0x22 SLT KECCAK256 PUSH1 0x9A MSTORE8 0xB7 DUP16 LT STATICCALL 0xF9 SAR 0xC9 PUSH1 0x86 0xA8 0x21 PUSH25 0x9586DFBA8B7F4E267BDCBAEED4E26824A164736F6C63430008 EQ STOP CALLER "},"methodIdentifiers":{"BASIS_POINTS()":"e1f1c4a7","CREATOR_FEE_BP()":"d64adc68","PLATFORM_FEE_BP()":"de7adf6e","bnbUsdPriceFeed()":"0c545855","claimWinnings(uint256)":"677bd9ff","createMarket(string,string,string,uint256)":"76e00406","createMarketStake()":"d782b543","getBNBUSDPrice()":"71700093","getMarketDetails(uint256)":"b06c1ba3","getRegistrationFeeInBNB()":"a85c1884","getUserBetInMarket(uint256,address)":"3ba693c5","getUserBets(address)":"2d56657d","isUserRegistered(address)":"163f7522","marketCount()":"ec979082","marketPools(uint256,bool)":"3c068532","marketUserBets(uint256,address)":"980d5d59","markets(uint256)":"b1283e77","minBetAmount()":"fa968eea","owner()":"8da5cb5b","placeBet(uint256,bool)":"9ed9c74d","platformFeeRecipient()":"eb13554f","registerUser()":"4d3820eb","registeredUsers(address)":"0e50cee5","registrationFeeUSD()":"d670e926","resolveMarket(uint256,bool)":"57bde446","updateCreateMarketStake(uint256)":"0595f181","updateMinBetAmount(uint256)":"b73bf456","updateRegistrationFeeUSD(uint256)":"c97d66e9","userBets(address,uint256)":"8068aa68"}}}}}