{"project/contracts/PredictionMarket.sol":{"PredictionMarket":{"abi":[{"inputs":[{"internalType":"address","name":"_platformFeeRecipient","type":"address"},{"internalType":"address","name":"_bnbUsdPriceFeed","type":"address"}],"stateMutability":"nonpayable","type":"constructor"},{"anonymous":false,"inputs":[{"indexed":true,"internalType":"uint256","name":"marketId","type":"uint256"},{"indexed":true,"internalType":"address","name":"bettor","type":"address"},{"indexed":false,"internalType":"bool","name":"prediction","type":"bool"},{"indexed":false,"internalType":"uint256","name":"amount","type":"uint256"},{"indexed":false,"internalType":"uint256","name":"platformFee","type":"uint256"},{"indexed":false,"internalType":"uint256","name":"creatorFee","type":"uint256"}],"name":"BetPlaced","type":"event"},{"anonymous":false,"inputs":[{"indexed":true,"internalType":"uint256","name":"marketId","type":"uint256"},{"indexed":true,"internalType":"address","name":"creator","type":"address"},{"indexed":false,"internalType":"string","name":"title","type":"string"},{"indexed":false,"internalType":"uint256","name":"deadline","type":"uint256"}],"name":"MarketCreated","type":"event"},{"anonymous":false,"inputs":[{"indexed":true,"internalType":"uint256","name":"marketId","type":"uint256"},{"indexed":false,"internalType":"bool","name":"outcome","type":"bool"}],"name":"MarketResolved","type":"event"},{"anonymous":false,"inputs":[{"indexed":false,"internalType":"uint256","name":"amount","type":"uint256"}],"name":"PlatformFeeCollected","type":"event"},{"anonymous":false,"inputs":[{"indexed":true,"internalType":"address","name":"user","type":"address"},{"indexed":false,"internalType":"uint256","name":"feePaid","type":"uint256"}],"name":"UserRegistered","type":"event"},{"anonymous":false,"inputs":[{"indexed":true,"internalType":"uint256","name":"marketId","type":"uint256"},{"indexed":true,"internalType":"address","name":"winner","type":"address"},{"indexed":false,"internalType":"uint256","name":"amount","type":"uint256"}],"name":"WinningsClaimed","type":"event"},{"inputs":[],"name":"BASIS_POINTS","outputs":[{"internalType":"uint256","name":"","type":"uint256"}],"stateMutability":"view","type":"function"},{"inputs":[],"name":"CREATOR_FEE_BP","outputs":[{"internalType":"uint256","name":"","type":"uint256"}],"stateMutability":"view","type":"function"},{"inputs":[],"name":"PLATFORM_FEE_BP","outputs":[{"internalType":"uint256","name":"","type":"uint256"}],"stateMutability":"view","type":"function"},{"inputs":[],"name":"bnbUsdPriceFeed","outputs":[{"internalType":"contract AggregatorV3Interface","name":"","type":"address"}],"stateMutability":"view","type":"function"},{"inputs":[{"internalType":"uint256","name":"marketId","type":"uint256"}],"name":"claimWinnings","outputs":[],"stateMutability":"nonpayable","type":"function"},{"inputs":[{"internalType":"string","name":"title","type":"string"},{"internalType":"string","name":"description","type":"string"},{"internalType":"string","name":"category","type":"string"},{"internalType":"uint256","name":"deadline","type":"uint256"}],"name":"createMarket","outputs":[{"internalType":"uint256","name":"marketId","type":"uint256"}],"stateMutability":"payable","type":"function"},{"inputs":[],"name":"createMarketStake","outputs":[{"internalType":"uint256","name":"","type":"uint256"}],"stateMutability":"view","type":"function"},{"inputs":[],"name":"getBNBUSDPrice","outputs":[{"internalType":"uint256","name":"","type":"uint256"}],"stateMutability":"view","type":"function"},{"inputs":[{"internalType":"uint256","name":"marketId","type":"uint256"}],"name":"getMarketDetails","outputs":[{"components":[{"internalType":"uint256","name":"id","type":"uint256"},{"internalType":"string","name":"title","type":"string"},{"internalType":"string","name":"description","type":"string"},{"internalType":"string","name":"category","type":"string"},{"internalType":"uint256","name":"deadline","type":"uint256"},{"internalType":"uint256","name":"yesPool","type":"uint256"},{"internalType":"uint256","name":"noPool","type":"uint256"},{"internalType":"uint256","name":"totalPool","type":"uint256"},{"internalType":"uint256","name":"participants","type":"uint256"},{"internalType":"bool","name":"resolved","type":"bool"},{"internalType":"bool","name":"outcome","type":"bool"},{"internalType":"address","name":"creator","type":"address"},{"internalType":"uint256","name":"creatorStake","type":"uint256"},{"internalType":"uint256","name":"creatorFeeAccrued","type":"uint256"}],"internalType":"struct PredictionMarket.Market","name":"","type":"tuple"}],"stateMutability":"view","type":"function"},{"inputs":[],"name":"getRegistrationFeeInBNB","outputs":[{"internalType":"uint256","name":"","type":"uint256"}],"stateMutability":"view","type":"function"},{"inputs":[{"internalType":"uint256","name":"marketId","type":"uint256"},{"internalType":"address","name":"user","type":"address"}],"name":"getUserBetInMarket","outputs":[{"internalType":"bool","name":"hasBet","type":"bool"},{"internalType":"bool","name":"prediction","type":"bool"},{"internalType":"uint256","name":"amount","type":"uint256"},{"internalType":"bool","name":"claimed","type":"bool"}],"stateMutability":"view","type":"function"},{"inputs":[{"internalType":"address","name":"user","type":"address"}],"name":"getUserBets","outputs":[{"components":[{"internalType":"uint256","name":"marketId","type":"uint256"},{"internalType":"bool","name":"prediction","type":"bool"},{"internalType":"uint256","name":"amount","type":"uint256"},{"internalType":"uint256","name":"timestamp","type":"uint256"},{"internalType":"bool","name":"claimed","type":"bool"}],"internalType":"struct PredictionMarket.Bet[]","name":"","type":"tuple[]"}],"stateMutability":"view","type":"function"},{"inputs":[{"internalType":"address","name":"user","type":"address"}],"name":"isUserRegistered","outputs":[{"internalType":"bool","name":"","type":"bool"}],"stateMutability":"view","type":"function"},{"inputs":[],"name":"marketCount","outputs":[{"internalType":"uint256","name":"","type":"uint256"}],"stateMutability":"view","type":"function"},{"inputs":[{"internalType":"uint256","name":"","type":"uint256"},{"internalType":"bool","name":"","type":"bool"}],"name":"marketPools","outputs":[{"internalType":"uint256","name":"","type":"uint256"}],"stateMutability":"view","type":"function"},{"inputs":[{"internalType":"uint256","name":"","type":"uint256"},{"internalType":"address","name":"","type":"address"}],"name":"marketUserBets","outputs":[{"internalType":"uint256","name":"marketId","type":"uint256"},{"internalType":"bool","name":"prediction","type":"bool"},{"internalType":"uint256","name":"amount","type":"uint256"},{"internalType":"uint256","name":"timestamp","type":"uint256"},{"internalType":"bool","name":"claimed","type":"bool"}],"stateMutability":"view","type":"function"},{"inputs":[{"internalType":"uint256","name":"","type":"uint256"}],"name":"markets","outputs":[{"internalType":"uint256","name":"id","type":"uint256"},{"internalType":"string","name":"title","type":"string"},{"internalType":"string","name":"description","type":"string"},{"internalType":"string","name":"category","type":"string"},{"internalType":"uint256","name":"deadline","type":"uint256"},{"internalType":"uint256","name":"yesPool","type":"uint256"},{"internalType":"uint256","name":"noPool","type":"uint256"},{"internalType":"uint256","name":"totalPool","type":"uint256"},{"internalType":"uint256","name":"participants","type":"uint256"},{"internalType":"bool","name":"resolved","type":"bool"},{"internalType":"bool","name":"outcome","type":"bool"},{"internalType":"address","name":"creator","type":"address"},{"internalType":"uint256","name":"creatorStake","type":"uint256"},{"internalType":"uint256","name":"creatorFeeAccrued","type":"uint256"}],"stateMutability":"view","type":"function"},{"inputs":[],"name":"minBetAmount","outputs":[{"internalType":"uint256","name":"","type":"uint256"}],"stateMutability":"view","type":"function"},{"inputs":[],"name":"owner","outputs":[{"internalType":"address","name":"","type":"address"}],"stateMutability":"view","type":"function"},{"inputs":[{"internalType":"uint256","name":"marketId","type":"uint256"},{"internalType":"bool","name":"prediction","type":"bool"}],"name":"placeBet","outputs":[],"stateMutability":"payable","type":"function"},{"inputs":[],"name":"platformFeeRecipient","outputs":[{"internalType":"address","name":"","type":"address"}],"stateMutability":"view","type":"function"},{"inputs":[],"name":"registerUser","outputs":[],"stateMutability":"payable","type":"function"},{"inputs":[{"internalType":"address","name":"","type":"address"}],"name":"registeredUsers","outputs":[{"internalType":"bool","name":"","type":"bool"}],"stateMutability":"view","type":"function"},{"inputs":[],"name":"registrationFeeUSD","outputs":[{"internalType":"uint256","name":"","type":"uint256"}],"stateMutability":"view","type":"function"},{"inputs":[{"internalType":"uint256","name":"marketId","type":"uint256"},{"internalType":"bool","name":"outcome","type":"bool"}],"name":"resolveMarket","outputs":[],"stateMutability":"nonpayable","type":"function"},{"inputs":[{"internalType":"uint256","name":"newStake","type":"uint256"}],"name":"updateCreateMarketStake","outputs":[],"stateMutability":"nonpayable","type":"function"},{"inputs":[{"internalType":"uint256","name":"newMinBet","type":"uint256"}],"name":"updateMinBetAmount","outputs":[],"stateMutability":"nonpayable","type":"function"},{"inputs":[{"internalType":"uint256","name":"newFeeUSD","type":"uint256"}],"name":"updateRegistrationFeeUSD","outputs":[],"stateMutability":"nonpayable","type":"function"},{"inputs":[{"internalType":"address","name":"","type":"address"},{"internalType":"uint256","name":"","type":"uint256"}],"name":"userBets","outputs":[{"internalType":"uint256","name":"marketId","type":"uint256"},{"internalType":"bool","name":"prediction","type":"bool"},{"internalType":"uint256","name":"amount","type":"uint256"},{"internalType":"uint256","name":"timestamp","type":"uint256"},{"internalType":"bool","name":"claimed","type":"bool"}],"stateMutability":"view","type":"function"},{"stateMutability":"payable","type":"receive"}],"evm":{"bytecode":{"linkReferences":{},"object":"60c03462000180576200236d90601f38839003908101601f19168201906001600160401b0382118383101762000184578083916040958694855283398101031262000180576200005d6020620000558362000198565b920162000198565b662386f26fc100005f5567016345785d8a0000600155600280556001600160a01b0390828216156200013c5716908115620000f8573360018060a01b0319600454161760045560805260a0525f600355335f526009602052805f20600160ff19825416179055516121bf9081620001ae82396080518181816101af0152818161077201526117cd015260a051818181611ab10152611dc20152f35b825162461bcd60e51b815260206004820152601a60248201527f496e76616c6964207072696365206665656420616464726573730000000000006044820152606490fd5b835162461bcd60e51b815260206004820152601e60248201527f496e76616c696420706c6174666f726d2066656520726563697069656e7400006044820152606490fd5b5f80fd5b634e487b7160e01b5f52604160045260245ffd5b51906001600160a01b0382168203620001805756fe6080604052600436101561001a575b3615610018575f80fd5b005b5f3560e01c80630595f18114611ae05780630c54585514611a9c5780630e50cee514611a5f578063163f752214611a5f5780632d56657d146119735780633ba693c51461192f5780633c068532146118fe5780634d3820eb1461178157806357bde446146115f3578063677bd9ff14611265578063717000931461124b57806376e0040614610bc05780638068aa6814610b335780638da5cb5b14610b0b578063980d5d5914610a7d5780639ed9c74d14610693578063a85c188414610671578063b06c1ba314610434578063b1283e7714610326578063b73bf456146102f9578063c97d66e91461026b578063d64adc6814610250578063d670e92614610233578063d782b54314610216578063de7adf6e146101fa578063e1f1c4a7146101de578063eb13554f1461019a578063ec9790821461017d5763fa968eea0361000e5734610179575f3660031901126101795760205f54604051908152f35b5f80fd5b34610179575f366003190112610179576020600354604051908152f35b34610179575f366003190112610179576040517f00000000000000000000000000000000000000000000000000000000000000006001600160a01b03168152602090f35b34610179575f3660031901126101795760206040516127108152f35b34610179575f3660031901126101795760206040516103e88152f35b34610179575f366003190112610179576020600154604051908152f35b34610179575f366003190112610179576020600254604051908152f35b34610179575f36600319011261017957602060405160c88152f35b346101795760203660031901126101795760043561029460018060a01b036004541633146120a0565b6001811015806102ee575b156102a957600255005b60405162461bcd60e51b815260206004820152601f60248201527f466565206d757374206265206265747765656e20243120616e642024313030006044820152606490fd5b50606481111561029f565b346101795760203660031901126101795761031f60018060a01b036004541633146120a0565b6004355f55005b34610179576020366003190112610179576004355f52600560205260405f20805461035360018301611cb9565b9161036060028201611cb9565b61036c60038301611cb9565b91600481015492600582015460068301546007840154906008850154926103da6009870154956103cc600b600a8a0154990154996103be6040519e8f9e8f9081526101c0908160208201520190611c43565b8d810360408f015290611c43565b908b820360608d0152611c43565b60808a019890985260a089015260c088015260e087015261010086015260ff8181161515610120870152600882901c16151561014086015260101c6001600160a01b03166101608501526101808401526101a08301520390f35b34610179576020366003190112610179575f6101a060405161045581611b59565b82815260606020820152606060408201526060808201528260808201528260a08201528260c08201528260e08201528261010082015282610120820152826101408201528261016082015282610180820152015260043580151580610665575b6104be90611fad565b5f52600560205260405f20600b604051916104d883611b59565b805483526104e860018201611cb9565b60208401526104f960028201611cb9565b604084015261050a60038201611cb9565b606084015260048101546080840152600581015460a0840152600681015460c0840152600781015460e08401526008810154610100840152600981015460ff8116151561012085015260ff8160081c16151561014085015260018060a01b039060101c16610160840152600a81015461018084015201546101a0820152604051809160208252805160208301526101a06105e96105b860208401516101c060408701526101e0860190611c43565b6105d4604085015191601f199283888303016060890152611c43565b90606085015190868303016080870152611c43565b91608081015160a085015260a081015160c085015260c081015160e085015260e08101516101008501526101008101516101208501526101208101511515610140850152610140810151151561016085015260018060a01b03610160820151166101808501526101808101518285015201516101c08301520390f35b506003548111156104b5565b34610179575f36600319011261017957602061068b611f1e565b604051908152f35b61069c36611b3a565b90335f52602090600982526106b760ff60405f205416611f53565b80151580610a71575b6106c990611fad565b805f52600582526106e460ff600960405f2001541615611ff1565b805f5260058252600460405f200154421015610a33575f5434106109f957805f526007825260405f20335f528252600260405f2001546109b457805f526005825260405f206103e891823402341593348204148417156109a0576127108091049360c834029034820460c81417156109a057049161076b836107668634611da0565b611da0565b5f808080887f00000000000000000000000000000000000000000000000000000000000000006001600160a01b03165af16107a4611d5a565b501561095b5790600891600b82016107bd86825461203d565b9055871561092557600582016107d482825461203d565b9055835f5282875260405f2060015f52875260405f206107f582825461203d565b90555b6108076007830191825461203d565b9055016108148154611f9f565b90556040519461082386611b76565b81865215159182858701523460408701524260608701525f6080870152335f526006855260405f208054680100000000000000008110156109115761086d91600182018155611c16565b6108fe57866108a07f1e78db4c4ee9ca4946fb3ee60599d1e0258a8b22e183510241ff770ab6332baf986108b99361204a565b835f526007875260405f20335f52875260405f2061204a565b604051928352348584015283604084015260608301527f1faf624c13819091a75aa5abee6c43a2226da9b9475e62bdfc87bef2889b509660803393a3604051908152a1005b634e487b7160e01b5f525f60045260245ffd5b634e487b7160e01b5f52604160045260245ffd5b6006820161093482825461203d565b9055835f5282875260405f205f8052875260405f2061095482825461203d565b90556107f8565b60405162461bcd60e51b815260048101879052601b60248201527f4661696c656420746f2073656e6420706c6174666f726d2066656500000000006044820152606490fd5b634e487b7160e01b5f52601160045260245ffd5b60405162461bcd60e51b815260048101839052601a60248201527f416c726561647920626574206f6e2074686973206d61726b65740000000000006044820152606490fd5b60405162461bcd60e51b815260048101839052601260248201527142657420616d6f756e7420746f6f206c6f7760701b6044820152606490fd5b60405162461bcd60e51b815260048101839052601660248201527513585c9ad95d08191958591b1a5b99481c185cdcd95960521b6044820152606490fd5b506003548111156106c0565b3461017957604036600319011261017957610a96611b24565b6004355f52600760205260405f209060018060a01b03165f5260205260405f208054610b0760ff6001840154169260028101549060ff6004600383015492015416916040519586958693909594919260809360a0860197865215156020860152604085015260608401521515910152565b0390f35b34610179575f366003190112610179576004546040516001600160a01b039091168152602090f35b3461017957604036600319011261017957610b4c611b0e565b6001600160a01b03165f90815260066020526040902080546024359081101561017957610b7891611c16565b5080546001820154600283015460038401546004909401546040805194855260ff9384161515602086015284019190915260608301939093529091161515608082015260a090f35b60803660031901126101795760043567ffffffffffffffff811161017957610bec903690600401611bd0565b60243567ffffffffffffffff811161017957610c0c903690600401611bd0565b9060443567ffffffffffffffff811161017957610c2d903690600401611bd0565b90335f526009602052610c4660ff60405f205416611f53565b6001543403611206574260643511156111c157600a81511061118a57603283511061114d57610c76600354611f9f565b918260035560405193610c8885611b59565b8385528260208601526040850152606084015260643560808401525f60a08401525f60c08401525f60e08401525f6101008401525f6101208401525f61014084015233610160840152346101808401525f6101a0840152815f52600560205260405f2083518155602084015180519067ffffffffffffffff8211610911578190610d156001850154611c81565b601f81116110fd575b50602090601f8311600114611092575f92611087575b50508160011b915f199060031b1c19161760018201555b604084015180519067ffffffffffffffff8211610911578190610d716002850154611c81565b601f8111611037575b50602090601f8311600114610fcc575f92610fc1575b50508160011b915f199060031b1c19161760028201555b606084015193845167ffffffffffffffff811161091157610dcb6003840154611c81565b95601f8711610f7d575b602096508690601f8311600114610f0d579180600b94926101a0945f92610f02575b50508160011b915f199060031b1c19161760038501555b6080810151600485015560a0810151600585015560c0810151600685015560e08101516007850155610100810151600885015560098401610e626101208301511515829060ff801983541691151516179055565b610140820151815461ff00191690151560081b61ff0016178155610160820151815462010000600160b01b03191660109190911b62010000600160b01b0316179055610180810151600a8501550151910155604080518181529183917f03e783e31593f59fda73a59d05e2525d610a533995cce4d4750186c3b6bf80bb91610eec91850190611c43565b92606435868201528033940390a3604051908152f35b015190508980610df7565b90600385015f52875f20915f5b601f1985168110610f66575092600b94926001926101a09583601f19811610610f4e575b505050811b016003850155610e0e565b01515f1960f88460031b161c19169055898080610f3e565b919289600181928685015181550194019201610f1a565b600384015f5260205f20601f830160051c810160208410610fba575b601f890160051c82018110610faf575050610dd5565b5f8155600101610f99565b5080610f99565b015190508680610d90565b600285015f908152602081209350601f198516905b81811061101f5750908460019594939210611007575b505050811b016002820155610da7565b01515f1960f88460031b161c19169055868080610ff7565b92936020600181928786015181550195019301610fe1565b909150600284015f5260205f20601f840160051c810160208510611080575b90849392915b601f830160051c82018110611072575050610d7a565b5f815585945060010161105c565b5080611056565b015190508680610d34565b600185015f908152602081209350601f198516905b8181106110e557509084600195949392106110cd575b505050811b016001820155610d4b565b01515f1960f88460031b161c191690558680806110bd565b929360206001819287860151815501950193016110a7565b909150600184015f5260205f20601f840160051c810160208510611146575b90849392915b601f830160051c82018110611138575050610d1e565b5f8155859450600101611122565b508061111c565b60405162461bcd60e51b815260206004820152601560248201527411195cd8dc9a5c1d1a5bdb881d1bdbc81cda1bdc9d605a1b6044820152606490fd5b60405162461bcd60e51b815260206004820152600f60248201526e151a5d1b19481d1bdbc81cda1bdc9d608a1b6044820152606490fd5b60405162461bcd60e51b815260206004820152601e60248201527f446561646c696e65206d75737420626520696e207468652066757475726500006044820152606490fd5b60405162461bcd60e51b815260206004820152601c60248201527f4d7573742073656e64206578616374207374616b6520616d6f756e74000000006044820152606490fd5b34610179575f36600319011261017957602061068b611dad565b346101795760208060031936011261017957600435801515806115e7575b61128c90611fad565b805f526005825260405f209060098201549060ff8216156115a257805f526007845260405f20335f52845260405f20600281015490811561156e57600481019485549460ff86166115295760081c60ff16801561151e576005820154925b8115611513576006830154945b6103e881026103e719828204016109a05760c8820282810460c8036109a05761132c9261076691612710809104930490611da0565b93806114b557506001015460ff161515901515146114705761135c9291600761135792015490611eed565b611f00565b915b600160ff1991821681179094555f845b611400575b50505f80935080928192604051908282527f5380cf6fe903b40c6d5a9e0dfbca2f3a423f0a21520b4d5947ed5169bdba946d883393a3335af16113b4611d5a565b50156113bc57005b6064906040519062461bcd60e51b82526004820152601760248201527f4661696c656420746f2073656e642077696e6e696e67730000000000000000006044820152fd5b335f52600680875260405f20805483101561146957611420838692611c16565b50541461143857506114328591611f9f565b9061136e565b925f959286959293600461145888979688973389528c5260408820611c16565b500191825416179055925092611373565b5050611373565b60405162461bcd60e51b815260048101889052601860248201527f4e6f2077696e6e65727320746f20636c61696d2066726f6d00000000000000006044820152606490fd5b9450600160ff91015416901515901515036114e3576114dd9291600761135792015490611eed565b9161135e565b60405162461bcd60e51b815260048101889052600860248201526710995d081b1bdcdd60c21b6044820152606490fd5b6005830154946112f7565b6006820154926112ea565b60405162461bcd60e51b815260048101899052601860248201527f57696e6e696e677320616c726561647920636c61696d656400000000000000006044820152606490fd5b60405162461bcd60e51b815260048101879052600c60248201526b139bc818995d08199bdd5b9960a21b6044820152606490fd5b60405162461bcd60e51b815260048101859052601760248201527f4d61726b6574206e6f74207265736f6c766564207965740000000000000000006044820152606490fd5b50600354811115611283565b346101795761160136611b3a565b6004546001600160a01b039061161a90821633146120a0565b82151580611775575b61162c90611fad565b825f526020926005845261164a60ff600960405f2001541615611ff1565b805f5260058452600460405f2001544210611730575f818152600585526040812060098101805461ffff191686151560081b61ff0016176001178155919485948594859492939192917f4927fe38919783250023d27e65a3e56b6b5c3e49364e51674a41ef08d62460d9908a906116cb90600b600a8201549101549061203d565b956040519015158152a25460101c165af16116e4611d5a565b50156116ec57005b6064906040519062461bcd60e51b82526004820152601f60248201527f4661696c656420746f2073656e642066756e647320746f2063726561746f72006044820152fd5b60405162461bcd60e51b815260048101859052601a60248201527f4d61726b657420646561646c696e65206e6f74207061737365640000000000006044820152606490fd5b50600354831115611623565b5f36600319011261017957335f5260206009815260ff60405f2054166118ba576117a9611f1e565b341061187657335f9081526009825260408120805460ff19166001179055808080347f00000000000000000000000000000000000000000000000000000000000000006001600160a01b03165af16117ff611d5a565b5015611832577fe29d35093005f4d575e1003753426b57a7f64378ba73332eef9c6ccc2b8decd6604051913483523392a2005b6064906040519062461bcd60e51b82526004820152601f60248201527f4661696c656420746f2073656e6420726567697374726174696f6e20666565006044820152fd5b6064906040519062461bcd60e51b82526004820152601d60248201527f496e73756666696369656e7420726567697374726174696f6e206665650000006044820152fd5b6064906040519062461bcd60e51b82526004820152601760248201527f5573657220616c726561647920726567697374657265640000000000000000006044820152fd5b346101795761190c36611b3a565b905f52600860205260405f209015155f52602052602060405f2054604051908152f35b3461017957604036600319011261017957608061195561194d611b24565b600435612131565b91604051931515845215156020840152604083015215156060820152f35b3461017957602080600319360112610179576001600160a01b03611995611b0e565b165f526006815260405f2090815467ffffffffffffffff8111610911576040519060056119c68483831b0184611b92565b81835283830180955f52845f205f915b848310611a4357604080518881528751818a018190528a928201908a5f5b828110611a015784840385f35b8551805185528083015115158584015260408082015190860152606080820151908601526080908101511515908501529481019460a0909301926001016119f4565b8387600192611a51856120ec565b8152019201920191906119d6565b34610179576020366003190112610179576001600160a01b03611a80611b0e565b165f526009602052602060ff60405f2054166040519015158152f35b34610179575f366003190112610179576040517f00000000000000000000000000000000000000000000000000000000000000006001600160a01b03168152602090f35b3461017957602036600319011261017957611b0660018060a01b036004541633146120a0565b600435600155005b600435906001600160a01b038216820361017957565b602435906001600160a01b038216820361017957565b6040906003190112610179576004359060243580151581036101795790565b6101c0810190811067ffffffffffffffff82111761091157604052565b60a0810190811067ffffffffffffffff82111761091157604052565b90601f8019910116810190811067ffffffffffffffff82111761091157604052565b67ffffffffffffffff811161091157601f01601f191660200190565b81601f8201121561017957803590611be782611bb4565b92611bf56040519485611b92565b8284526020838301011161017957815f926020809301838601378301015290565b8054821015611c2f575f52600560205f20910201905f90565b634e487b7160e01b5f52603260045260245ffd5b91908251928382525f5b848110611c6d575050825f602080949584010152601f8019910116010190565b602081830181015184830182015201611c4d565b90600182811c92168015611caf575b6020831014611c9b57565b634e487b7160e01b5f52602260045260245ffd5b91607f1691611c90565b9060405191825f825492611ccc84611c81565b9081845260019485811690815f14611d375750600114611cf7575b5050611cf592500383611b92565b565b909391505f52602090815f20935f915b818310611d1f575050611cf593508201015f80611ce7565b85548884018501529485019487945091830191611d07565b915050611cf594506020925060ff191682840152151560051b8201015f80611ce7565b3d15611d84573d90611d6b82611bb4565b91611d796040519384611b92565b82523d5f602084013e565b606090565b519069ffffffffffffffffffff8216820361017957565b919082039182116109a057565b604051633fabe5a360e21b815260a0816004817f00000000000000000000000000000000000000000000000000000000000000006001600160a01b03165afa8015611ee2575f918291611e8b575b505f821315611e5157611e11610e109142611da0565b11611e195790565b60405162461bcd60e51b815260206004820152601060248201526f50726963652066656564207374616c6560801b6044820152606490fd5b60405162461bcd60e51b8152602060048201526012602482015271125b9d985b1a59081c1c9a58d9481999595960721b6044820152606490fd5b91905060a0823d8211611eda575b81611ea660a09383611b92565b81010312611ed75750611eb881611d89565b506020810151611ecf608060608401519301611d89565b50905f611dfb565b80fd5b3d9150611e99565b6040513d5f823e3d90fd5b818102929181159184041417156109a057565b8115611f0a570490565b634e487b7160e01b5f52601260045260245ffd5b611f26611dad565b600254906a52b7d2dcc80cd2e4000000918281029281840414901517156109a057611f5091611f00565b90565b15611f5a57565b60405162461bcd60e51b815260206004820152601860248201527f55736572206d75737420726567697374657220666972737400000000000000006044820152606490fd5b5f1981146109a05760010190565b15611fb457565b60405162461bcd60e51b815260206004820152601560248201527413585c9ad95d08191bd95cc81b9bdd08195e1a5cdd605a1b6044820152606490fd5b15611ff857565b60405162461bcd60e51b815260206004820152601760248201527f4d61726b657420616c7265616479207265736f6c7665640000000000000000006044820152606490fd5b919082018092116109a057565b60046080611cf5938051845561207560208201511515600186019060ff801983541691151516179055565b60408101516002850155606081015160038501550151151591019060ff801983541691151516179055565b156120a757565b60405162461bcd60e51b815260206004820152601860248201527f4f6e6c79206f776e65722063616e2063616c6c207468697300000000000000006044820152606490fd5b906040516120f981611b76565b608060ff6004839580548552826001820154161515602086015260028101546040860152600381015460608601520154161515910152565b905f9182526007602052604082209060018060a01b03168252602052612159604082206120ec565b91604083015191821561217e5750608060208401511515930151151590600193929190565b92509050818091819056fea26469706673582212204f847e6f6fc59f31f324213acfb1aba8af247b9b21bae3fe34a9178e313c129164736f6c63430008140033","opcodes":"PUSH1 0xC0 CALLVALUE PUSH3 0x180 JUMPI PUSH3 0x236D SWAP1 PUSH1 0x1F CODESIZE DUP4 SWAP1 SUB SWAP1 DUP2 ADD PUSH1 0x1F NOT AND DUP3 ADD SWAP1 PUSH1 0x1 PUSH1 0x1 PUSH1 0x40 SHL SUB DUP3 GT DUP4 DUP4 LT OR PUSH3 0x184 JUMPI DUP1 DUP4 SWAP2 PUSH1 0x40 SWAP6 DUP7 SWAP5 DUP6 MSTORE DUP4 CODECOPY DUP2 ADD SUB SLT PUSH3 0x180 JUMPI PUSH3 0x5D PUSH1 0x20 PUSH3 0x55 DUP4 PUSH3 0x198 JUMP JUMPDEST SWAP3 ADD PUSH3 0x198 JUMP JUMPDEST PUSH7 0x2386F26FC10000 PUSH0 SSTORE PUSH8 0x16345785D8A0000 PUSH1 0x1 SSTORE PUSH1 0x2 DUP1 SSTORE PUSH1 0x1 PUSH1 0x1 PUSH1 0xA0 SHL SUB SWAP1 DUP3 DUP3 AND ISZERO PUSH3 0x13C JUMPI AND SWAP1 DUP2 ISZERO PUSH3 0xF8 JUMPI CALLER PUSH1 0x1 DUP1 PUSH1 0xA0 SHL SUB NOT PUSH1 0x4 SLOAD AND OR PUSH1 0x4 SSTORE PUSH1 0x80 MSTORE PUSH1 0xA0 MSTORE PUSH0 PUSH1 0x3 SSTORE CALLER PUSH0 MSTORE PUSH1 0x9 PUSH1 0x20 MSTORE DUP1 PUSH0 KECCAK256 PUSH1 0x1 PUSH1 0xFF NOT DUP3 SLOAD AND OR SWAP1 SSTORE MLOAD PUSH2 0x21BF SWAP1 DUP2 PUSH3 0x1AE DUP3 CODECOPY PUSH1 0x80 MLOAD DUP2 DUP2 DUP2 PUSH2 0x1AF ADD MSTORE DUP2 DUP2 PUSH2 0x772 ADD MSTORE PUSH2 0x17CD ADD MSTORE PUSH1 0xA0 MLOAD DUP2 DUP2 DUP2 PUSH2 0x1AB1 ADD MSTORE PUSH2 0x1DC2 ADD MSTORE RETURN JUMPDEST DUP3 MLOAD PUSH3 0x461BCD PUSH1 0xE5 SHL DUP2 MSTORE PUSH1 0x20 PUSH1 0x4 DUP3 ADD MSTORE PUSH1 0x1A PUSH1 0x24 DUP3 ADD MSTORE PUSH32 0x496E76616C696420707269636520666565642061646472657373000000000000 PUSH1 0x44 DUP3 ADD MSTORE PUSH1 0x64 SWAP1 REVERT JUMPDEST DUP4 MLOAD PUSH3 0x461BCD PUSH1 0xE5 SHL DUP2 MSTORE PUSH1 0x20 PUSH1 0x4 DUP3 ADD MSTORE PUSH1 0x1E PUSH1 0x24 DUP3 ADD MSTORE PUSH32 0x496E76616C696420706C6174666F726D2066656520726563697069656E740000 PUSH1 0x44 DUP3 ADD MSTORE PUSH1 0x64 SWAP1 REVERT JUMPDEST PUSH0 DUP1 REVERT JUMPDEST PUSH4 0x4E487B71 PUSH1 0xE0 SHL PUSH0 MSTORE PUSH1 0x41 PUSH1 0x4 MSTORE PUSH1 0x24 PUSH0 REVERT JUMPDEST MLOAD SWAP1 PUSH1 0x1 PUSH1 0x1 PUSH1 0xA0 SHL SUB DUP3 AND DUP3 SUB PUSH3 0x180 JUMPI JUMP INVALID PUSH1 0x80 PUSH1 0x40 MSTORE PUSH1 0x4 CALLDATASIZE LT ISZERO PUSH2 0x1A JUMPI JUMPDEST CALLDATASIZE ISZERO PUSH2 0x18 JUMPI PUSH0 DUP1 REVERT JUMPDEST STOP JUMPDEST PUSH0 CALLDATALOAD PUSH1 0xE0 SHR DUP1 PUSH4 0x595F181 EQ PUSH2 0x1AE0 JUMPI DUP1 PUSH4 0xC545855 EQ PUSH2 0x1A9C JUMPI DUP1 PUSH4 0xE50CEE5 EQ PUSH2 0x1A5F JUMPI DUP1 PUSH4 0x163F7522 EQ PUSH2 0x1A5F JUMPI DUP1 PUSH4 0x2D56657D EQ PUSH2 0x1973 JUMPI DUP1 PUSH4 0x3BA693C5 EQ PUSH2 0x192F JUMPI DUP1 PUSH4 0x3C068532 EQ PUSH2 0x18FE JUMPI DUP1 PUSH4 0x4D3820EB EQ PUSH2 0x1781 JUMPI DUP1 PUSH4 0x57BDE446 EQ PUSH2 0x15F3 JUMPI DUP1 PUSH4 0x677BD9FF EQ PUSH2 0x1265 JUMPI DUP1 PUSH4 0x71700093 EQ PUSH2 0x124B JUMPI DUP1 PUSH4 0x76E00406 EQ PUSH2 0xBC0 JUMPI DUP1 PUSH4 0x8068AA68 EQ PUSH2 0xB33 JUMPI DUP1 PUSH4 0x8DA5CB5B EQ PUSH2 0xB0B JUMPI DUP1 PUSH4 0x980D5D59 EQ PUSH2 0xA7D JUMPI DUP1 PUSH4 0x9ED9C74D EQ PUSH2 0x693 JUMPI DUP1 PUSH4 0xA85C1884 EQ PUSH2 0x671 JUMPI DUP1 PUSH4 0xB06C1BA3 EQ PUSH2 0x434 JUMPI DUP1 PUSH4 0xB1283E77 EQ PUSH2 0x326 JUMPI DUP1 PUSH4 0xB73BF456 EQ PUSH2 0x2F9 JUMPI DUP1 PUSH4 0xC97D66E9 EQ PUSH2 0x26B JUMPI DUP1 PUSH4 0xD64ADC68 EQ PUSH2 0x250 JUMPI DUP1 PUSH4 0xD670E926 EQ PUSH2 0x233 JUMPI DUP1 PUSH4 0xD782B543 EQ PUSH2 0x216 JUMPI DUP1 PUSH4 0xDE7ADF6E EQ PUSH2 0x1FA JUMPI DUP1 PUSH4 0xE1F1C4A7 EQ PUSH2 0x1DE JUMPI DUP1 PUSH4 0xEB13554F EQ PUSH2 0x19A JUMPI DUP1 PUSH4 0xEC979082 EQ PUSH2 0x17D JUMPI PUSH4 0xFA968EEA SUB PUSH2 0xE JUMPI CALLVALUE PUSH2 0x179 JUMPI PUSH0 CALLDATASIZE PUSH1 0x3 NOT ADD SLT PUSH2 0x179 JUMPI PUSH1 0x20 PUSH0 SLOAD PUSH1 0x40 MLOAD SWAP1 DUP2 MSTORE RETURN JUMPDEST PUSH0 DUP1 REVERT JUMPDEST CALLVALUE PUSH2 0x179 JUMPI PUSH0 CALLDATASIZE PUSH1 0x3 NOT ADD SLT PUSH2 0x179 JUMPI PUSH1 0x20 PUSH1 0x3 SLOAD PUSH1 0x40 MLOAD SWAP1 DUP2 MSTORE RETURN JUMPDEST CALLVALUE PUSH2 0x179 JUMPI PUSH0 CALLDATASIZE PUSH1 0x3 NOT ADD SLT PUSH2 0x179 JUMPI PUSH1 0x40 MLOAD PUSH32 0x0 PUSH1 0x1 PUSH1 0x1 PUSH1 0xA0 SHL SUB AND DUP2 MSTORE PUSH1 0x20 SWAP1 RETURN JUMPDEST CALLVALUE PUSH2 0x179 JUMPI PUSH0 CALLDATASIZE PUSH1 0x3 NOT ADD SLT PUSH2 0x179 JUMPI PUSH1 0x20 PUSH1 0x40 MLOAD PUSH2 0x2710 DUP2 MSTORE RETURN JUMPDEST CALLVALUE PUSH2 0x179 JUMPI PUSH0 CALLDATASIZE PUSH1 0x3 NOT ADD SLT PUSH2 0x179 JUMPI PUSH1 0x20 PUSH1 0x40 MLOAD PUSH2 0x3E8 DUP2 MSTORE RETURN JUMPDEST CALLVALUE PUSH2 0x179 JUMPI PUSH0 CALLDATASIZE PUSH1 0x3 NOT ADD SLT PUSH2 0x179 JUMPI PUSH1 0x20 PUSH1 0x1 SLOAD PUSH1 0x40 MLOAD SWAP1 DUP2 MSTORE RETURN JUMPDEST CALLVALUE PUSH2 0x179 JUMPI PUSH0 CALLDATASIZE PUSH1 0x3 NOT ADD SLT PUSH2 0x179 JUMPI PUSH1 0x20 PUSH1 0x2 SLOAD PUSH1 0x40 MLOAD SWAP1 DUP2 MSTORE RETURN JUMPDEST CALLVALUE PUSH2 0x179 JUMPI PUSH0 CALLDATASIZE PUSH1 0x3 NOT ADD SLT PUSH2 0x179 JUMPI PUSH1 0x20 PUSH1 0x40 MLOAD PUSH1 0xC8 DUP2 MSTORE RETURN JUMPDEST CALLVALUE PUSH2 0x179 JUMPI PUSH1 0x20 CALLDATASIZE PUSH1 0x3 NOT ADD SLT PUSH2 0x179 JUMPI PUSH1 0x4 CALLDATALOAD PUSH2 0x294 PUSH1 0x1 DUP1 PUSH1 0xA0 SHL SUB PUSH1 0x4 SLOAD AND CALLER EQ PUSH2 0x20A0 JUMP JUMPDEST PUSH1 0x1 DUP2 LT ISZERO DUP1 PUSH2 0x2EE JUMPI JUMPDEST ISZERO PUSH2 0x2A9 JUMPI PUSH1 0x2 SSTORE STOP JUMPDEST PUSH1 0x40 MLOAD PUSH3 0x461BCD PUSH1 0xE5 SHL DUP2 MSTORE PUSH1 0x20 PUSH1 0x4 DUP3 ADD MSTORE PUSH1 0x1F PUSH1 0x24 DUP3 ADD MSTORE PUSH32 0x466565206D757374206265206265747765656E20243120616E64202431303000 PUSH1 0x44 DUP3 ADD MSTORE PUSH1 0x64 SWAP1 REVERT JUMPDEST POP PUSH1 0x64 DUP2 GT ISZERO PUSH2 0x29F JUMP JUMPDEST CALLVALUE PUSH2 0x179 JUMPI PUSH1 0x20 CALLDATASIZE PUSH1 0x3 NOT ADD SLT PUSH2 0x179 JUMPI PUSH2 0x31F PUSH1 0x1 DUP1 PUSH1 0xA0 SHL SUB PUSH1 0x4 SLOAD AND CALLER EQ PUSH2 0x20A0 JUMP JUMPDEST PUSH1 0x4 CALLDATALOAD PUSH0 SSTORE STOP JUMPDEST CALLVALUE PUSH2 0x179 JUMPI PUSH1 0x20 CALLDATASIZE PUSH1 0x3 NOT ADD SLT PUSH2 0x179 JUMPI PUSH1 0x4 CALLDATALOAD PUSH0 MSTORE PUSH1 0x5 PUSH1 0x20 MSTORE PUSH1 0x40 PUSH0 KECCAK256 DUP1 SLOAD PUSH2 0x353 PUSH1 0x1 DUP4 ADD PUSH2 0x1CB9 JUMP JUMPDEST SWAP2 PUSH2 0x360 PUSH1 0x2 DUP3 ADD PUSH2 0x1CB9 JUMP JUMPDEST PUSH2 0x36C PUSH1 0x3 DUP4 ADD PUSH2 0x1CB9 JUMP JUMPDEST SWAP2 PUSH1 0x4 DUP2 ADD SLOAD SWAP3 PUSH1 0x5 DUP3 ADD SLOAD PUSH1 0x6 DUP4 ADD SLOAD PUSH1 0x7 DUP5 ADD SLOAD SWAP1 PUSH1 0x8 DUP6 ADD SLOAD SWAP3 PUSH2 0x3DA PUSH1 0x9 DUP8 ADD SLOAD SWAP6 PUSH2 0x3CC PUSH1 0xB PUSH1 0xA DUP11 ADD SLOAD SWAP10 ADD SLOAD SWAP10 PUSH2 0x3BE PUSH1 0x40 MLOAD SWAP15 DUP16 SWAP15 DUP16 SWAP1 DUP2 MSTORE PUSH2 0x1C0 SWAP1 DUP2 PUSH1 0x20 DUP3 ADD MSTORE ADD SWAP1 PUSH2 0x1C43 JUMP JUMPDEST DUP14 DUP2 SUB PUSH1 0x40 DUP16 ADD MSTORE SWAP1 PUSH2 0x1C43 JUMP JUMPDEST SWAP1 DUP12 DUP3 SUB PUSH1 0x60 DUP14 ADD MSTORE PUSH2 0x1C43 JUMP JUMPDEST PUSH1 0x80 DUP11 ADD SWAP9 SWAP1 SWAP9 MSTORE PUSH1 0xA0 DUP10 ADD MSTORE PUSH1 0xC0 DUP9 ADD MSTORE PUSH1 0xE0 DUP8 ADD MSTORE PUSH2 0x100 DUP7 ADD MSTORE PUSH1 0xFF DUP2 DUP2 AND ISZERO ISZERO PUSH2 0x120 DUP8 ADD MSTORE PUSH1 0x8 DUP3 SWAP1 SHR AND ISZERO ISZERO PUSH2 0x140 DUP7 ADD MSTORE PUSH1 0x10 SHR PUSH1 0x1 PUSH1 0x1 PUSH1 0xA0 SHL SUB AND PUSH2 0x160 DUP6 ADD MSTORE PUSH2 0x180 DUP5 ADD MSTORE PUSH2 0x1A0 DUP4 ADD MSTORE SUB SWAP1 RETURN JUMPDEST CALLVALUE PUSH2 0x179 JUMPI PUSH1 0x20 CALLDATASIZE PUSH1 0x3 NOT ADD SLT PUSH2 0x179 JUMPI PUSH0 PUSH2 0x1A0 PUSH1 0x40 MLOAD PUSH2 0x455 DUP2 PUSH2 0x1B59 JUMP JUMPDEST DUP3 DUP2 MSTORE PUSH1 0x60 PUSH1 0x20 DUP3 ADD MSTORE PUSH1 0x60 PUSH1 0x40 DUP3 ADD MSTORE PUSH1 0x60 DUP1 DUP3 ADD MSTORE DUP3 PUSH1 0x80 DUP3 ADD MSTORE DUP3 PUSH1 0xA0 DUP3 ADD MSTORE DUP3 PUSH1 0xC0 DUP3 ADD MSTORE DUP3 PUSH1 0xE0 DUP3 ADD MSTORE DUP3 PUSH2 0x100 DUP3 ADD MSTORE DUP3 PUSH2 0x120 DUP3 ADD MSTORE DUP3 PUSH2 0x140 DUP3 ADD MSTORE DUP3 PUSH2 0x160 DUP3 ADD MSTORE DUP3 PUSH2 0x180 DUP3 ADD MSTORE ADD MSTORE PUSH1 0x4 CALLDATALOAD DUP1 ISZERO ISZERO DUP1 PUSH2 0x665 JUMPI JUMPDEST PUSH2 0x4BE SWAP1 PUSH2 0x1FAD JUMP JUMPDEST PUSH0 MSTORE PUSH1 0x5 PUSH1 0x20 MSTORE PUSH1 0x40 PUSH0 KECCAK256 PUSH1 0xB PUSH1 0x40 MLOAD SWAP2 PUSH2 0x4D8 DUP4 PUSH2 0x1B59 JUMP JUMPDEST DUP1 SLOAD DUP4 MSTORE PUSH2 0x4E8 PUSH1 0x1 DUP3 ADD PUSH2 0x1CB9 JUMP JUMPDEST PUSH1 0x20 DUP5 ADD MSTORE PUSH2 0x4F9 PUSH1 0x2 DUP3 ADD PUSH2 0x1CB9 JUMP JUMPDEST PUSH1 0x40 DUP5 ADD MSTORE PUSH2 0x50A PUSH1 0x3 DUP3 ADD PUSH2 0x1CB9 JUMP JUMPDEST PUSH1 0x60 DUP5 ADD MSTORE PUSH1 0x4 DUP2 ADD SLOAD PUSH1 0x80 DUP5 ADD MSTORE PUSH1 0x5 DUP2 ADD SLOAD PUSH1 0xA0 DUP5 ADD MSTORE PUSH1 0x6 DUP2 ADD SLOAD PUSH1 0xC0 DUP5 ADD MSTORE PUSH1 0x7 DUP2 ADD SLOAD PUSH1 0xE0 DUP5 ADD MSTORE PUSH1 0x8 DUP2 ADD SLOAD PUSH2 0x100 DUP5 ADD MSTORE PUSH1 0x9 DUP2 ADD SLOAD PUSH1 0xFF DUP2 AND ISZERO ISZERO PUSH2 0x120 DUP6 ADD MSTORE PUSH1 0xFF DUP2 PUSH1 0x8 SHR AND ISZERO ISZERO PUSH2 0x140 DUP6 ADD MSTORE PUSH1 0x1 DUP1 PUSH1 0xA0 SHL SUB SWAP1 PUSH1 0x10 SHR AND PUSH2 0x160 DUP5 ADD MSTORE PUSH1 0xA DUP2 ADD SLOAD PUSH2 0x180 DUP5 ADD MSTORE ADD SLOAD PUSH2 0x1A0 DUP3 ADD MSTORE PUSH1 0x40 MLOAD DUP1 SWAP2 PUSH1 0x20 DUP3 MSTORE DUP1 MLOAD PUSH1 0x20 DUP4 ADD MSTORE PUSH2 0x1A0 PUSH2 0x5E9 PUSH2 0x5B8 PUSH1 0x20 DUP5 ADD MLOAD PUSH2 0x1C0 PUSH1 0x40 DUP8 ADD MSTORE PUSH2 0x1E0 DUP7 ADD SWAP1 PUSH2 0x1C43 JUMP JUMPDEST PUSH2 0x5D4 PUSH1 0x40 DUP6 ADD MLOAD SWAP2 PUSH1 0x1F NOT SWAP3 DUP4 DUP9 DUP4 SUB ADD PUSH1 0x60 DUP10 ADD MSTORE PUSH2 0x1C43 JUMP JUMPDEST SWAP1 PUSH1 0x60 DUP6 ADD MLOAD SWAP1 DUP7 DUP4 SUB ADD PUSH1 0x80 DUP8 ADD MSTORE PUSH2 0x1C43 JUMP JUMPDEST SWAP2 PUSH1 0x80 DUP2 ADD MLOAD PUSH1 0xA0 DUP6 ADD MSTORE PUSH1 0xA0 DUP2 ADD MLOAD PUSH1 0xC0 DUP6 ADD MSTORE PUSH1 0xC0 DUP2 ADD MLOAD PUSH1 0xE0 DUP6 ADD MSTORE PUSH1 0xE0 DUP2 ADD MLOAD PUSH2 0x100 DUP6 ADD MSTORE PUSH2 0x100 DUP2 ADD MLOAD PUSH2 0x120 DUP6 ADD MSTORE PUSH2 0x120 DUP2 ADD MLOAD ISZERO ISZERO PUSH2 0x140 DUP6 ADD MSTORE PUSH2 0x140 DUP2 ADD MLOAD ISZERO ISZERO PUSH2 0x160 DUP6 ADD MSTORE PUSH1 0x1 DUP1 PUSH1 0xA0 SHL SUB PUSH2 0x160 DUP3 ADD MLOAD AND PUSH2 0x180 DUP6 ADD MSTORE PUSH2 0x180 DUP2 ADD MLOAD DUP3 DUP6 ADD MSTORE ADD MLOAD PUSH2 0x1C0 DUP4 ADD MSTORE SUB SWAP1 RETURN JUMPDEST POP PUSH1 0x3 SLOAD DUP2 GT ISZERO PUSH2 0x4B5 JUMP JUMPDEST CALLVALUE PUSH2 0x179 JUMPI PUSH0 CALLDATASIZE PUSH1 0x3 NOT ADD SLT PUSH2 0x179 JUMPI PUSH1 0x20 PUSH2 0x68B PUSH2 0x1F1E JUMP JUMPDEST PUSH1 0x40 MLOAD SWAP1 DUP2 MSTORE RETURN JUMPDEST PUSH2 0x69C CALLDATASIZE PUSH2 0x1B3A JUMP JUMPDEST SWAP1 CALLER PUSH0 MSTORE PUSH1 0x20 SWAP1 PUSH1 0x9 DUP3 MSTORE PUSH2 0x6B7 PUSH1 0xFF PUSH1 0x40 PUSH0 KECCAK256 SLOAD AND PUSH2 0x1F53 JUMP JUMPDEST DUP1 ISZERO ISZERO DUP1 PUSH2 0xA71 JUMPI JUMPDEST PUSH2 0x6C9 SWAP1 PUSH2 0x1FAD JUMP JUMPDEST DUP1 PUSH0 MSTORE PUSH1 0x5 DUP3 MSTORE PUSH2 0x6E4 PUSH1 0xFF PUSH1 0x9 PUSH1 0x40 PUSH0 KECCAK256 ADD SLOAD AND ISZERO PUSH2 0x1FF1 JUMP JUMPDEST DUP1 PUSH0 MSTORE PUSH1 0x5 DUP3 MSTORE PUSH1 0x4 PUSH1 0x40 PUSH0 KECCAK256 ADD SLOAD TIMESTAMP LT ISZERO PUSH2 0xA33 JUMPI PUSH0 SLOAD CALLVALUE LT PUSH2 0x9F9 JUMPI DUP1 PUSH0 MSTORE PUSH1 0x7 DUP3 MSTORE PUSH1 0x40 PUSH0 KECCAK256 CALLER PUSH0 MSTORE DUP3 MSTORE PUSH1 0x2 PUSH1 0x40 PUSH0 KECCAK256 ADD SLOAD PUSH2 0x9B4 JUMPI DUP1 PUSH0 MSTORE PUSH1 0x5 DUP3 MSTORE PUSH1 0x40 PUSH0 KECCAK256 PUSH2 0x3E8 SWAP2 DUP3 CALLVALUE MUL CALLVALUE ISZERO SWAP4 CALLVALUE DUP3 DIV EQ DUP5 OR ISZERO PUSH2 0x9A0 JUMPI PUSH2 0x2710 DUP1 SWAP2 DIV SWAP4 PUSH1 0xC8 CALLVALUE MUL SWAP1 CALLVALUE DUP3 DIV PUSH1 0xC8 EQ OR ISZERO PUSH2 0x9A0 JUMPI DIV SWAP2 PUSH2 0x76B DUP4 PUSH2 0x766 DUP7 CALLVALUE PUSH2 0x1DA0 JUMP JUMPDEST PUSH2 0x1DA0 JUMP JUMPDEST PUSH0 DUP1 DUP1 DUP1 DUP9 PUSH32 0x0 PUSH1 0x1 PUSH1 0x1 PUSH1 0xA0 SHL SUB AND GAS CALL PUSH2 0x7A4 PUSH2 0x1D5A JUMP JUMPDEST POP ISZERO PUSH2 0x95B JUMPI SWAP1 PUSH1 0x8 SWAP2 PUSH1 0xB DUP3 ADD PUSH2 0x7BD DUP7 DUP3 SLOAD PUSH2 0x203D JUMP JUMPDEST SWAP1 SSTORE DUP8 ISZERO PUSH2 0x925 JUMPI PUSH1 0x5 DUP3 ADD PUSH2 0x7D4 DUP3 DUP3 SLOAD PUSH2 0x203D JUMP JUMPDEST SWAP1 SSTORE DUP4 PUSH0 MSTORE DUP3 DUP8 MSTORE PUSH1 0x40 PUSH0 KECCAK256 PUSH1 0x1 PUSH0 MSTORE DUP8 MSTORE PUSH1 0x40 PUSH0 KECCAK256 PUSH2 0x7F5 DUP3 DUP3 SLOAD PUSH2 0x203D JUMP JUMPDEST SWAP1 SSTORE JUMPDEST PUSH2 0x807 PUSH1 0x7 DUP4 ADD SWAP2 DUP3 SLOAD PUSH2 0x203D JUMP JUMPDEST SWAP1 SSTORE ADD PUSH2 0x814 DUP2 SLOAD PUSH2 0x1F9F JUMP JUMPDEST SWAP1 SSTORE PUSH1 0x40 MLOAD SWAP5 PUSH2 0x823 DUP7 PUSH2 0x1B76 JUMP JUMPDEST DUP2 DUP7 MSTORE ISZERO ISZERO SWAP2 DUP3 DUP6 DUP8 ADD MSTORE CALLVALUE PUSH1 0x40 DUP8 ADD MSTORE TIMESTAMP PUSH1 0x60 DUP8 ADD MSTORE PUSH0 PUSH1 0x80 DUP8 ADD MSTORE CALLER PUSH0 MSTORE PUSH1 0x6 DUP6 MSTORE PUSH1 0x40 PUSH0 KECCAK256 DUP1 SLOAD PUSH9 0x10000000000000000 DUP2 LT ISZERO PUSH2 0x911 JUMPI PUSH2 0x86D SWAP2 PUSH1 0x1 DUP3 ADD DUP2 SSTORE PUSH2 0x1C16 JUMP JUMPDEST PUSH2 0x8FE JUMPI DUP7 PUSH2 0x8A0 PUSH32 0x1E78DB4C4EE9CA4946FB3EE60599D1E0258A8B22E183510241FF770AB6332BAF SWAP9 PUSH2 0x8B9 SWAP4 PUSH2 0x204A JUMP JUMPDEST DUP4 PUSH0 MSTORE PUSH1 0x7 DUP8 MSTORE PUSH1 0x40 PUSH0 KECCAK256 CALLER PUSH0 MSTORE DUP8 MSTORE PUSH1 0x40 PUSH0 KECCAK256 PUSH2 0x204A JUMP JUMPDEST PUSH1 0x40 MLOAD SWAP3 DUP4 MSTORE CALLVALUE DUP6 DUP5 ADD MSTORE DUP4 PUSH1 0x40 DUP5 ADD MSTORE PUSH1 0x60 DUP4 ADD MSTORE PUSH32 0x1FAF624C13819091A75AA5ABEE6C43A2226DA9B9475E62BDFC87BEF2889B5096 PUSH1 0x80 CALLER SWAP4 LOG3 PUSH1 0x40 MLOAD SWAP1 DUP2 MSTORE LOG1 STOP JUMPDEST PUSH4 0x4E487B71 PUSH1 0xE0 SHL PUSH0 MSTORE PUSH0 PUSH1 0x4 MSTORE PUSH1 0x24 PUSH0 REVERT JUMPDEST PUSH4 0x4E487B71 PUSH1 0xE0 SHL PUSH0 MSTORE PUSH1 0x41 PUSH1 0x4 MSTORE PUSH1 0x24 PUSH0 REVERT JUMPDEST PUSH1 0x6 DUP3 ADD PUSH2 0x934 DUP3 DUP3 SLOAD PUSH2 0x203D JUMP JUMPDEST SWAP1 SSTORE DUP4 PUSH0 MSTORE DUP3 DUP8 MSTORE PUSH1 0x40 PUSH0 KECCAK256 PUSH0 DUP1 MSTORE DUP8 MSTORE PUSH1 0x40 PUSH0 KECCAK256 PUSH2 0x954 DUP3 DUP3 SLOAD PUSH2 0x203D JUMP JUMPDEST SWAP1 SSTORE PUSH2 0x7F8 JUMP JUMPDEST PUSH1 0x40 MLOAD PUSH3 0x461BCD PUSH1 0xE5 SHL DUP2 MSTORE PUSH1 0x4 DUP2 ADD DUP8 SWAP1 MSTORE PUSH1 0x1B PUSH1 0x24 DUP3 ADD MSTORE PUSH32 0x4661696C656420746F2073656E6420706C6174666F726D206665650000000000 PUSH1 0x44 DUP3 ADD MSTORE PUSH1 0x64 SWAP1 REVERT JUMPDEST PUSH4 0x4E487B71 PUSH1 0xE0 SHL PUSH0 MSTORE PUSH1 0x11 PUSH1 0x4 MSTORE PUSH1 0x24 PUSH0 REVERT JUMPDEST PUSH1 0x40 MLOAD PUSH3 0x461BCD PUSH1 0xE5 SHL DUP2 MSTORE PUSH1 0x4 DUP2 ADD DUP4 SWAP1 MSTORE PUSH1 0x1A PUSH1 0x24 DUP3 ADD MSTORE PUSH32 0x416C726561647920626574206F6E2074686973206D61726B6574000000000000 PUSH1 0x44 DUP3 ADD MSTORE PUSH1 0x64 SWAP1 REVERT JUMPDEST PUSH1 0x40 MLOAD PUSH3 0x461BCD PUSH1 0xE5 SHL DUP2 MSTORE PUSH1 0x4 DUP2 ADD DUP4 SWAP1 MSTORE PUSH1 0x12 PUSH1 0x24 DUP3 ADD MSTORE PUSH18 0x42657420616D6F756E7420746F6F206C6F77 PUSH1 0x70 SHL PUSH1 0x44 DUP3 ADD MSTORE PUSH1 0x64 SWAP1 REVERT JUMPDEST PUSH1 0x40 MLOAD PUSH3 0x461BCD PUSH1 0xE5 SHL DUP2 MSTORE PUSH1 0x4 DUP2 ADD DUP4 SWAP1 MSTORE PUSH1 0x16 PUSH1 0x24 DUP3 ADD MSTORE PUSH22 0x13585C9AD95D08191958591B1A5B99481C185CDCD959 PUSH1 0x52 SHL PUSH1 0x44 DUP3 ADD MSTORE PUSH1 0x64 SWAP1 REVERT JUMPDEST POP PUSH1 0x3 SLOAD DUP2 GT ISZERO PUSH2 0x6C0 JUMP JUMPDEST CALLVALUE PUSH2 0x179 JUMPI PUSH1 0x40 CALLDATASIZE PUSH1 0x3 NOT ADD SLT PUSH2 0x179 JUMPI PUSH2 0xA96 PUSH2 0x1B24 JUMP JUMPDEST PUSH1 0x4 CALLDATALOAD PUSH0 MSTORE PUSH1 0x7 PUSH1 0x20 MSTORE PUSH1 0x40 PUSH0 KECCAK256 SWAP1 PUSH1 0x1 DUP1 PUSH1 0xA0 SHL SUB AND PUSH0 MSTORE PUSH1 0x20 MSTORE PUSH1 0x40 PUSH0 KECCAK256 DUP1 SLOAD PUSH2 0xB07 PUSH1 0xFF PUSH1 0x1 DUP5 ADD SLOAD AND SWAP3 PUSH1 0x2 DUP2 ADD SLOAD SWAP1 PUSH1 0xFF PUSH1 0x4 PUSH1 0x3 DUP4 ADD SLOAD SWAP3 ADD SLOAD AND SWAP2 PUSH1 0x40 MLOAD SWAP6 DUP7 SWAP6 DUP7 SWAP4 SWAP1 SWAP6 SWAP5 SWAP2 SWAP3 PUSH1 0x80 SWAP4 PUSH1 0xA0 DUP7 ADD SWAP8 DUP7 MSTORE ISZERO ISZERO PUSH1 0x20 DUP7 ADD MSTORE PUSH1 0x40 DUP6 ADD MSTORE PUSH1 0x60 DUP5 ADD MSTORE ISZERO ISZERO SWAP2 ADD MSTORE JUMP JUMPDEST SUB SWAP1 RETURN JUMPDEST CALLVALUE PUSH2 0x179 JUMPI PUSH0 CALLDATASIZE PUSH1 0x3 NOT ADD SLT PUSH2 0x179 JUMPI PUSH1 0x4 SLOAD PUSH1 0x40 MLOAD PUSH1 0x1 PUSH1 0x1 PUSH1 0xA0 SHL SUB SWAP1 SWAP2 AND DUP2 MSTORE PUSH1 0x20 SWAP1 RETURN JUMPDEST CALLVALUE PUSH2 0x179 JUMPI PUSH1 0x40 CALLDATASIZE PUSH1 0x3 NOT ADD SLT PUSH2 0x179 JUMPI PUSH2 0xB4C PUSH2 0x1B0E JUMP JUMPDEST PUSH1 0x1 PUSH1 0x1 PUSH1 0xA0 SHL SUB AND PUSH0 SWAP1 DUP2 MSTORE PUSH1 0x6 PUSH1 0x20 MSTORE PUSH1 0x40 SWAP1 KECCAK256 DUP1 SLOAD PUSH1 0x24 CALLDATALOAD SWAP1 DUP2 LT ISZERO PUSH2 0x179 JUMPI PUSH2 0xB78 SWAP2 PUSH2 0x1C16 JUMP JUMPDEST POP DUP1 SLOAD PUSH1 0x1 DUP3 ADD SLOAD PUSH1 0x2 DUP4 ADD SLOAD PUSH1 0x3 DUP5 ADD SLOAD PUSH1 0x4 SWAP1 SWAP5 ADD SLOAD PUSH1 0x40 DUP1 MLOAD SWAP5 DUP6 MSTORE PUSH1 0xFF SWAP4 DUP5 AND ISZERO ISZERO PUSH1 0x20 DUP7 ADD MSTORE DUP5 ADD SWAP2 SWAP1 SWAP2 MSTORE PUSH1 0x60 DUP4 ADD SWAP4 SWAP1 SWAP4 MSTORE SWAP1 SWAP2 AND ISZERO ISZERO PUSH1 0x80 DUP3 ADD MSTORE PUSH1 0xA0 SWAP1 RETURN JUMPDEST PUSH1 0x80 CALLDATASIZE PUSH1 0x3 NOT ADD SLT PUSH2 0x179 JUMPI PUSH1 0x4 CALLDATALOAD PUSH8 0xFFFFFFFFFFFFFFFF DUP2 GT PUSH2 0x179 JUMPI PUSH2 0xBEC SWAP1 CALLDATASIZE SWAP1 PUSH1 0x4 ADD PUSH2 0x1BD0 JUMP JUMPDEST PUSH1 0x24 CALLDATALOAD PUSH8 0xFFFFFFFFFFFFFFFF DUP2 GT PUSH2 0x179 JUMPI PUSH2 0xC0C SWAP1 CALLDATASIZE SWAP1 PUSH1 0x4 ADD PUSH2 0x1BD0 JUMP JUMPDEST SWAP1 PUSH1 0x44 CALLDATALOAD PUSH8 0xFFFFFFFFFFFFFFFF DUP2 GT PUSH2 0x179 JUMPI PUSH2 0xC2D SWAP1 CALLDATASIZE SWAP1 PUSH1 0x4 ADD PUSH2 0x1BD0 JUMP JUMPDEST SWAP1 CALLER PUSH0 MSTORE PUSH1 0x9 PUSH1 0x20 MSTORE PUSH2 0xC46 PUSH1 0xFF PUSH1 0x40 PUSH0 KECCAK256 SLOAD AND PUSH2 0x1F53 JUMP JUMPDEST PUSH1 0x1 SLOAD CALLVALUE SUB PUSH2 0x1206 JUMPI TIMESTAMP PUSH1 0x64 CALLDATALOAD GT ISZERO PUSH2 0x11C1 JUMPI PUSH1 0xA DUP2 MLOAD LT PUSH2 0x118A JUMPI PUSH1 0x32 DUP4 MLOAD LT PUSH2 0x114D JUMPI PUSH2 0xC76 PUSH1 0x3 SLOAD PUSH2 0x1F9F JUMP JUMPDEST SWAP2 DUP3 PUSH1 0x3 SSTORE PUSH1 0x40 MLOAD SWAP4 PUSH2 0xC88 DUP6 PUSH2 0x1B59 JUMP JUMPDEST DUP4 DUP6 MSTORE DUP3 PUSH1 0x20 DUP7 ADD MSTORE PUSH1 0x40 DUP6 ADD MSTORE PUSH1 0x60 DUP5 ADD MSTORE PUSH1 0x64 CALLDATALOAD PUSH1 0x80 DUP5 ADD MSTORE PUSH0 PUSH1 0xA0 DUP5 ADD MSTORE PUSH0 PUSH1 0xC0 DUP5 ADD MSTORE PUSH0 PUSH1 0xE0 DUP5 ADD MSTORE PUSH0 PUSH2 0x100 DUP5 ADD MSTORE PUSH0 PUSH2 0x120 DUP5 ADD MSTORE PUSH0 PUSH2 0x140 DUP5 ADD MSTORE CALLER PUSH2 0x160 DUP5 ADD MSTORE CALLVALUE PUSH2 0x180 DUP5 ADD MSTORE PUSH0 PUSH2 0x1A0 DUP5 ADD MSTORE DUP2 PUSH0 MSTORE PUSH1 0x5 PUSH1 0x20 MSTORE PUSH1 0x40 PUSH0 KECCAK256 DUP4 MLOAD DUP2 SSTORE PUSH1 0x20 DUP5 ADD MLOAD DUP1 MLOAD SWAP1 PUSH8 0xFFFFFFFFFFFFFFFF DUP3 GT PUSH2 0x911 JUMPI DUP2 SWAP1 PUSH2 0xD15 PUSH1 0x1 DUP6 ADD SLOAD PUSH2 0x1C81 JUMP JUMPDEST PUSH1 0x1F DUP2 GT PUSH2 0x10FD JUMPI JUMPDEST POP PUSH1 0x20 SWAP1 PUSH1 0x1F DUP4 GT PUSH1 0x1 EQ PUSH2 0x1092 JUMPI PUSH0 SWAP3 PUSH2 0x1087 JUMPI JUMPDEST POP POP DUP2 PUSH1 0x1 SHL SWAP2 PUSH0 NOT SWAP1 PUSH1 0x3 SHL SHR NOT AND OR PUSH1 0x1 DUP3 ADD SSTORE JUMPDEST PUSH1 0x40 DUP5 ADD MLOAD DUP1 MLOAD SWAP1 PUSH8 0xFFFFFFFFFFFFFFFF DUP3 GT PUSH2 0x911 JUMPI DUP2 SWAP1 PUSH2 0xD71 PUSH1 0x2 DUP6 ADD SLOAD PUSH2 0x1C81 JUMP JUMPDEST PUSH1 0x1F DUP2 GT PUSH2 0x1037 JUMPI JUMPDEST POP PUSH1 0x20 SWAP1 PUSH1 0x1F DUP4 GT PUSH1 0x1 EQ PUSH2 0xFCC JUMPI PUSH0 SWAP3 PUSH2 0xFC1 JUMPI JUMPDEST POP POP DUP2 PUSH1 0x1 SHL SWAP2 PUSH0 NOT SWAP1 PUSH1 0x3 SHL SHR NOT AND OR PUSH1 0x2 DUP3 ADD SSTORE JUMPDEST PUSH1 0x60 DUP5 ADD MLOAD SWAP4 DUP5 MLOAD PUSH8 0xFFFFFFFFFFFFFFFF DUP2 GT PUSH2 0x911 JUMPI PUSH2 0xDCB PUSH1 0x3 DUP5 ADD SLOAD PUSH2 0x1C81 JUMP JUMPDEST SWAP6 PUSH1 0x1F DUP8 GT PUSH2 0xF7D JUMPI JUMPDEST PUSH1 0x20 SWAP7 POP DUP7 SWAP1 PUSH1 0x1F DUP4 GT PUSH1 0x1 EQ PUSH2 0xF0D JUMPI SWAP2 DUP1 PUSH1 0xB SWAP5 SWAP3 PUSH2 0x1A0 SWAP5 PUSH0 SWAP3 PUSH2 0xF02 JUMPI JUMPDEST POP POP DUP2 PUSH1 0x1 SHL SWAP2 PUSH0 NOT SWAP1 PUSH1 0x3 SHL SHR NOT AND OR PUSH1 0x3 DUP6 ADD SSTORE JUMPDEST PUSH1 0x80 DUP2 ADD MLOAD PUSH1 0x4 DUP6 ADD SSTORE PUSH1 0xA0 DUP2 ADD MLOAD PUSH1 0x5 DUP6 ADD SSTORE PUSH1 0xC0 DUP2 ADD MLOAD PUSH1 0x6 DUP6 ADD SSTORE PUSH1 0xE0 DUP2 ADD MLOAD PUSH1 0x7 DUP6 ADD SSTORE PUSH2 0x100 DUP2 ADD MLOAD PUSH1 0x8 DUP6 ADD SSTORE PUSH1 0x9 DUP5 ADD PUSH2 0xE62 PUSH2 0x120 DUP4 ADD MLOAD ISZERO ISZERO DUP3 SWAP1 PUSH1 0xFF DUP1 NOT DUP4 SLOAD AND SWAP2 ISZERO ISZERO AND OR SWAP1 SSTORE JUMP JUMPDEST PUSH2 0x140 DUP3 ADD MLOAD DUP2 SLOAD PUSH2 0xFF00 NOT AND SWAP1 ISZERO ISZERO PUSH1 0x8 SHL PUSH2 0xFF00 AND OR DUP2 SSTORE PUSH2 0x160 DUP3 ADD MLOAD DUP2 SLOAD PUSH3 0x10000 PUSH1 0x1 PUSH1 0xB0 SHL SUB NOT AND PUSH1 0x10 SWAP2 SWAP1 SWAP2 SHL PUSH3 0x10000 PUSH1 0x1 PUSH1 0xB0 SHL SUB AND OR SWAP1 SSTORE PUSH2 0x180 DUP2 ADD MLOAD PUSH1 0xA DUP6 ADD SSTORE ADD MLOAD SWAP2 ADD SSTORE PUSH1 0x40 DUP1 MLOAD DUP2 DUP2 MSTORE SWAP2 DUP4 SWAP2 PUSH32 0x3E783E31593F59FDA73A59D05E2525D610A533995CCE4D4750186C3B6BF80BB SWAP2 PUSH2 0xEEC SWAP2 DUP6 ADD SWAP1 PUSH2 0x1C43 JUMP JUMPDEST SWAP3 PUSH1 0x64 CALLDATALOAD DUP7 DUP3 ADD MSTORE DUP1 CALLER SWAP5 SUB SWAP1 LOG3 PUSH1 0x40 MLOAD SWAP1 DUP2 MSTORE RETURN JUMPDEST ADD MLOAD SWAP1 POP DUP10 DUP1 PUSH2 0xDF7 JUMP JUMPDEST SWAP1 PUSH1 0x3 DUP6 ADD PUSH0 MSTORE DUP8 PUSH0 KECCAK256 SWAP2 PUSH0 JUMPDEST PUSH1 0x1F NOT DUP6 AND DUP2 LT PUSH2 0xF66 JUMPI POP SWAP3 PUSH1 0xB SWAP5 SWAP3 PUSH1 0x1 SWAP3 PUSH2 0x1A0 SWAP6 DUP4 PUSH1 0x1F NOT DUP2 AND LT PUSH2 0xF4E JUMPI JUMPDEST POP POP POP DUP2 SHL ADD PUSH1 0x3 DUP6 ADD SSTORE PUSH2 0xE0E JUMP JUMPDEST ADD MLOAD PUSH0 NOT PUSH1 0xF8 DUP5 PUSH1 0x3 SHL AND SHR NOT AND SWAP1 SSTORE DUP10 DUP1 DUP1 PUSH2 0xF3E JUMP JUMPDEST SWAP2 SWAP3 DUP10 PUSH1 0x1 DUP2 SWAP3 DUP7 DUP6 ADD MLOAD DUP2 SSTORE ADD SWAP5 ADD SWAP3 ADD PUSH2 0xF1A JUMP JUMPDEST PUSH1 0x3 DUP5 ADD PUSH0 MSTORE PUSH1 0x20 PUSH0 KECCAK256 PUSH1 0x1F DUP4 ADD PUSH1 0x5 SHR DUP2 ADD PUSH1 0x20 DUP5 LT PUSH2 0xFBA JUMPI JUMPDEST PUSH1 0x1F DUP10 ADD PUSH1 0x5 SHR DUP3 ADD DUP2 LT PUSH2 0xFAF JUMPI POP POP PUSH2 0xDD5 JUMP JUMPDEST PUSH0 DUP2 SSTORE PUSH1 0x1 ADD PUSH2 0xF99 JUMP JUMPDEST POP DUP1 PUSH2 0xF99 JUMP JUMPDEST ADD MLOAD SWAP1 POP DUP7 DUP1 PUSH2 0xD90 JUMP JUMPDEST PUSH1 0x2 DUP6 ADD PUSH0 SWAP1 DUP2 MSTORE PUSH1 0x20 DUP2 KECCAK256 SWAP4 POP PUSH1 0x1F NOT DUP6 AND SWAP1 JUMPDEST DUP2 DUP2 LT PUSH2 0x101F JUMPI POP SWAP1 DUP5 PUSH1 0x1 SWAP6 SWAP5 SWAP4 SWAP3 LT PUSH2 0x1007 JUMPI JUMPDEST POP POP POP DUP2 SHL ADD PUSH1 0x2 DUP3 ADD SSTORE PUSH2 0xDA7 JUMP JUMPDEST ADD MLOAD PUSH0 NOT PUSH1 0xF8 DUP5 PUSH1 0x3 SHL AND SHR NOT AND SWAP1 SSTORE DUP7 DUP1 DUP1 PUSH2 0xFF7 JUMP JUMPDEST SWAP3 SWAP4 PUSH1 0x20 PUSH1 0x1 DUP2 SWAP3 DUP8 DUP7 ADD MLOAD DUP2 SSTORE ADD SWAP6 ADD SWAP4 ADD PUSH2 0xFE1 JUMP JUMPDEST SWAP1 SWAP2 POP PUSH1 0x2 DUP5 ADD PUSH0 MSTORE PUSH1 0x20 PUSH0 KECCAK256 PUSH1 0x1F DUP5 ADD PUSH1 0x5 SHR DUP2 ADD PUSH1 0x20 DUP6 LT PUSH2 0x1080 JUMPI JUMPDEST SWAP1 DUP5 SWAP4 SWAP3 SWAP2 JUMPDEST PUSH1 0x1F DUP4 ADD PUSH1 0x5 SHR DUP3 ADD DUP2 LT PUSH2 0x1072 JUMPI POP POP PUSH2 0xD7A JUMP JUMPDEST PUSH0 DUP2 SSTORE DUP6 SWAP5 POP PUSH1 0x1 ADD PUSH2 0x105C JUMP JUMPDEST POP DUP1 PUSH2 0x1056 JUMP JUMPDEST ADD MLOAD SWAP1 POP DUP7 DUP1 PUSH2 0xD34 JUMP JUMPDEST PUSH1 0x1 DUP6 ADD PUSH0 SWAP1 DUP2 MSTORE PUSH1 0x20 DUP2 KECCAK256 SWAP4 POP PUSH1 0x1F NOT DUP6 AND SWAP1 JUMPDEST DUP2 DUP2 LT PUSH2 0x10E5 JUMPI POP SWAP1 DUP5 PUSH1 0x1 SWAP6 SWAP5 SWAP4 SWAP3 LT PUSH2 0x10CD JUMPI JUMPDEST POP POP POP DUP2 SHL ADD PUSH1 0x1 DUP3 ADD SSTORE PUSH2 0xD4B JUMP JUMPDEST ADD MLOAD PUSH0 NOT PUSH1 0xF8 DUP5 PUSH1 0x3 SHL AND SHR NOT AND SWAP1 SSTORE DUP7 DUP1 DUP1 PUSH2 0x10BD JUMP JUMPDEST SWAP3 SWAP4 PUSH1 0x20 PUSH1 0x1 DUP2 SWAP3 DUP8 DUP7 ADD MLOAD DUP2 SSTORE ADD SWAP6 ADD SWAP4 ADD PUSH2 0x10A7 JUMP JUMPDEST SWAP1 SWAP2 POP PUSH1 0x1 DUP5 ADD PUSH0 MSTORE PUSH1 0x20 PUSH0 KECCAK256 PUSH1 0x1F DUP5 ADD PUSH1 0x5 SHR DUP2 ADD PUSH1 0x20 DUP6 LT PUSH2 0x1146 JUMPI JUMPDEST SWAP1 DUP5 SWAP4 SWAP3 SWAP2 JUMPDEST PUSH1 0x1F DUP4 ADD PUSH1 0x5 SHR DUP3 ADD DUP2 LT PUSH2 0x1138 JUMPI POP POP PUSH2 0xD1E JUMP JUMPDEST PUSH0 DUP2 SSTORE DUP6 SWAP5 POP PUSH1 0x1 ADD PUSH2 0x1122 JUMP JUMPDEST POP DUP1 PUSH2 0x111C JUMP JUMPDEST PUSH1 0x40 MLOAD PUSH3 0x461BCD PUSH1 0xE5 SHL DUP2 MSTORE PUSH1 0x20 PUSH1 0x4 DUP3 ADD MSTORE PUSH1 0x15 PUSH1 0x24 DUP3 ADD MSTORE PUSH21 0x11195CD8DC9A5C1D1A5BDB881D1BDBC81CDA1BDC9D PUSH1 0x5A SHL PUSH1 0x44 DUP3 ADD MSTORE PUSH1 0x64 SWAP1 REVERT JUMPDEST PUSH1 0x40 MLOAD PUSH3 0x461BCD PUSH1 0xE5 SHL DUP2 MSTORE PUSH1 0x20 PUSH1 0x4 DUP3 ADD MSTORE PUSH1 0xF PUSH1 0x24 DUP3 ADD MSTORE PUSH15 0x151A5D1B19481D1BDBC81CDA1BDC9D PUSH1 0x8A SHL PUSH1 0x44 DUP3 ADD MSTORE PUSH1 0x64 SWAP1 REVERT JUMPDEST PUSH1 0x40 MLOAD PUSH3 0x461BCD PUSH1 0xE5 SHL DUP2 MSTORE PUSH1 0x20 PUSH1 0x4 DUP3 ADD MSTORE PUSH1 0x1E PUSH1 0x24 DUP3 ADD MSTORE PUSH32 0x446561646C696E65206D75737420626520696E20746865206675747572650000 PUSH1 0x44 DUP3 ADD MSTORE PUSH1 0x64 SWAP1 REVERT JUMPDEST PUSH1 0x40 MLOAD PUSH3 0x461BCD PUSH1 0xE5 SHL DUP2 MSTORE PUSH1 0x20 PUSH1 0x4 DUP3 ADD MSTORE PUSH1 0x1C PUSH1 0x24 DUP3 ADD MSTORE PUSH32 0x4D7573742073656E64206578616374207374616B6520616D6F756E7400000000 PUSH1 0x44 DUP3 ADD MSTORE PUSH1 0x64 SWAP1 REVERT JUMPDEST CALLVALUE PUSH2 0x179 JUMPI PUSH0 CALLDATASIZE PUSH1 0x3 NOT ADD SLT PUSH2 0x179 JUMPI PUSH1 0x20 PUSH2 0x68B PUSH2 0x1DAD JUMP JUMPDEST CALLVALUE PUSH2 0x179 JUMPI PUSH1 0x20 DUP1 PUSH1 0x3 NOT CALLDATASIZE ADD SLT PUSH2 0x179 JUMPI PUSH1 0x4 CALLDATALOAD DUP1 ISZERO ISZERO DUP1 PUSH2 0x15E7 JUMPI JUMPDEST PUSH2 0x128C SWAP1 PUSH2 0x1FAD JUMP JUMPDEST DUP1 PUSH0 MSTORE PUSH1 0x5 DUP3 MSTORE PUSH1 0x40 PUSH0 KECCAK256 SWAP1 PUSH1 0x9 DUP3 ADD SLOAD SWAP1 PUSH1 0xFF DUP3 AND ISZERO PUSH2 0x15A2 JUMPI DUP1 PUSH0 MSTORE PUSH1 0x7 DUP5 MSTORE PUSH1 0x40 PUSH0 KECCAK256 CALLER PUSH0 MSTORE DUP5 MSTORE PUSH1 0x40 PUSH0 KECCAK256 PUSH1 0x2 DUP2 ADD SLOAD SWAP1 DUP2 ISZERO PUSH2 0x156E JUMPI PUSH1 0x4 DUP2 ADD SWAP5 DUP6 SLOAD SWAP5 PUSH1 0xFF DUP7 AND PUSH2 0x1529 JUMPI PUSH1 0x8 SHR PUSH1 0xFF AND DUP1 ISZERO PUSH2 0x151E JUMPI PUSH1 0x5 DUP3 ADD SLOAD SWAP3 JUMPDEST DUP2 ISZERO PUSH2 0x1513 JUMPI PUSH1 0x6 DUP4 ADD SLOAD SWAP5 JUMPDEST PUSH2 0x3E8 DUP2 MUL PUSH2 0x3E7 NOT DUP3 DUP3 DIV ADD PUSH2 0x9A0 JUMPI PUSH1 0xC8 DUP3 MUL DUP3 DUP2 DIV PUSH1 0xC8 SUB PUSH2 0x9A0 JUMPI PUSH2 0x132C SWAP3 PUSH2 0x766 SWAP2 PUSH2 0x2710 DUP1 SWAP2 DIV SWAP4 DIV SWAP1 PUSH2 0x1DA0 JUMP JUMPDEST SWAP4 DUP1 PUSH2 0x14B5 JUMPI POP PUSH1 0x1 ADD SLOAD PUSH1 0xFF AND ISZERO ISZERO SWAP1 ISZERO ISZERO EQ PUSH2 0x1470 JUMPI PUSH2 0x135C SWAP3 SWAP2 PUSH1 0x7 PUSH2 0x1357 SWAP3 ADD SLOAD SWAP1 PUSH2 0x1EED JUMP JUMPDEST PUSH2 0x1F00 JUMP JUMPDEST SWAP2 JUMPDEST PUSH1 0x1 PUSH1 0xFF NOT SWAP2 DUP3 AND DUP2 OR SWAP1 SWAP5 SSTORE PUSH0 DUP5 JUMPDEST PUSH2 0x1400 JUMPI JUMPDEST POP POP PUSH0 DUP1 SWAP4 POP DUP1 SWAP3 DUP2 SWAP3 PUSH1 0x40 MLOAD SWAP1 DUP3 DUP3 MSTORE PUSH32 0x5380CF6FE903B40C6D5A9E0DFBCA2F3A423F0A21520B4D5947ED5169BDBA946D DUP9 CALLER SWAP4 LOG3 CALLER GAS CALL PUSH2 0x13B4 PUSH2 0x1D5A JUMP JUMPDEST POP ISZERO PUSH2 0x13BC JUMPI STOP JUMPDEST PUSH1 0x64 SWAP1 PUSH1 0x40 MLOAD SWAP1 PUSH3 0x461BCD PUSH1 0xE5 SHL DUP3 MSTORE PUSH1 0x4 DUP3 ADD MSTORE PUSH1 0x17 PUSH1 0x24 DUP3 ADD MSTORE PUSH32 0x4661696C656420746F2073656E642077696E6E696E6773000000000000000000 PUSH1 0x44 DUP3 ADD MSTORE REVERT JUMPDEST CALLER PUSH0 MSTORE PUSH1 0x6 DUP1 DUP8 MSTORE PUSH1 0x40 PUSH0 KECCAK256 DUP1 SLOAD DUP4 LT ISZERO PUSH2 0x1469 JUMPI PUSH2 0x1420 DUP4 DUP7 SWAP3 PUSH2 0x1C16 JUMP JUMPDEST POP SLOAD EQ PUSH2 0x1438 JUMPI POP PUSH2 0x1432 DUP6 SWAP2 PUSH2 0x1F9F JUMP JUMPDEST SWAP1 PUSH2 0x136E JUMP JUMPDEST SWAP3 PUSH0 SWAP6 SWAP3 DUP7 SWAP6 SWAP3 SWAP4 PUSH1 0x4 PUSH2 0x1458 DUP9 SWAP8 SWAP7 DUP9 SWAP8 CALLER DUP10 MSTORE DUP13 MSTORE PUSH1 0x40 DUP9 KECCAK256 PUSH2 0x1C16 JUMP JUMPDEST POP ADD SWAP2 DUP3 SLOAD AND OR SWAP1 SSTORE SWAP3 POP SWAP3 PUSH2 0x1373 JUMP JUMPDEST POP POP PUSH2 0x1373 JUMP JUMPDEST PUSH1 0x40 MLOAD PUSH3 0x461BCD PUSH1 0xE5 SHL DUP2 MSTORE PUSH1 0x4 DUP2 ADD DUP9 SWAP1 MSTORE PUSH1 0x18 PUSH1 0x24 DUP3 ADD MSTORE PUSH32 0x4E6F2077696E6E65727320746F20636C61696D2066726F6D0000000000000000 PUSH1 0x44 DUP3 ADD MSTORE PUSH1 0x64 SWAP1 REVERT JUMPDEST SWAP5 POP PUSH1 0x1 PUSH1 0xFF SWAP2 ADD SLOAD AND SWAP1 ISZERO ISZERO SWAP1 ISZERO ISZERO SUB PUSH2 0x14E3 JUMPI PUSH2 0x14DD SWAP3 SWAP2 PUSH1 0x7 PUSH2 0x1357 SWAP3 ADD SLOAD SWAP1 PUSH2 0x1EED JUMP JUMPDEST SWAP2 PUSH2 0x135E JUMP JUMPDEST PUSH1 0x40 MLOAD PUSH3 0x461BCD PUSH1 0xE5 SHL DUP2 MSTORE PUSH1 0x4 DUP2 ADD DUP9 SWAP1 MSTORE PUSH1 0x8 PUSH1 0x24 DUP3 ADD MSTORE PUSH8 0x10995D081B1BDCDD PUSH1 0xC2 SHL PUSH1 0x44 DUP3 ADD MSTORE PUSH1 0x64 SWAP1 REVERT JUMPDEST PUSH1 0x5 DUP4 ADD SLOAD SWAP5 PUSH2 0x12F7 JUMP JUMPDEST PUSH1 0x6 DUP3 ADD SLOAD SWAP3 PUSH2 0x12EA JUMP JUMPDEST PUSH1 0x40 MLOAD PUSH3 0x461BCD PUSH1 0xE5 SHL DUP2 MSTORE PUSH1 0x4 DUP2 ADD DUP10 SWAP1 MSTORE PUSH1 0x18 PUSH1 0x24 DUP3 ADD MSTORE PUSH32 0x57696E6E696E677320616C726561647920636C61696D65640000000000000000 PUSH1 0x44 DUP3 ADD MSTORE PUSH1 0x64 SWAP1 REVERT JUMPDEST PUSH1 0x40 MLOAD PUSH3 0x461BCD PUSH1 0xE5 SHL DUP2 MSTORE PUSH1 0x4 DUP2 ADD DUP8 SWAP1 MSTORE PUSH1 0xC PUSH1 0x24 DUP3 ADD MSTORE PUSH12 0x139BC818995D08199BDD5B99 PUSH1 0xA2 SHL PUSH1 0x44 DUP3 ADD MSTORE PUSH1 0x64 SWAP1 REVERT JUMPDEST PUSH1 0x40 MLOAD PUSH3 0x461BCD PUSH1 0xE5 SHL DUP2 MSTORE PUSH1 0x4 DUP2 ADD DUP6 SWAP1 MSTORE PUSH1 0x17 PUSH1 0x24 DUP3 ADD MSTORE PUSH32 0x4D61726B6574206E6F74207265736F6C76656420796574000000000000000000 PUSH1 0x44 DUP3 ADD MSTORE PUSH1 0x64 SWAP1 REVERT JUMPDEST POP PUSH1 0x3 SLOAD DUP2 GT ISZERO PUSH2 0x1283 JUMP JUMPDEST CALLVALUE PUSH2 0x179 JUMPI PUSH2 0x1601 CALLDATASIZE PUSH2 0x1B3A JUMP JUMPDEST PUSH1 0x4 SLOAD PUSH1 0x1 PUSH1 0x1 PUSH1 0xA0 SHL SUB SWAP1 PUSH2 0x161A SWAP1 DUP3 AND CALLER EQ PUSH2 0x20A0 JUMP JUMPDEST DUP3 ISZERO ISZERO DUP1 PUSH2 0x1775 JUMPI JUMPDEST PUSH2 0x162C SWAP1 PUSH2 0x1FAD JUMP JUMPDEST DUP3 PUSH0 MSTORE PUSH1 0x20 SWAP3 PUSH1 0x5 DUP5 MSTORE PUSH2 0x164A PUSH1 0xFF PUSH1 0x9 PUSH1 0x40 PUSH0 KECCAK256 ADD SLOAD AND ISZERO PUSH2 0x1FF1 JUMP JUMPDEST DUP1 PUSH0 MSTORE PUSH1 0x5 DUP5 MSTORE PUSH1 0x4 PUSH1 0x40 PUSH0 KECCAK256 ADD SLOAD TIMESTAMP LT PUSH2 0x1730 JUMPI PUSH0 DUP2 DUP2 MSTORE PUSH1 0x5 DUP6 MSTORE PUSH1 0x40 DUP2 KECCAK256 PUSH1 0x9 DUP2 ADD DUP1 SLOAD PUSH2 0xFFFF NOT AND DUP7 ISZERO ISZERO PUSH1 0x8 SHL PUSH2 0xFF00 AND OR PUSH1 0x1 OR DUP2 SSTORE SWAP2 SWAP5 DUP6 SWAP5 DUP6 SWAP5 DUP6 SWAP5 SWAP3 SWAP4 SWAP2 SWAP3 SWAP2 PUSH32 0x4927FE38919783250023D27E65A3E56B6B5C3E49364E51674A41EF08D62460D9 SWAP1 DUP11 SWAP1 PUSH2 0x16CB SWAP1 PUSH1 0xB PUSH1 0xA DUP3 ADD SLOAD SWAP2 ADD SLOAD SWAP1 PUSH2 0x203D JUMP JUMPDEST SWAP6 PUSH1 0x40 MLOAD SWAP1 ISZERO ISZERO DUP2 MSTORE LOG2 SLOAD PUSH1 0x10 SHR AND GAS CALL PUSH2 0x16E4 PUSH2 0x1D5A JUMP JUMPDEST POP ISZERO PUSH2 0x16EC JUMPI STOP JUMPDEST PUSH1 0x64 SWAP1 PUSH1 0x40 MLOAD SWAP1 PUSH3 0x461BCD PUSH1 0xE5 SHL DUP3 MSTORE PUSH1 0x4 DUP3 ADD MSTORE PUSH1 0x1F PUSH1 0x24 DUP3 ADD MSTORE PUSH32 0x4661696C656420746F2073656E642066756E647320746F2063726561746F7200 PUSH1 0x44 DUP3 ADD MSTORE REVERT JUMPDEST PUSH1 0x40 MLOAD PUSH3 0x461BCD PUSH1 0xE5 SHL DUP2 MSTORE PUSH1 0x4 DUP2 ADD DUP6 SWAP1 MSTORE PUSH1 0x1A PUSH1 0x24 DUP3 ADD MSTORE PUSH32 0x4D61726B657420646561646C696E65206E6F7420706173736564000000000000 PUSH1 0x44 DUP3 ADD MSTORE PUSH1 0x64 SWAP1 REVERT JUMPDEST POP PUSH1 0x3 SLOAD DUP4 GT ISZERO PUSH2 0x1623 JUMP JUMPDEST PUSH0 CALLDATASIZE PUSH1 0x3 NOT ADD SLT PUSH2 0x179 JUMPI CALLER PUSH0 MSTORE PUSH1 0x20 PUSH1 0x9 DUP2 MSTORE PUSH1 0xFF PUSH1 0x40 PUSH0 KECCAK256 SLOAD AND PUSH2 0x18BA JUMPI PUSH2 0x17A9 PUSH2 0x1F1E JUMP JUMPDEST CALLVALUE LT PUSH2 0x1876 JUMPI CALLER PUSH0 SWAP1 DUP2 MSTORE PUSH1 0x9 DUP3 MSTORE PUSH1 0x40 DUP2 KECCAK256 DUP1 SLOAD PUSH1 0xFF NOT AND PUSH1 0x1 OR SWAP1 SSTORE DUP1 DUP1 DUP1 CALLVALUE PUSH32 0x0 PUSH1 0x1 PUSH1 0x1 PUSH1 0xA0 SHL SUB AND GAS CALL PUSH2 0x17FF PUSH2 0x1D5A JUMP JUMPDEST POP ISZERO PUSH2 0x1832 JUMPI PUSH32 0xE29D35093005F4D575E1003753426B57A7F64378BA73332EEF9C6CCC2B8DECD6 PUSH1 0x40 MLOAD SWAP2 CALLVALUE DUP4 MSTORE CALLER SWAP3 LOG2 STOP JUMPDEST PUSH1 0x64 SWAP1 PUSH1 0x40 MLOAD SWAP1 PUSH3 0x461BCD PUSH1 0xE5 SHL DUP3 MSTORE PUSH1 0x4 DUP3 ADD MSTORE PUSH1 0x1F PUSH1 0x24 DUP3 ADD MSTORE PUSH32 0x4661696C656420746F2073656E6420726567697374726174696F6E2066656500 PUSH1 0x44 DUP3 ADD MSTORE REVERT JUMPDEST PUSH1 0x64 SWAP1 PUSH1 0x40 MLOAD SWAP1 PUSH3 0x461BCD PUSH1 0xE5 SHL DUP3 MSTORE PUSH1 0x4 DUP3 ADD MSTORE PUSH1 0x1D PUSH1 0x24 DUP3 ADD MSTORE PUSH32 0x496E73756666696369656E7420726567697374726174696F6E20666565000000 PUSH1 0x44 DUP3 ADD MSTORE REVERT JUMPDEST PUSH1 0x64 SWAP1 PUSH1 0x40 MLOAD SWAP1 PUSH3 0x461BCD PUSH1 0xE5 SHL DUP3 MSTORE PUSH1 0x4 DUP3 ADD MSTORE PUSH1 0x17 PUSH1 0x24 DUP3 ADD MSTORE PUSH32 0x5573657220616C72656164792072656769737465726564000000000000000000 PUSH1 0x44 DUP3 ADD MSTORE REVERT JUMPDEST CALLVALUE PUSH2 0x179 JUMPI PUSH2 0x190C CALLDATASIZE PUSH2 0x1B3A JUMP JUMPDEST SWAP1 PUSH0 MSTORE PUSH1 0x8 PUSH1 0x20 MSTORE PUSH1 0x40 PUSH0 KECCAK256 SWAP1 ISZERO ISZERO PUSH0 MSTORE PUSH1 0x20 MSTORE PUSH1 0x20 PUSH1 0x40 PUSH0 KECCAK256 SLOAD PUSH1 0x40 MLOAD SWAP1 DUP2 MSTORE RETURN JUMPDEST CALLVALUE PUSH2 0x179 JUMPI PUSH1 0x40 CALLDATASIZE PUSH1 0x3 NOT ADD SLT PUSH2 0x179 JUMPI PUSH1 0x80 PUSH2 0x1955 PUSH2 0x194D PUSH2 0x1B24 JUMP JUMPDEST PUSH1 0x4 CALLDATALOAD PUSH2 0x2131 JUMP JUMPDEST SWAP2 PUSH1 0x40 MLOAD SWAP4 ISZERO ISZERO DUP5 MSTORE ISZERO ISZERO PUSH1 0x20 DUP5 ADD MSTORE PUSH1 0x40 DUP4 ADD MSTORE ISZERO ISZERO PUSH1 0x60 DUP3 ADD MSTORE RETURN JUMPDEST CALLVALUE PUSH2 0x179 JUMPI PUSH1 0x20 DUP1 PUSH1 0x3 NOT CALLDATASIZE ADD SLT PUSH2 0x179 JUMPI PUSH1 0x1 PUSH1 0x1 PUSH1 0xA0 SHL SUB PUSH2 0x1995 PUSH2 0x1B0E JUMP JUMPDEST AND PUSH0 MSTORE PUSH1 0x6 DUP2 MSTORE PUSH1 0x40 PUSH0 KECCAK256 SWAP1 DUP2 SLOAD PUSH8 0xFFFFFFFFFFFFFFFF DUP2 GT PUSH2 0x911 JUMPI PUSH1 0x40 MLOAD SWAP1 PUSH1 0x5 PUSH2 0x19C6 DUP5 DUP4 DUP4 SHL ADD DUP5 PUSH2 0x1B92 JUMP JUMPDEST DUP2 DUP4 MSTORE DUP4 DUP4 ADD DUP1 SWAP6 PUSH0 MSTORE DUP5 PUSH0 KECCAK256 PUSH0 SWAP2 JUMPDEST DUP5 DUP4 LT PUSH2 0x1A43 JUMPI PUSH1 0x40 DUP1 MLOAD DUP9 DUP2 MSTORE DUP8 MLOAD DUP2 DUP11 ADD DUP2 SWAP1 MSTORE DUP11 SWAP3 DUP3 ADD SWAP1 DUP11 PUSH0 JUMPDEST DUP3 DUP2 LT PUSH2 0x1A01 JUMPI DUP5 DUP5 SUB DUP6 RETURN JUMPDEST DUP6 MLOAD DUP1 MLOAD DUP6 MSTORE DUP1 DUP4 ADD MLOAD ISZERO ISZERO DUP6 DUP5 ADD MSTORE PUSH1 0x40 DUP1 DUP3 ADD MLOAD SWAP1 DUP7 ADD MSTORE PUSH1 0x60 DUP1 DUP3 ADD MLOAD SWAP1 DUP7 ADD MSTORE PUSH1 0x80 SWAP1 DUP2 ADD MLOAD ISZERO ISZERO SWAP1 DUP6 ADD MSTORE SWAP5 DUP2 ADD SWAP5 PUSH1 0xA0 SWAP1 SWAP4 ADD SWAP3 PUSH1 0x1 ADD PUSH2 0x19F4 JUMP JUMPDEST DUP4 DUP8 PUSH1 0x1 SWAP3 PUSH2 0x1A51 DUP6 PUSH2 0x20EC JUMP JUMPDEST DUP2 MSTORE ADD SWAP3 ADD SWAP3 ADD SWAP2 SWAP1 PUSH2 0x19D6 JUMP JUMPDEST CALLVALUE PUSH2 0x179 JUMPI PUSH1 0x20 CALLDATASIZE PUSH1 0x3 NOT ADD SLT PUSH2 0x179 JUMPI PUSH1 0x1 PUSH1 0x1 PUSH1 0xA0 SHL SUB PUSH2 0x1A80 PUSH2 0x1B0E JUMP JUMPDEST AND PUSH0 MSTORE PUSH1 0x9 PUSH1 0x20 MSTORE PUSH1 0x20 PUSH1 0xFF PUSH1 0x40 PUSH0 KECCAK256 SLOAD AND PUSH1 0x40 MLOAD SWAP1 ISZERO ISZERO DUP2 MSTORE RETURN JUMPDEST CALLVALUE PUSH2 0x179 JUMPI PUSH0 CALLDATASIZE PUSH1 0x3 NOT ADD SLT PUSH2 0x179 JUMPI PUSH1 0x40 MLOAD PUSH32 0x0 PUSH1 0x1 PUSH1 0x1 PUSH1 0xA0 SHL SUB AND DUP2 MSTORE PUSH1 0x20 SWAP1 RETURN JUMPDEST CALLVALUE PUSH2 0x179 JUMPI PUSH1 0x20 CALLDATASIZE PUSH1 0x3 NOT ADD SLT PUSH2 0x179 JUMPI PUSH2 0x1B06 PUSH1 0x1 DUP1 PUSH1 0xA0 SHL SUB PUSH1 0x4 SLOAD AND CALLER EQ PUSH2 0x20A0 JUMP JUMPDEST PUSH1 0x4 CALLDATALOAD PUSH1 0x1 SSTORE STOP JUMPDEST PUSH1 0x4 CALLDATALOAD SWAP1 PUSH1 0x1 PUSH1 0x1 PUSH1 0xA0 SHL SUB DUP3 AND DUP3 SUB PUSH2 0x179 JUMPI JUMP JUMPDEST PUSH1 0x24 CALLDATALOAD SWAP1 PUSH1 0x1 PUSH1 0x1 PUSH1 0xA0 SHL SUB DUP3 AND DUP3 SUB PUSH2 0x179 JUMPI JUMP JUMPDEST PUSH1 0x40 SWAP1 PUSH1 0x3 NOT ADD SLT PUSH2 0x179 JUMPI PUSH1 0x4 CALLDATALOAD SWAP1 PUSH1 0x24 CALLDATALOAD DUP1 ISZERO ISZERO DUP2 SUB PUSH2 0x179 JUMPI SWAP1 JUMP JUMPDEST PUSH2 0x1C0 DUP2 ADD SWAP1 DUP2 LT PUSH8 0xFFFFFFFFFFFFFFFF DUP3 GT OR PUSH2 0x911 JUMPI PUSH1 0x40 MSTORE JUMP JUMPDEST PUSH1 0xA0 DUP2 ADD SWAP1 DUP2 LT PUSH8 0xFFFFFFFFFFFFFFFF DUP3 GT OR PUSH2 0x911 JUMPI PUSH1 0x40 MSTORE JUMP JUMPDEST SWAP1 PUSH1 0x1F DUP1 NOT SWAP2 ADD AND DUP2 ADD SWAP1 DUP2 LT PUSH8 0xFFFFFFFFFFFFFFFF DUP3 GT OR PUSH2 0x911 JUMPI PUSH1 0x40 MSTORE JUMP JUMPDEST PUSH8 0xFFFFFFFFFFFFFFFF DUP2 GT PUSH2 0x911 JUMPI PUSH1 0x1F ADD PUSH1 0x1F NOT AND PUSH1 0x20 ADD SWAP1 JUMP JUMPDEST DUP2 PUSH1 0x1F DUP3 ADD SLT ISZERO PUSH2 0x179 JUMPI DUP1 CALLDATALOAD SWAP1 PUSH2 0x1BE7 DUP3 PUSH2 0x1BB4 JUMP JUMPDEST SWAP3 PUSH2 0x1BF5 PUSH1 0x40 MLOAD SWAP5 DUP6 PUSH2 0x1B92 JUMP JUMPDEST DUP3 DUP5 MSTORE PUSH1 0x20 DUP4 DUP4 ADD ADD GT PUSH2 0x179 JUMPI DUP2 PUSH0 SWAP3 PUSH1 0x20 DUP1 SWAP4 ADD DUP4 DUP7 ADD CALLDATACOPY DUP4 ADD ADD MSTORE SWAP1 JUMP JUMPDEST DUP1 SLOAD DUP3 LT ISZERO PUSH2 0x1C2F JUMPI PUSH0 MSTORE PUSH1 0x5 PUSH1 0x20 PUSH0 KECCAK256 SWAP2 MUL ADD SWAP1 PUSH0 SWAP1 JUMP JUMPDEST PUSH4 0x4E487B71 PUSH1 0xE0 SHL PUSH0 MSTORE PUSH1 0x32 PUSH1 0x4 MSTORE PUSH1 0x24 PUSH0 REVERT JUMPDEST SWAP2 SWAP1 DUP3 MLOAD SWAP3 DUP4 DUP3 MSTORE PUSH0 JUMPDEST DUP5 DUP2 LT PUSH2 0x1C6D JUMPI POP POP DUP3 PUSH0 PUSH1 0x20 DUP1 SWAP5 SWAP6 DUP5 ADD ADD MSTORE PUSH1 0x1F DUP1 NOT SWAP2 ADD AND ADD ADD SWAP1 JUMP JUMPDEST PUSH1 0x20 DUP2 DUP4 ADD DUP2 ADD MLOAD DUP5 DUP4 ADD DUP3 ADD MSTORE ADD PUSH2 0x1C4D JUMP JUMPDEST SWAP1 PUSH1 0x1 DUP3 DUP2 SHR SWAP3 AND DUP1 ISZERO PUSH2 0x1CAF JUMPI JUMPDEST PUSH1 0x20 DUP4 LT EQ PUSH2 0x1C9B JUMPI JUMP JUMPDEST PUSH4 0x4E487B71 PUSH1 0xE0 SHL PUSH0 MSTORE PUSH1 0x22 PUSH1 0x4 MSTORE PUSH1 0x24 PUSH0 REVERT JUMPDEST SWAP2 PUSH1 0x7F AND SWAP2 PUSH2 0x1C90 JUMP JUMPDEST SWAP1 PUSH1 0x40 MLOAD SWAP2 DUP3 PUSH0 DUP3 SLOAD SWAP3 PUSH2 0x1CCC DUP5 PUSH2 0x1C81 JUMP JUMPDEST SWAP1 DUP2 DUP5 MSTORE PUSH1 0x1 SWAP5 DUP6 DUP2 AND SWAP1 DUP2 PUSH0 EQ PUSH2 0x1D37 JUMPI POP PUSH1 0x1 EQ PUSH2 0x1CF7 JUMPI JUMPDEST POP POP PUSH2 0x1CF5 SWAP3 POP SUB DUP4 PUSH2 0x1B92 JUMP JUMPDEST JUMP JUMPDEST SWAP1 SWAP4 SWAP2 POP PUSH0 MSTORE PUSH1 0x20 SWAP1 DUP2 PUSH0 KECCAK256 SWAP4 PUSH0 SWAP2 JUMPDEST DUP2 DUP4 LT PUSH2 0x1D1F JUMPI POP POP PUSH2 0x1CF5 SWAP4 POP DUP3 ADD ADD PUSH0 DUP1 PUSH2 0x1CE7 JUMP JUMPDEST DUP6 SLOAD DUP9 DUP5 ADD DUP6 ADD MSTORE SWAP5 DUP6 ADD SWAP5 DUP8 SWAP5 POP SWAP2 DUP4 ADD SWAP2 PUSH2 0x1D07 JUMP JUMPDEST SWAP2 POP POP PUSH2 0x1CF5 SWAP5 POP PUSH1 0x20 SWAP3 POP PUSH1 0xFF NOT AND DUP3 DUP5 ADD MSTORE ISZERO ISZERO PUSH1 0x5 SHL DUP3 ADD ADD PUSH0 DUP1 PUSH2 0x1CE7 JUMP JUMPDEST RETURNDATASIZE ISZERO PUSH2 0x1D84 JUMPI RETURNDATASIZE SWAP1 PUSH2 0x1D6B DUP3 PUSH2 0x1BB4 JUMP JUMPDEST SWAP2 PUSH2 0x1D79 PUSH1 0x40 MLOAD SWAP4 DUP5 PUSH2 0x1B92 JUMP JUMPDEST DUP3 MSTORE RETURNDATASIZE PUSH0 PUSH1 0x20 DUP5 ADD RETURNDATACOPY JUMP JUMPDEST PUSH1 0x60 SWAP1 JUMP JUMPDEST MLOAD SWAP1 PUSH10 0xFFFFFFFFFFFFFFFFFFFF DUP3 AND DUP3 SUB PUSH2 0x179 JUMPI JUMP JUMPDEST SWAP2 SWAP1 DUP3 SUB SWAP2 DUP3 GT PUSH2 0x9A0 JUMPI JUMP JUMPDEST PUSH1 0x40 MLOAD PUSH4 0x3FABE5A3 PUSH1 0xE2 SHL DUP2 MSTORE PUSH1 0xA0 DUP2 PUSH1 0x4 DUP2 PUSH32 0x0 PUSH1 0x1 PUSH1 0x1 PUSH1 0xA0 SHL SUB AND GAS STATICCALL DUP1 ISZERO PUSH2 0x1EE2 JUMPI PUSH0 SWAP2 DUP3 SWAP2 PUSH2 0x1E8B JUMPI JUMPDEST POP PUSH0 DUP3 SGT ISZERO PUSH2 0x1E51 JUMPI PUSH2 0x1E11 PUSH2 0xE10 SWAP2 TIMESTAMP PUSH2 0x1DA0 JUMP JUMPDEST GT PUSH2 0x1E19 JUMPI SWAP1 JUMP JUMPDEST PUSH1 0x40 MLOAD PUSH3 0x461BCD PUSH1 0xE5 SHL DUP2 MSTORE PUSH1 0x20 PUSH1 0x4 DUP3 ADD MSTORE PUSH1 0x10 PUSH1 0x24 DUP3 ADD MSTORE PUSH16 0x50726963652066656564207374616C65 PUSH1 0x80 SHL PUSH1 0x44 DUP3 ADD MSTORE PUSH1 0x64 SWAP1 REVERT JUMPDEST PUSH1 0x40 MLOAD PUSH3 0x461BCD PUSH1 0xE5 SHL DUP2 MSTORE PUSH1 0x20 PUSH1 0x4 DUP3 ADD MSTORE PUSH1 0x12 PUSH1 0x24 DUP3 ADD MSTORE PUSH18 0x125B9D985B1A59081C1C9A58D94819995959 PUSH1 0x72 SHL PUSH1 0x44 DUP3 ADD MSTORE PUSH1 0x64 SWAP1 REVERT JUMPDEST SWAP2 SWAP1 POP PUSH1 0xA0 DUP3 RETURNDATASIZE DUP3 GT PUSH2 0x1EDA JUMPI JUMPDEST DUP2 PUSH2 0x1EA6 PUSH1 0xA0 SWAP4 DUP4 PUSH2 0x1B92 JUMP JUMPDEST DUP2 ADD SUB SLT PUSH2 0x1ED7 JUMPI POP PUSH2 0x1EB8 DUP2 PUSH2 0x1D89 JUMP JUMPDEST POP PUSH1 0x20 DUP2 ADD MLOAD PUSH2 0x1ECF PUSH1 0x80 PUSH1 0x60 DUP5 ADD MLOAD SWAP4 ADD PUSH2 0x1D89 JUMP JUMPDEST POP SWAP1 PUSH0 PUSH2 0x1DFB JUMP JUMPDEST DUP1 REVERT JUMPDEST RETURNDATASIZE SWAP2 POP PUSH2 0x1E99 JUMP JUMPDEST PUSH1 0x40 MLOAD RETURNDATASIZE PUSH0 DUP3 RETURNDATACOPY RETURNDATASIZE SWAP1 REVERT JUMPDEST DUP2 DUP2 MUL SWAP3 SWAP2 DUP2 ISZERO SWAP2 DUP5 DIV EQ OR ISZERO PUSH2 0x9A0 JUMPI JUMP JUMPDEST DUP2 ISZERO PUSH2 0x1F0A JUMPI DIV SWAP1 JUMP JUMPDEST PUSH4 0x4E487B71 PUSH1 0xE0 SHL PUSH0 MSTORE PUSH1 0x12 PUSH1 0x4 MSTORE PUSH1 0x24 PUSH0 REVERT JUMPDEST PUSH2 0x1F26 PUSH2 0x1DAD JUMP JUMPDEST PUSH1 0x2 SLOAD SWAP1 PUSH11 0x52B7D2DCC80CD2E4000000 SWAP2 DUP3 DUP2 MUL SWAP3 DUP2 DUP5 DIV EQ SWAP1 ISZERO OR ISZERO PUSH2 0x9A0 JUMPI PUSH2 0x1F50 SWAP2 PUSH2 0x1F00 JUMP JUMPDEST SWAP1 JUMP JUMPDEST ISZERO PUSH2 0x1F5A JUMPI JUMP JUMPDEST PUSH1 0x40 MLOAD PUSH3 0x461BCD PUSH1 0xE5 SHL DUP2 MSTORE PUSH1 0x20 PUSH1 0x4 DUP3 ADD MSTORE PUSH1 0x18 PUSH1 0x24 DUP3 ADD MSTORE PUSH32 0x55736572206D7573742072656769737465722066697273740000000000000000 PUSH1 0x44 DUP3 ADD MSTORE PUSH1 0x64 SWAP1 REVERT JUMPDEST PUSH0 NOT DUP2 EQ PUSH2 0x9A0 JUMPI PUSH1 0x1 ADD SWAP1 JUMP JUMPDEST ISZERO PUSH2 0x1FB4 JUMPI JUMP JUMPDEST PUSH1 0x40 MLOAD PUSH3 0x461BCD PUSH1 0xE5 SHL DUP2 MSTORE PUSH1 0x20 PUSH1 0x4 DUP3 ADD MSTORE PUSH1 0x15 PUSH1 0x24 DUP3 ADD MSTORE PUSH21 0x13585C9AD95D08191BD95CC81B9BDD08195E1A5CDD PUSH1 0x5A SHL PUSH1 0x44 DUP3 ADD MSTORE PUSH1 0x64 SWAP1 REVERT JUMPDEST ISZERO PUSH2 0x1FF8 JUMPI JUMP JUMPDEST PUSH1 0x40 MLOAD PUSH3 0x461BCD PUSH1 0xE5 SHL DUP2 MSTORE PUSH1 0x20 PUSH1 0x4 DUP3 ADD MSTORE PUSH1 0x17 PUSH1 0x24 DUP3 ADD MSTORE PUSH32 0x4D61726B657420616C7265616479207265736F6C766564000000000000000000 PUSH1 0x44 DUP3 ADD MSTORE PUSH1 0x64 SWAP1 REVERT JUMPDEST SWAP2 SWAP1 DUP3 ADD DUP1 SWAP3 GT PUSH2 0x9A0 JUMPI JUMP JUMPDEST PUSH1 0x4 PUSH1 0x80 PUSH2 0x1CF5 SWAP4 DUP1 MLOAD DUP5 SSTORE PUSH2 0x2075 PUSH1 0x20 DUP3 ADD MLOAD ISZERO ISZERO PUSH1 0x1 DUP7 ADD SWAP1 PUSH1 0xFF DUP1 NOT DUP4 SLOAD AND SWAP2 ISZERO ISZERO AND OR SWAP1 SSTORE JUMP JUMPDEST PUSH1 0x40 DUP2 ADD MLOAD PUSH1 0x2 DUP6 ADD SSTORE PUSH1 0x60 DUP2 ADD MLOAD PUSH1 0x3 DUP6 ADD SSTORE ADD MLOAD ISZERO ISZERO SWAP2 ADD SWAP1 PUSH1 0xFF DUP1 NOT DUP4 SLOAD AND SWAP2 ISZERO ISZERO AND OR SWAP1 SSTORE JUMP JUMPDEST ISZERO PUSH2 0x20A7 JUMPI JUMP JUMPDEST PUSH1 0x40 MLOAD PUSH3 0x461BCD PUSH1 0xE5 SHL DUP2 MSTORE PUSH1 0x20 PUSH1 0x4 DUP3 ADD MSTORE PUSH1 0x18 PUSH1 0x24 DUP3 ADD MSTORE PUSH32 0x4F6E6C79206F776E65722063616E2063616C6C20746869730000000000000000 PUSH1 0x44 DUP3 ADD MSTORE PUSH1 0x64 SWAP1 REVERT JUMPDEST SWAP1 PUSH1 0x40 MLOAD PUSH2 0x20F9 DUP2 PUSH2 0x1B76 JUMP JUMPDEST PUSH1 0x80 PUSH1 0xFF PUSH1 0x4 DUP4 SWAP6 DUP1 SLOAD DUP6 MSTORE DUP3 PUSH1 0x1 DUP3 ADD SLOAD AND ISZERO ISZERO PUSH1 0x20 DUP7 ADD MSTORE PUSH1 0x2 DUP2 ADD SLOAD PUSH1 0x40 DUP7 ADD MSTORE PUSH1 0x3 DUP2 ADD SLOAD PUSH1 0x60 DUP7 ADD MSTORE ADD SLOAD AND ISZERO ISZERO SWAP2 ADD MSTORE JUMP JUMPDEST SWAP1 PUSH0 SWAP2 DUP3 MSTORE PUSH1 0x7 PUSH1 0x20 MSTORE PUSH1 0x40 DUP3 KECCAK256 SWAP1 PUSH1 0x1 DUP1 PUSH1 0xA0 SHL SUB AND DUP3 MSTORE PUSH1 0x20 MSTORE PUSH2 0x2159 PUSH1 0x40 DUP3 KECCAK256 PUSH2 0x20EC JUMP JUMPDEST SWAP2 PUSH1 0x40 DUP4 ADD MLOAD SWAP2 DUP3 ISZERO PUSH2 0x217E JUMPI POP PUSH1 0x80 PUSH1 0x20 DUP5 ADD MLOAD ISZERO ISZERO SWAP4 ADD MLOAD ISZERO ISZERO SWAP1 PUSH1 0x1 SWAP4 SWAP3 SWAP2 SWAP1 JUMP JUMPDEST SWAP3 POP SWAP1 POP DUP2 DUP1 SWAP2 DUP2 SWAP1 JUMP INVALID LOG2 PUSH5 0x6970667358 0x22 SLT KECCAK256 0x4F DUP5 PUSH31 0x6F6FC59F31F324213ACFB1ABA8AF247B9B21BAE3FE34A9178E313C12916473 PUSH16 0x6C634300081400330000000000000000 "},"methodIdentifiers":{"BASIS_POINTS()":"e1f1c4a7","CREATOR_FEE_BP()":"d64adc68","PLATFORM_FEE_BP()":"de7adf6e","bnbUsdPriceFeed()":"0c545855","claimWinnings(uint256)":"677bd9ff","createMarket(string,string,string,uint256)":"76e00406","createMarketStake()":"d782b543","getBNBUSDPrice()":"71700093","getMarketDetails(uint256)":"b06c1ba3","getRegistrationFeeInBNB()":"a85c1884","getUserBetInMarket(uint256,address)":"3ba693c5","getUserBets(address)":"2d56657d","isUserRegistered(address)":"163f7522","marketCount()":"ec979082","marketPools(uint256,bool)":"3c068532","marketUserBets(uint256,address)":"980d5d59","markets(uint256)":"b1283e77","minBetAmount()":"fa968eea","owner()":"8da5cb5b","placeBet(uint256,bool)":"9ed9c74d","platformFeeRecipient()":"eb13554f","registerUser()":"4d3820eb","registeredUsers(address)":"0e50cee5","registrationFeeUSD()":"d670e926","resolveMarket(uint256,bool)":"57bde446","updateCreateMarketStake(uint256)":"0595f181","updateMinBetAmount(uint256)":"b73bf456","updateRegistrationFeeUSD(uint256)":"c97d66e9","userBets(address,uint256)":"8068aa68"}}}}}