{
  "_format": "hh3-artifact-1",
  "contractName": "PredictionMarket",
  "sourceName": "contracts/PredictionMarket.sol",
  "abi": [
    {
      "inputs": [],
      "stateMutability": "nonpayable",
      "type": "constructor"
    },
    {
      "anonymous": false,
      "inputs": [
        {
          "indexed": true,
          "internalType": "uint256",
          "name": "marketId",
          "type": "uint256"
        },
        {
          "indexed": true,
          "internalType": "address",
          "name": "bettor",
          "type": "address"
        },
        {
          "indexed": false,
          "internalType": "bool",
          "name": "prediction",
          "type": "bool"
        },
        {
          "indexed": false,
          "internalType": "uint256",
          "name": "amount",
          "type": "uint256"
        }
      ],
      "name": "BetPlaced",
      "type": "event"
    },
    {
      "anonymous": false,
      "inputs": [
        {
          "indexed": true,
          "internalType": "uint256",
          "name": "marketId",
          "type": "uint256"
        },
        {
          "indexed": true,
          "internalType": "address",
          "name": "creator",
          "type": "address"
        },
        {
          "indexed": false,
          "internalType": "string",
          "name": "title",
          "type": "string"
        },
        {
          "indexed": false,
          "internalType": "uint256",
          "name": "deadline",
          "type": "uint256"
        }
      ],
      "name": "MarketCreated",
      "type": "event"
    },
    {
      "anonymous": false,
      "inputs": [
        {
          "indexed": true,
          "internalType": "uint256",
          "name": "marketId",
          "type": "uint256"
        },
        {
          "indexed": false,
          "internalType": "bool",
          "name": "outcome",
          "type": "bool"
        }
      ],
      "name": "MarketResolved",
      "type": "event"
    },
    {
      "anonymous": false,
      "inputs": [
        {
          "indexed": true,
          "internalType": "uint256",
          "name": "marketId",
          "type": "uint256"
        },
        {
          "indexed": true,
          "internalType": "address",
          "name": "winner",
          "type": "address"
        },
        {
          "indexed": false,
          "internalType": "uint256",
          "name": "amount",
          "type": "uint256"
        }
      ],
      "name": "WinningsClaimed",
      "type": "event"
    },
    {
      "inputs": [
        {
          "internalType": "uint256",
          "name": "marketId",
          "type": "uint256"
        }
      ],
      "name": "claimWinnings",
      "outputs": [],
      "stateMutability": "nonpayable",
      "type": "function"
    },
    {
      "inputs": [
        {
          "internalType": "string",
          "name": "title",
          "type": "string"
        },
        {
          "internalType": "string",
          "name": "description",
          "type": "string"
        },
        {
          "internalType": "string",
          "name": "category",
          "type": "string"
        },
        {
          "internalType": "uint256",
          "name": "deadline",
          "type": "uint256"
        }
      ],
      "name": "createMarket",
      "outputs": [
        {
          "internalType": "uint256",
          "name": "marketId",
          "type": "uint256"
        }
      ],
      "stateMutability": "payable",
      "type": "function"
    },
    {
      "inputs": [],
      "name": "createMarketStake",
      "outputs": [
        {
          "internalType": "uint256",
          "name": "",
          "type": "uint256"
        }
      ],
      "stateMutability": "view",
      "type": "function"
    },
    {
      "inputs": [
        {
          "internalType": "uint256",
          "name": "marketId",
          "type": "uint256"
        }
      ],
      "name": "getMarketDetails",
      "outputs": [
        {
          "components": [
            {
              "internalType": "uint256",
              "name": "id",
              "type": "uint256"
            },
            {
              "internalType": "string",
              "name": "title",
              "type": "string"
            },
            {
              "internalType": "string",
              "name": "description",
              "type": "string"
            },
            {
              "internalType": "string",
              "name": "category",
              "type": "string"
            },
            {
              "internalType": "uint256",
              "name": "deadline",
              "type": "uint256"
            },
            {
              "internalType": "uint256",
              "name": "yesPool",
              "type": "uint256"
            },
            {
              "internalType": "uint256",
              "name": "noPool",
              "type": "uint256"
            },
            {
              "internalType": "uint256",
              "name": "totalPool",
              "type": "uint256"
            },
            {
              "internalType": "uint256",
              "name": "participants",
              "type": "uint256"
            },
            {
              "internalType": "bool",
              "name": "resolved",
              "type": "bool"
            },
            {
              "internalType": "bool",
              "name": "outcome",
              "type": "bool"
            },
            {
              "internalType": "address",
              "name": "creator",
              "type": "address"
            },
            {
              "internalType": "uint256",
              "name": "creatorStake",
              "type": "uint256"
            }
          ],
          "internalType": "struct PredictionMarket.Market",
          "name": "",
          "type": "tuple"
        }
      ],
      "stateMutability": "view",
      "type": "function"
    },
    {
      "inputs": [
        {
          "internalType": "uint256",
          "name": "marketId",
          "type": "uint256"
        },
        {
          "internalType": "address",
          "name": "user",
          "type": "address"
        }
      ],
      "name": "getUserBetInMarket",
      "outputs": [
        {
          "internalType": "bool",
          "name": "hasBet",
          "type": "bool"
        },
        {
          "internalType": "bool",
          "name": "prediction",
          "type": "bool"
        },
        {
          "internalType": "uint256",
          "name": "amount",
          "type": "uint256"
        },
        {
          "internalType": "bool",
          "name": "claimed",
          "type": "bool"
        }
      ],
      "stateMutability": "view",
      "type": "function"
    },
    {
      "inputs": [
        {
          "internalType": "address",
          "name": "user",
          "type": "address"
        }
      ],
      "name": "getUserBets",
      "outputs": [
        {
          "components": [
            {
              "internalType": "uint256",
              "name": "marketId",
              "type": "uint256"
            },
            {
              "internalType": "bool",
              "name": "prediction",
              "type": "bool"
            },
            {
              "internalType": "uint256",
              "name": "amount",
              "type": "uint256"
            },
            {
              "internalType": "uint256",
              "name": "timestamp",
              "type": "uint256"
            },
            {
              "internalType": "bool",
              "name": "claimed",
              "type": "bool"
            }
          ],
          "internalType": "struct PredictionMarket.Bet[]",
          "name": "",
          "type": "tuple[]"
        }
      ],
      "stateMutability": "view",
      "type": "function"
    },
    {
      "inputs": [],
      "name": "marketCount",
      "outputs": [
        {
          "internalType": "uint256",
          "name": "",
          "type": "uint256"
        }
      ],
      "stateMutability": "view",
      "type": "function"
    },
    {
      "inputs": [
        {
          "internalType": "uint256",
          "name": "",
          "type": "uint256"
        },
        {
          "internalType": "bool",
          "name": "",
          "type": "bool"
        }
      ],
      "name": "marketPools",
      "outputs": [
        {
          "internalType": "uint256",
          "name": "",
          "type": "uint256"
        }
      ],
      "stateMutability": "view",
      "type": "function"
    },
    {
      "inputs": [
        {
          "internalType": "uint256",
          "name": "",
          "type": "uint256"
        },
        {
          "internalType": "address",
          "name": "",
          "type": "address"
        }
      ],
      "name": "marketUserBets",
      "outputs": [
        {
          "internalType": "uint256",
          "name": "marketId",
          "type": "uint256"
        },
        {
          "internalType": "bool",
          "name": "prediction",
          "type": "bool"
        },
        {
          "internalType": "uint256",
          "name": "amount",
          "type": "uint256"
        },
        {
          "internalType": "uint256",
          "name": "timestamp",
          "type": "uint256"
        },
        {
          "internalType": "bool",
          "name": "claimed",
          "type": "bool"
        }
      ],
      "stateMutability": "view",
      "type": "function"
    },
    {
      "inputs": [
        {
          "internalType": "uint256",
          "name": "",
          "type": "uint256"
        }
      ],
      "name": "markets",
      "outputs": [
        {
          "internalType": "uint256",
          "name": "id",
          "type": "uint256"
        },
        {
          "internalType": "string",
          "name": "title",
          "type": "string"
        },
        {
          "internalType": "string",
          "name": "description",
          "type": "string"
        },
        {
          "internalType": "string",
          "name": "category",
          "type": "string"
        },
        {
          "internalType": "uint256",
          "name": "deadline",
          "type": "uint256"
        },
        {
          "internalType": "uint256",
          "name": "yesPool",
          "type": "uint256"
        },
        {
          "internalType": "uint256",
          "name": "noPool",
          "type": "uint256"
        },
        {
          "internalType": "uint256",
          "name": "totalPool",
          "type": "uint256"
        },
        {
          "internalType": "uint256",
          "name": "participants",
          "type": "uint256"
        },
        {
          "internalType": "bool",
          "name": "resolved",
          "type": "bool"
        },
        {
          "internalType": "bool",
          "name": "outcome",
          "type": "bool"
        },
        {
          "internalType": "address",
          "name": "creator",
          "type": "address"
        },
        {
          "internalType": "uint256",
          "name": "creatorStake",
          "type": "uint256"
        }
      ],
      "stateMutability": "view",
      "type": "function"
    },
    {
      "inputs": [],
      "name": "minBetAmount",
      "outputs": [
        {
          "internalType": "uint256",
          "name": "",
          "type": "uint256"
        }
      ],
      "stateMutability": "view",
      "type": "function"
    },
    {
      "inputs": [],
      "name": "owner",
      "outputs": [
        {
          "internalType": "address",
          "name": "",
          "type": "address"
        }
      ],
      "stateMutability": "view",
      "type": "function"
    },
    {
      "inputs": [
        {
          "internalType": "uint256",
          "name": "marketId",
          "type": "uint256"
        },
        {
          "internalType": "bool",
          "name": "prediction",
          "type": "bool"
        }
      ],
      "name": "placeBet",
      "outputs": [],
      "stateMutability": "payable",
      "type": "function"
    },
    {
      "inputs": [
        {
          "internalType": "uint256",
          "name": "marketId",
          "type": "uint256"
        },
        {
          "internalType": "bool",
          "name": "outcome",
          "type": "bool"
        }
      ],
      "name": "resolveMarket",
      "outputs": [],
      "stateMutability": "nonpayable",
      "type": "function"
    },
    {
      "inputs": [
        {
          "internalType": "uint256",
          "name": "newStake",
          "type": "uint256"
        }
      ],
      "name": "updateCreateMarketStake",
      "outputs": [],
      "stateMutability": "nonpayable",
      "type": "function"
    },
    {
      "inputs": [
        {
          "internalType": "uint256",
          "name": "newMinBet",
          "type": "uint256"
        }
      ],
      "name": "updateMinBetAmount",
      "outputs": [],
      "stateMutability": "nonpayable",
      "type": "function"
    },
    {
      "inputs": [
        {
          "internalType": "address",
          "name": "",
          "type": "address"
        },
        {
          "internalType": "uint256",
          "name": "",
          "type": "uint256"
        }
      ],
      "name": "userBets",
      "outputs": [
        {
          "internalType": "uint256",
          "name": "marketId",
          "type": "uint256"
        },
        {
          "internalType": "bool",
          "name": "prediction",
          "type": "bool"
        },
        {
          "internalType": "uint256",
          "name": "amount",
          "type": "uint256"
        },
        {
          "internalType": "uint256",
          "name": "timestamp",
          "type": "uint256"
        },
        {
          "internalType": "bool",
          "name": "claimed",
          "type": "bool"
        }
      ],
      "stateMutability": "view",
      "type": "function"
    },
    {
      "stateMutability": "payable",
      "type": "receive"
    }
  ],
  "bytecode": "0x6080604052662386f26fc100005f55670de0b6b3a7640000600155348015610025575f80fd5b50600380546001600160a01b031916331790555f600255611f81806100495f395ff3fe6080604052600436106100fd575f3560e01c80638da5cb5b11610092578063b1283e7711610062578063b1283e771461034e578063b73bf45614610386578063d782b543146103a5578063ec979082146103ba578063fa968eea146103cf575f80fd5b80638da5cb5b1461027f578063980d5d59146102b65780639ed9c74d1461030f578063b06c1ba314610322575f80fd5b806357bde446116100cd57806357bde446146101e5578063677bd9ff1461020457806376e00406146102235780638068aa6814610236575f80fd5b80630595f181146101085780632d56657d146101295780633ba693c51461015e5780633c068532146101a1575f80fd5b3661010457005b5f80fd5b348015610113575f80fd5b5061012761012236600461189b565b6103e3565b005b348015610134575f80fd5b506101486101433660046118cd565b61041b565b60405161015591906118ed565b60405180910390f35b348015610169575f80fd5b5061017d61017836600461195e565b6104c8565b60408051941515855292151560208501529183015215156060820152608001610155565b3480156101ac575f80fd5b506101d76101bb366004611988565b600760209081525f928352604080842090915290825290205481565b604051908152602001610155565b3480156101f0575f80fd5b506101276101ff366004611988565b610570565b34801561020f575f80fd5b5061012761021e36600461189b565b6107db565b6101d7610231366004611a57565b610c2a565b348015610241575f80fd5b50610255610250366004611ae1565b610f06565b6040805195865293151560208601529284019190915260608301521515608082015260a001610155565b34801561028a575f80fd5b5060035461029e906001600160a01b031681565b6040516001600160a01b039091168152602001610155565b3480156102c1575f80fd5b506102556102d036600461195e565b600660209081525f928352604080842090915290825290208054600182015460028301546003840154600490940154929360ff92831693919290911685565b61012761031d366004611988565b610f55565b34801561032d575f80fd5b5061034161033c36600461189b565b611379565b6040516101559190611b4c565b348015610359575f80fd5b5061036d61036836600461189b565b611667565b6040516101559d9c9b9a99989796959493929190611c46565b348015610391575f80fd5b506101276103a036600461189b565b61186d565b3480156103b0575f80fd5b506101d760015481565b3480156103c5575f80fd5b506101d760025481565b3480156103da575f80fd5b506101d75f5481565b6003546001600160a01b031633146104165760405162461bcd60e51b815260040161040d90611ce6565b60405180910390fd5b600155565b6001600160a01b0381165f908152600560209081526040808320805482518185028101850190935280835260609492939192909184015b828210156104bd575f8481526020908190206040805160a081018252600586029092018054835260018082015460ff90811615158587015260028301549385019390935260038201546060850152600490910154909116151560808301529083529092019101610452565b505050509050919050565b5f8281526006602090815260408083206001600160a01b03851684528252808320815160a08101835281548152600182015460ff9081161515948201949094526002820154928101839052600382015460608201526004909101549092161515608083015282918291829190820361054c575f805f80945094509450945050610567565b60018160200151826040015183608001519450945094509450505b92959194509250565b6003546001600160a01b0316331461059a5760405162461bcd60e51b815260040161040d90611ce6565b815f811180156105ac57506002548111155b6105c85760405162461bcd60e51b815260040161040d90611d1d565b5f83815260046020526040902060090154839060ff16156106255760405162461bcd60e51b815260206004820152601760248201527613585c9ad95d08185b1c9958591e481c995cdbdb1d9959604a1b604482015260640161040d565b5f848152600460208190526040909120015484904210156106885760405162461bcd60e51b815260206004820152601a60248201527f4d61726b657420646561646c696e65206e6f7420706173736564000000000000604482015260640161040d565b5f8581526004602052604090206009810180548615156101000261ffff19909116176001179055600a8101546007820154156106ed575f6103e8836007015460056106d39190611d60565b6106dd9190611d7d565b90506106e98183611d9c565b9150505b867f4927fe38919783250023d27e65a3e56b6b5c3e49364e51674a41ef08d62460d987604051610721911515815260200190565b60405180910390a260098201546040515f916201000090046001600160a01b03169083908381818185875af1925050503d805f811461077b576040519150601f19603f3d011682016040523d82523d5f602084013e610780565b606091505b50509050806107d15760405162461bcd60e51b815260206004820152601f60248201527f4661696c656420746f2073656e642066756e647320746f2063726561746f7200604482015260640161040d565b5050505050505050565b805f811180156107ed57506002548111155b6108095760405162461bcd60e51b815260040161040d90611d1d565b5f828152600460205260409020600981015460ff1661086a5760405162461bcd60e51b815260206004820152601760248201527f4d61726b6574206e6f74207265736f6c76656420796574000000000000000000604482015260640161040d565b5f838152600660209081526040808320338452909152902060028101546108c25760405162461bcd60e51b815260206004820152600c60248201526b139bc818995d08199bdd5b9960a21b604482015260640161040d565b600481015460ff16156109175760405162461bcd60e51b815260206004820152601860248201527f57696e6e696e677320616c726561647920636c61696d65640000000000000000604482015260640161040d565b60098201545f90610100900460ff1661093457826006015461093a565b82600501545b60098401549091505f90610100900460ff1661095a578360050154610960565b83600601545b90505f6103e8856007015460056109779190611d60565b6109819190611d7d565b90505f8186600701546109949190611daf565b90505f845f03610a27576009870154600187015460ff610100909204821615159116151503610a055760405162461bcd60e51b815260206004820152601860248201527f4e6f2077696e6e65727320746f20636c61696d2066726f6d0000000000000000604482015260640161040d565b83828760020154610a169190611d60565b610a209190611d7d565b9050610a97565b6009870154600187015460ff908116151561010090920416151514610a795760405162461bcd60e51b815260206004820152600860248201526710995d081b1bdcdd60c21b604482015260640161040d565b84828760020154610a8a9190611d60565b610a949190611d7d565b90505b60048601805460ff191660011790555f5b335f90815260056020526040902054811015610b5157335f90815260056020526040902080548b919083908110610ae157610ae1611dc2565b905f5260205f2090600502015f015403610b3f57335f90815260056020526040902080546001919083908110610b1957610b19611dc2565b5f9182526020909120600590910201600401805460ff1916911515919091179055610b51565b80610b4981611dd6565b915050610aa8565b5060405181815233908a907f5380cf6fe903b40c6d5a9e0dfbca2f3a423f0a21520b4d5947ed5169bdba946d9060200160405180910390a36040515f90339083908381818185875af1925050503d805f8114610bc8576040519150601f19603f3d011682016040523d82523d5f602084013e610bcd565b606091505b5050905080610c1e5760405162461bcd60e51b815260206004820152601760248201527f4661696c656420746f2073656e642077696e6e696e6773000000000000000000604482015260640161040d565b50505050505050505050565b5f6001543414610c7c5760405162461bcd60e51b815260206004820152601c60248201527f4d7573742073656e64206578616374207374616b6520616d6f756e7400000000604482015260640161040d565b428211610ccb5760405162461bcd60e51b815260206004820152601e60248201527f446561646c696e65206d75737420626520696e20746865206675747572650000604482015260640161040d565b600a85511015610d0f5760405162461bcd60e51b815260206004820152600f60248201526e151a5d1b19481d1bdbc81cda1bdc9d608a1b604482015260640161040d565b603284511015610d595760405162461bcd60e51b815260206004820152601560248201527411195cd8dc9a5c1d1a5bdb881d1bdbc81cda1bdc9d605a1b604482015260640161040d565b60028054905f610d6883611dd6565b9091555050600254604080516101a081018252828152602080820189815282840189905260608301889052608083018790525f60a0840181905260c0840181905260e0840181905261010084018190526101208401819052610140840181905233610160850152346101808501528581526004909252929020815181559151929350916001820190610dfa9082611e6e565b5060408201516002820190610e0f9082611e6e565b5060608201516003820190610e249082611e6e565b506080820151600482015560a0820151600582015560c0820151600682015560e0820151600782015561010080830151600883015561012083015160098301805461014086015161016087015161ffff1990921693151561ff001916939093179215159093029190911762010000600160b01b031916620100006001600160a01b039093169290920291909117905561018090910151600a90910155604051339082907f03e783e31593f59fda73a59d05e2525d610a533995cce4d4750186c3b6bf80bb90610ef69089908790611f2a565b60405180910390a3949350505050565b6005602052815f5260405f208181548110610f1f575f80fd5b5f9182526020909120600590910201805460018201546002830154600384015460049094015492955060ff918216945092911685565b815f81118015610f6757506002548111155b610f835760405162461bcd60e51b815260040161040d90611d1d565b5f83815260046020526040902060090154839060ff1615610fe05760405162461bcd60e51b815260206004820152601760248201527613585c9ad95d08185b1c9958591e481c995cdbdb1d9959604a1b604482015260640161040d565b5f84815260046020819052604090912001548490421061103b5760405162461bcd60e51b815260206004820152601660248201527513585c9ad95d08191958591b1a5b99481c185cdcd95960521b604482015260640161040d565b5f543410156110815760405162461bcd60e51b815260206004820152601260248201527142657420616d6f756e7420746f6f206c6f7760701b604482015260640161040d565b5f858152600660209081526040808320338452909152902060020154156110ea5760405162461bcd60e51b815260206004820152601a60248201527f416c726561647920626574206f6e2074686973206d61726b6574000000000000604482015260640161040d565b5f85815260046020526040902084156111495734816005015f8282546111109190611d9c565b90915550505f868152600760209081526040808320600184529091528120805434929061113e908490611d9c565b9091555061118f9050565b34816006015f82825461115c9190611d9c565b90915550505f86815260076020908152604080832083805290915281208054349290611189908490611d9c565b90915550505b34816007015f8282546111a29190611d9c565b9091555050600881018054905f6111b883611dd6565b91905055505f6040518060a0016040528088815260200187151581526020013481526020014281526020015f1515815250905060055f336001600160a01b03166001600160a01b031681526020019081526020015f2081908060018154018082558091505060019003905f5260205f2090600502015f909190919091505f820151815f01556020820151816001015f6101000a81548160ff02191690831515021790555060408201518160020155606082015181600301556080820151816004015f6101000a81548160ff02191690831515021790555050508060065f8981526020019081526020015f205f336001600160a01b03166001600160a01b031681526020019081526020015f205f820151815f01556020820151816001015f6101000a81548160ff02191690831515021790555060408201518160020155606082015181600301556080820151816004015f6101000a81548160ff021916908315150217905550905050336001600160a01b0316877f4af71b021e799c62c158bd54636ca8da2fa26115a21a2dc6efe486ec104fd15f88346040516113689291909115158252602082015260400190565b60405180910390a350505050505050565b6113e7604051806101a001604052805f81526020016060815260200160608152602001606081526020015f81526020015f81526020015f81526020015f81526020015f81526020015f151581526020015f151581526020015f6001600160a01b031681526020015f81525090565b815f811180156113f957506002548111155b6114155760405162461bcd60e51b815260040161040d90611d1d565b60045f8481526020019081526020015f20604051806101a00160405290815f820154815260200160018201805461144b90611dee565b80601f016020809104026020016040519081016040528092919081815260200182805461147790611dee565b80156114c25780601f10611499576101008083540402835291602001916114c2565b820191905f5260205f20905b8154815290600101906020018083116114a557829003601f168201915b505050505081526020016002820180546114db90611dee565b80601f016020809104026020016040519081016040528092919081815260200182805461150790611dee565b80156115525780601f1061152957610100808354040283529160200191611552565b820191905f5260205f20905b81548152906001019060200180831161153557829003601f168201915b5050505050815260200160038201805461156b90611dee565b80601f016020809104026020016040519081016040528092919081815260200182805461159790611dee565b80156115e25780601f106115b9576101008083540402835291602001916115e2565b820191905f5260205f20905b8154815290600101906020018083116115c557829003601f168201915b505050918352505060048201546020820152600582015460408201526006820154606082015260078201546080820152600882015460a0820152600982015460ff808216151560c0840152610100808304909116151560e0840152620100009091046001600160a01b031690820152600a909101546101209091015291505b50919050565b60046020525f90815260409020805460018201805491929161168890611dee565b80601f01602080910402602001604051908101604052809291908181526020018280546116b490611dee565b80156116ff5780601f106116d6576101008083540402835291602001916116ff565b820191905f5260205f20905b8154815290600101906020018083116116e257829003601f168201915b50505050509080600201805461171490611dee565b80601f016020809104026020016040519081016040528092919081815260200182805461174090611dee565b801561178b5780601f106117625761010080835404028352916020019161178b565b820191905f5260205f20905b81548152906001019060200180831161176e57829003601f168201915b5050505050908060030180546117a090611dee565b80601f01602080910402602001604051908101604052809291908181526020018280546117cc90611dee565b80156118175780601f106117ee57610100808354040283529160200191611817565b820191905f5260205f20905b8154815290600101906020018083116117fa57829003601f168201915b50505050600483015460058401546006850154600786015460088701546009880154600a90980154969794969395509193909260ff80831692610100810490911691620100009091046001600160a01b0316908d565b6003546001600160a01b031633146118975760405162461bcd60e51b815260040161040d90611ce6565b5f55565b5f602082840312156118ab575f80fd5b5035919050565b80356001600160a01b03811681146118c8575f80fd5b919050565b5f602082840312156118dd575f80fd5b6118e6826118b2565b9392505050565b602080825282518282018190525f919060409081850190868401855b82811015611951578151805185528681015115158786015285810151868601526060808201519086015260809081015115159085015260a09093019290850190600101611909565b5091979650505050505050565b5f806040838503121561196f575f80fd5b8235915061197f602084016118b2565b90509250929050565b5f8060408385031215611999575f80fd5b82359150602083013580151581146119af575f80fd5b809150509250929050565b634e487b7160e01b5f52604160045260245ffd5b5f82601f8301126119dd575f80fd5b813567ffffffffffffffff808211156119f8576119f86119ba565b604051601f8301601f19908116603f01168101908282118183101715611a2057611a206119ba565b81604052838152866020858801011115611a38575f80fd5b836020870160208301375f602085830101528094505050505092915050565b5f805f8060808587031215611a6a575f80fd5b843567ffffffffffffffff80821115611a81575f80fd5b611a8d888389016119ce565b95506020870135915080821115611aa2575f80fd5b611aae888389016119ce565b94506040870135915080821115611ac3575f80fd5b50611ad0878288016119ce565b949793965093946060013593505050565b5f8060408385031215611af2575f80fd5b611afb836118b2565b946020939093013593505050565b5f81518084525f5b81811015611b2d57602081850181015186830182015201611b11565b505f602082860101526020601f19601f83011685010191505092915050565b60208152815160208201525f60208301516101a0806040850152611b746101c0850183611b09565b91506040850151601f1980868503016060870152611b928483611b09565b9350606087015191508086850301608087015250611bb08382611b09565b925050608085015160a085015260a085015160c085015260c085015160e085015260e0850151610100818187015280870151915050610120818187015280870151915050610140611c048187018315159052565b8601519050610160611c198682018315159052565b8601519050610180611c35868201836001600160a01b03169052565b959095015193019290925250919050565b8d81526101a060208201525f611c606101a083018f611b09565b8281036040840152611c72818f611b09565b90508281036060840152611c86818e611b09565b9150508a60808301528960a08301528860c08301528760e083015286610100830152851515610120830152611cc061014083018615159052565b6001600160a01b039390931661016082015261018001529b9a5050505050505050505050565b60208082526018908201527f4f6e6c79206f776e65722063616e2063616c6c20746869730000000000000000604082015260600190565b60208082526015908201527413585c9ad95d08191bd95cc81b9bdd08195e1a5cdd605a1b604082015260600190565b634e487b7160e01b5f52601160045260245ffd5b8082028115828204841417611d7757611d77611d4c565b92915050565b5f82611d9757634e487b7160e01b5f52601260045260245ffd5b500490565b80820180821115611d7757611d77611d4c565b81810381811115611d7757611d77611d4c565b634e487b7160e01b5f52603260045260245ffd5b5f60018201611de757611de7611d4c565b5060010190565b600181811c90821680611e0257607f821691505b60208210810361166157634e487b7160e01b5f52602260045260245ffd5b601f821115611e69575f81815260208120601f850160051c81016020861015611e465750805b601f850160051c820191505b81811015611e6557828155600101611e52565b5050505b505050565b815167ffffffffffffffff811115611e8857611e886119ba565b611e9c81611e968454611dee565b84611e20565b602080601f831160018114611ecf575f8415611eb85750858301515b5f19600386901b1c1916600185901b178555611e65565b5f85815260208120601f198616915b82811015611efd57888601518255948401946001909101908401611ede565b5085821015611f1a57878501515f19600388901b60f8161c191681555b5050505050600190811b01905550565b604081525f611f3c6040830185611b09565b9050826020830152939250505056fea264697066735822122055c03a7dd99cf5493e0eafb88f27d4e6dd13bde58d7810760c43a8aa0fff7ac464736f6c63430008140033",
  "linkReferences": {},
  "deployedLinkReferences": {},
  "immutableReferences": {},
  "inputSourceName": "project/contracts/PredictionMarket.sol",
  "buildInfoId": "solc-0_8_20-7db7e60371e691747625575c48d6391362f26b51"
}