{
  "_format": "hh-sol-artifact-1",
  "contractName": "MockAggregator",
  "sourceName": "contracts/mocks/MockAggregator.sol",
  "abi": [
    {
      "inputs": [
        {
          "internalType": "int256",
          "name": "initialAnswer",
          "type": "int256"
        }
      ],
      "stateMutability": "nonpayable",
      "type": "constructor"
    },
    {
      "inputs": [],
      "name": "latestRoundData",
      "outputs": [
        {
          "internalType": "uint80",
          "name": "roundId",
          "type": "uint80"
        },
        {
          "internalType": "int256",
          "name": "answer",
          "type": "int256"
        },
        {
          "internalType": "uint256",
          "name": "startedAt",
          "type": "uint256"
        },
        {
          "internalType": "uint256",
          "name": "updatedAt",
          "type": "uint256"
        },
        {
          "internalType": "uint80",
          "name": "answeredInRound",
          "type": "uint80"
        }
      ],
      "stateMutability": "view",
      "type": "function"
    },
    {
      "inputs": [
        {
          "internalType": "int256",
          "name": "newAnswer",
          "type": "int256"
        }
      ],
      "name": "updateAnswer",
      "outputs": [],
      "stateMutability": "nonpayable",
      "type": "function"
    },
    {
      "inputs": [
        {
          "internalType": "uint256",
          "name": "timestamp",
          "type": "uint256"
        }
      ],
      "name": "updateStaleTimestamp",
      "outputs": [],
      "stateMutability": "nonpayable",
      "type": "function"
    }
  ],
  "bytecode": "0x60803461006757601f6101b038819003918201601f19168301916001600160401b0383118484101761006c578084926020946040528339810103126100675751600055600180546001600160501b031916811790554260025560405161012d90816100838239f35b600080fd5b634e487b7160e01b600052604160045260246000fdfe60806040526004361015601157600080fd5b6000803560e01c806328ce3bad1460de578063a87a20ce1460815763feaf968c14603a57600080fd5b34607e5780600319360112607e5760a09069ffffffffffffffffffff6001541690549060025460405192828452602084015280604084015260608301526080820152f35b80fd5b5034607e576020366003190112607e57600435815560015469ffffffffffffffffffff60018183160181811160ca57169069ffffffffffffffffffff1916176001554260025580f35b634e487b7160e01b84526011600452602484fd5b5034607e576020366003190112607e5760043560025580f3fea264697066735822122029a3c4b2a159ea1575ae6a30db0c457c284fd3bfca0f1689b444cde96b53ee5464736f6c63430008140033",
  "linkReferences": {},
  "deployedLinkReferences": {}
}